{
  "_format": "hh-sol-artifact-1",
  "contractName": "ETHRegistrarController",
  "sourceName": "contracts/web3registrar/Web3RegistrarController.sol",
  "abi": [
    {
      "inputs": [
        {
          "internalType": "contract BaseRegistrarImplementation",
          "name": "_base",
          "type": "address"
        },
        {
          "internalType": "contract IFiatPriceOracle",
          "name": "_prices",
          "type": "address"
        },
        {
          "internalType": "uint256",
          "name": "_minCommitmentAge",
          "type": "uint256"
        },
        {
          "internalType": "uint256",
          "name": "_maxCommitmentAge",
          "type": "uint256"
        },
        {
          "internalType": "contract ReverseRegistrar",
          "name": "_reverseRegistrar",
          "type": "address"
        },
        {
          "internalType": "contract INameWrapper",
          "name": "_nameWrapper",
          "type": "address"
        }
      ],
      "stateMutability": "nonpayable",
      "type": "constructor"
    },
    {
      "inputs": [
        {
          "internalType": "bytes32",
          "name": "commitment",
          "type": "bytes32"
        }
      ],
      "name": "CommitmentTooNew",
      "type": "error"
    },
    {
      "inputs": [
        {
          "internalType": "bytes32",
          "name": "commitment",
          "type": "bytes32"
        }
      ],
      "name": "CommitmentTooOld",
      "type": "error"
    },
    {
      "inputs": [
        {
          "internalType": "uint256",
          "name": "duration",
          "type": "uint256"
        }
      ],
      "name": "DurationTooShort",
      "type": "error"
    },
    {
      "inputs": [],
      "name": "InsufficientValue",
      "type": "error"
    },
    {
      "inputs": [
        {
          "internalType": "string",
          "name": "name",
          "type": "string"
        }
      ],
      "name": "InvalidLabel",
      "type": "error"
    },
    {
      "inputs": [],
      "name": "MaxCommitmentAgeTooHigh",
      "type": "error"
    },
    {
      "inputs": [],
      "name": "MaxCommitmentAgeTooLow",
      "type": "error"
    },
    {
      "inputs": [
        {
          "internalType": "string",
          "name": "name",
          "type": "string"
        }
      ],
      "name": "NameNotAvailable",
      "type": "error"
    },
    {
      "inputs": [],
      "name": "ResolverRequiredWhenDataSupplied",
      "type": "error"
    },
    {
      "inputs": [
        {
          "internalType": "bytes32",
          "name": "node",
          "type": "bytes32"
        }
      ],
      "name": "Unauthorised",
      "type": "error"
    },
    {
      "inputs": [
        {
          "internalType": "bytes32",
          "name": "commitment",
          "type": "bytes32"
        }
      ],
      "name": "UnexpiredCommitmentExists",
      "type": "error"
    },
    {
      "anonymous": false,
      "inputs": [
        {
          "indexed": false,
          "internalType": "uint8",
          "name": "version",
          "type": "uint8"
        }
      ],
      "name": "Initialized",
      "type": "event"
    },
    {
      "anonymous": false,
      "inputs": [
        {
          "indexed": false,
          "internalType": "string",
          "name": "name",
          "type": "string"
        },
        {
          "indexed": true,
          "internalType": "bytes32",
          "name": "label",
          "type": "bytes32"
        },
        {
          "indexed": true,
          "internalType": "address",
          "name": "owner",
          "type": "address"
        },
        {
          "indexed": false,
          "internalType": "uint256",
          "name": "baseCost",
          "type": "uint256"
        },
        {
          "indexed": false,
          "internalType": "uint256",
          "name": "premium",
          "type": "uint256"
        },
        {
          "indexed": false,
          "internalType": "uint256",
          "name": "expires",
          "type": "uint256"
        }
      ],
      "name": "NameRegistered",
      "type": "event"
    },
    {
      "anonymous": false,
      "inputs": [
        {
          "indexed": false,
          "internalType": "string",
          "name": "name",
          "type": "string"
        },
        {
          "indexed": true,
          "internalType": "bytes32",
          "name": "label",
          "type": "bytes32"
        },
        {
          "indexed": false,
          "internalType": "uint256",
          "name": "cost",
          "type": "uint256"
        },
        {
          "indexed": false,
          "internalType": "uint256",
          "name": "expires",
          "type": "uint256"
        }
      ],
      "name": "NameRenewed",
      "type": "event"
    },
    {
      "anonymous": false,
      "inputs": [
        {
          "indexed": true,
          "internalType": "address",
          "name": "previousOwner",
          "type": "address"
        },
        {
          "indexed": true,
          "internalType": "address",
          "name": "newOwner",
          "type": "address"
        }
      ],
      "name": "OwnershipTransferred",
      "type": "event"
    },
    {
      "anonymous": false,
      "inputs": [
        {
          "indexed": true,
          "internalType": "bytes32",
          "name": "role",
          "type": "bytes32"
        },
        {
          "indexed": true,
          "internalType": "bytes32",
          "name": "previousAdminRole",
          "type": "bytes32"
        },
        {
          "indexed": true,
          "internalType": "bytes32",
          "name": "newAdminRole",
          "type": "bytes32"
        }
      ],
      "name": "RoleAdminChanged",
      "type": "event"
    },
    {
      "anonymous": false,
      "inputs": [
        {
          "indexed": true,
          "internalType": "bytes32",
          "name": "role",
          "type": "bytes32"
        },
        {
          "indexed": true,
          "internalType": "address",
          "name": "account",
          "type": "address"
        },
        {
          "indexed": true,
          "internalType": "address",
          "name": "sender",
          "type": "address"
        }
      ],
      "name": "RoleGranted",
      "type": "event"
    },
    {
      "anonymous": false,
      "inputs": [
        {
          "indexed": true,
          "internalType": "bytes32",
          "name": "role",
          "type": "bytes32"
        },
        {
          "indexed": true,
          "internalType": "address",
          "name": "account",
          "type": "address"
        },
        {
          "indexed": true,
          "internalType": "address",
          "name": "sender",
          "type": "address"
        }
      ],
      "name": "RoleRevoked",
      "type": "event"
    },
    {
      "inputs": [],
      "name": "ADMIN_ROLE",
      "outputs": [
        {
          "internalType": "bytes32",
          "name": "",
          "type": "bytes32"
        }
      ],
      "stateMutability": "view",
      "type": "function"
    },
    {
      "inputs": [],
      "name": "DEFAULT_ADMIN_ROLE",
      "outputs": [
        {
          "internalType": "bytes32",
          "name": "",
          "type": "bytes32"
        }
      ],
      "stateMutability": "view",
      "type": "function"
    },
    {
      "inputs": [],
      "name": "MIN_REGISTRATION_DURATION",
      "outputs": [
        {
          "internalType": "uint256",
          "name": "",
          "type": "uint256"
        }
      ],
      "stateMutability": "view",
      "type": "function"
    },
    {
      "inputs": [
        {
          "internalType": "string",
          "name": "name",
          "type": "string"
        }
      ],
      "name": "available",
      "outputs": [
        {
          "internalType": "bool",
          "name": "",
          "type": "bool"
        }
      ],
      "stateMutability": "view",
      "type": "function"
    },
    {
      "inputs": [
        {
          "internalType": "bytes32",
          "name": "commitment",
          "type": "bytes32"
        }
      ],
      "name": "commit",
      "outputs": [],
      "stateMutability": "nonpayable",
      "type": "function"
    },
    {
      "inputs": [
        {
          "internalType": "bytes32",
          "name": "commitment",
          "type": "bytes32"
        },
        {
          "internalType": "bytes32",
          "name": "label",
          "type": "bytes32"
        }
      ],
      "name": "commitWithName",
      "outputs": [],
      "stateMutability": "nonpayable",
      "type": "function"
    },
    {
      "inputs": [
        {
          "internalType": "bytes32",
          "name": "",
          "type": "bytes32"
        }
      ],
      "name": "commitments",
      "outputs": [
        {
          "internalType": "uint256",
          "name": "",
          "type": "uint256"
        }
      ],
      "stateMutability": "view",
      "type": "function"
    },
    {
      "inputs": [
        {
          "internalType": "bytes32",
          "name": "role",
          "type": "bytes32"
        }
      ],
      "name": "getRoleAdmin",
      "outputs": [
        {
          "internalType": "bytes32",
          "name": "",
          "type": "bytes32"
        }
      ],
      "stateMutability": "view",
      "type": "function"
    },
    {
      "inputs": [
        {
          "internalType": "bytes32",
          "name": "role",
          "type": "bytes32"
        },
        {
          "internalType": "address",
          "name": "account",
          "type": "address"
        }
      ],
      "name": "grantRole",
      "outputs": [],
      "stateMutability": "nonpayable",
      "type": "function"
    },
    {
      "inputs": [
        {
          "internalType": "bytes32",
          "name": "role",
          "type": "bytes32"
        },
        {
          "internalType": "address",
          "name": "account",
          "type": "address"
        }
      ],
      "name": "hasRole",
      "outputs": [
        {
          "internalType": "bool",
          "name": "",
          "type": "bool"
        }
      ],
      "stateMutability": "view",
      "type": "function"
    },
    {
      "inputs": [
        {
          "internalType": "contract BaseRegistrarImplementation",
          "name": "_base",
          "type": "address"
        },
        {
          "internalType": "contract IFiatPriceOracle",
          "name": "_prices",
          "type": "address"
        },
        {
          "internalType": "uint256",
          "name": "_minCommitmentAge",
          "type": "uint256"
        },
        {
          "internalType": "uint256",
          "name": "_maxCommitmentAge",
          "type": "uint256"
        },
        {
          "internalType": "contract ReverseRegistrar",
          "name": "_reverseRegistrar",
          "type": "address"
        },
        {
          "internalType": "contract INameWrapper",
          "name": "_nameWrapper",
          "type": "address"
        }
      ],
      "name": "initialize",
      "outputs": [],
      "stateMutability": "nonpayable",
      "type": "function"
    },
    {
      "inputs": [
        {
          "internalType": "bytes32",
          "name": "label",
          "type": "bytes32"
        }
      ],
      "name": "labelAvailable",
      "outputs": [
        {
          "internalType": "bool",
          "name": "",
          "type": "bool"
        }
      ],
      "stateMutability": "view",
      "type": "function"
    },
    {
      "inputs": [
        {
          "internalType": "bytes32",
          "name": "",
          "type": "bytes32"
        }
      ],
      "name": "labelCommitments",
      "outputs": [
        {
          "internalType": "uint256",
          "name": "",
          "type": "uint256"
        }
      ],
      "stateMutability": "view",
      "type": "function"
    },
    {
      "inputs": [
        {
          "internalType": "string",
          "name": "_label",
          "type": "string"
        }
      ],
      "name": "labelStatus",
      "outputs": [
        {
          "internalType": "enum ETHRegistrarController.LabelStatus",
          "name": "",
          "type": "uint8"
        }
      ],
      "stateMutability": "view",
      "type": "function"
    },
    {
      "inputs": [
        {
          "internalType": "string",
          "name": "name",
          "type": "string"
        },
        {
          "internalType": "address",
          "name": "owner",
          "type": "address"
        },
        {
          "internalType": "uint256",
          "name": "duration",
          "type": "uint256"
        },
        {
          "internalType": "bytes32",
          "name": "secret",
          "type": "bytes32"
        },
        {
          "internalType": "address",
          "name": "resolver",
          "type": "address"
        },
        {
          "internalType": "bytes[]",
          "name": "data",
          "type": "bytes[]"
        },
        {
          "internalType": "bool",
          "name": "reverseRecord",
          "type": "bool"
        },
        {
          "internalType": "uint32",
          "name": "fuses",
          "type": "uint32"
        },
        {
          "internalType": "uint64",
          "name": "wrapperExpiry",
          "type": "uint64"
        }
      ],
      "name": "makeCommitment",
      "outputs": [
        {
          "internalType": "bytes32",
          "name": "",
          "type": "bytes32"
        }
      ],
      "stateMutability": "view",
      "type": "function"
    },
    {
      "inputs": [],
      "name": "maxCommitmentAge",
      "outputs": [
        {
          "internalType": "uint256",
          "name": "",
          "type": "uint256"
        }
      ],
      "stateMutability": "view",
      "type": "function"
    },
    {
      "inputs": [],
      "name": "minCommitmentAge",
      "outputs": [
        {
          "internalType": "uint256",
          "name": "",
          "type": "uint256"
        }
      ],
      "stateMutability": "view",
      "type": "function"
    },
    {
      "inputs": [],
      "name": "nameWhitelist",
      "outputs": [
        {
          "internalType": "contract INameWhitelist",
          "name": "",
          "type": "address"
        }
      ],
      "stateMutability": "view",
      "type": "function"
    },
    {
      "inputs": [],
      "name": "nameWrapper",
      "outputs": [
        {
          "internalType": "contract INameWrapper",
          "name": "",
          "type": "address"
        }
      ],
      "stateMutability": "view",
      "type": "function"
    },
    {
      "inputs": [],
      "name": "owner",
      "outputs": [
        {
          "internalType": "address",
          "name": "",
          "type": "address"
        }
      ],
      "stateMutability": "view",
      "type": "function"
    },
    {
      "inputs": [],
      "name": "prices",
      "outputs": [
        {
          "internalType": "contract IFiatPriceOracle",
          "name": "",
          "type": "address"
        }
      ],
      "stateMutability": "view",
      "type": "function"
    },
    {
      "inputs": [
        {
          "internalType": "address",
          "name": "_token",
          "type": "address"
        },
        {
          "internalType": "address",
          "name": "_to",
          "type": "address"
        },
        {
          "internalType": "uint256",
          "name": "_amount",
          "type": "uint256"
        }
      ],
      "name": "recoverFunds",
      "outputs": [],
      "stateMutability": "nonpayable",
      "type": "function"
    },
    {
      "inputs": [
        {
          "internalType": "string",
          "name": "name",
          "type": "string"
        },
        {
          "internalType": "address",
          "name": "owner",
          "type": "address"
        },
        {
          "internalType": "uint256",
          "name": "duration",
          "type": "uint256"
        },
        {
          "internalType": "bytes32",
          "name": "secret",
          "type": "bytes32"
        },
        {
          "internalType": "address",
          "name": "resolver",
          "type": "address"
        },
        {
          "internalType": "bytes[]",
          "name": "data",
          "type": "bytes[]"
        },
        {
          "internalType": "bool",
          "name": "reverseRecord",
          "type": "bool"
        },
        {
          "internalType": "uint32",
          "name": "fuses",
          "type": "uint32"
        },
        {
          "internalType": "uint64",
          "name": "wrapperExpiry",
          "type": "uint64"
        }
      ],
      "name": "register",
      "outputs": [],
      "stateMutability": "payable",
      "type": "function"
    },
    {
      "inputs": [
        {
          "internalType": "string",
          "name": "name",
          "type": "string"
        },
        {
          "internalType": "address",
          "name": "owner",
          "type": "address"
        },
        {
          "internalType": "uint256",
          "name": "duration",
          "type": "uint256"
        },
        {
          "internalType": "bytes32",
          "name": "secret",
          "type": "bytes32"
        },
        {
          "internalType": "address",
          "name": "resolver",
          "type": "address"
        },
        {
          "internalType": "bytes[]",
          "name": "data",
          "type": "bytes[]"
        },
        {
          "internalType": "bool",
          "name": "reverseRecord",
          "type": "bool"
        },
        {
          "internalType": "uint32",
          "name": "fuses",
          "type": "uint32"
        },
        {
          "internalType": "uint64",
          "name": "wrapperExpiry",
          "type": "uint64"
        }
      ],
      "name": "registerWithFiat",
      "outputs": [],
      "stateMutability": "nonpayable",
      "type": "function"
    },
    {
      "inputs": [
        {
          "internalType": "string",
          "name": "name",
          "type": "string"
        },
        {
          "internalType": "uint256",
          "name": "duration",
          "type": "uint256"
        }
      ],
      "name": "renew",
      "outputs": [],
      "stateMutability": "payable",
      "type": "function"
    },
    {
      "inputs": [
        {
          "internalType": "string",
          "name": "name",
          "type": "string"
        },
        {
          "internalType": "uint256",
          "name": "duration",
          "type": "uint256"
        },
        {
          "internalType": "uint32",
          "name": "fuses",
          "type": "uint32"
        },
        {
          "internalType": "uint64",
          "name": "wrapperExpiry",
          "type": "uint64"
        }
      ],
      "name": "renewWithFiat",
      "outputs": [],
      "stateMutability": "nonpayable",
      "type": "function"
    },
    {
      "inputs": [
        {
          "internalType": "string",
          "name": "name",
          "type": "string"
        },
        {
          "internalType": "uint256",
          "name": "duration",
          "type": "uint256"
        },
        {
          "internalType": "uint32",
          "name": "fuses",
          "type": "uint32"
        },
        {
          "internalType": "uint64",
          "name": "wrapperExpiry",
          "type": "uint64"
        }
      ],
      "name": "renewWithFuses",
      "outputs": [],
      "stateMutability": "payable",
      "type": "function"
    },
    {
      "inputs": [],
      "name": "renounceOwnership",
      "outputs": [],
      "stateMutability": "nonpayable",
      "type": "function"
    },
    {
      "inputs": [
        {
          "internalType": "bytes32",
          "name": "role",
          "type": "bytes32"
        },
        {
          "internalType": "address",
          "name": "account",
          "type": "address"
        }
      ],
      "name": "renounceRole",
      "outputs": [],
      "stateMutability": "nonpayable",
      "type": "function"
    },
    {
      "inputs": [
        {
          "internalType": "string",
          "name": "name",
          "type": "string"
        },
        {
          "internalType": "uint256",
          "name": "duration",
          "type": "uint256"
        }
      ],
      "name": "rentPrice",
      "outputs": [
        {
          "components": [
            {
              "internalType": "uint256",
              "name": "base",
              "type": "uint256"
            },
            {
              "internalType": "uint256",
              "name": "premium",
              "type": "uint256"
            }
          ],
          "internalType": "struct IPriceOracle.Price",
          "name": "price",
          "type": "tuple"
        }
      ],
      "stateMutability": "view",
      "type": "function"
    },
    {
      "inputs": [
        {
          "internalType": "string",
          "name": "name",
          "type": "string"
        },
        {
          "internalType": "uint256",
          "name": "duration",
          "type": "uint256"
        }
      ],
      "name": "rentPriceInFiat",
      "outputs": [
        {
          "components": [
            {
              "internalType": "uint256",
              "name": "base",
              "type": "uint256"
            },
            {
              "internalType": "uint256",
              "name": "premium",
              "type": "uint256"
            }
          ],
          "internalType": "struct IPriceOracle.Price",
          "name": "price",
          "type": "tuple"
        }
      ],
      "stateMutability": "view",
      "type": "function"
    },
    {
      "inputs": [],
      "name": "reverseRegistrar",
      "outputs": [
        {
          "internalType": "contract ReverseRegistrar",
          "name": "",
          "type": "address"
        }
      ],
      "stateMutability": "view",
      "type": "function"
    },
    {
      "inputs": [
        {
          "internalType": "bytes32",
          "name": "role",
          "type": "bytes32"
        },
        {
          "internalType": "address",
          "name": "account",
          "type": "address"
        }
      ],
      "name": "revokeRole",
      "outputs": [],
      "stateMutability": "nonpayable",
      "type": "function"
    },
    {
      "inputs": [
        {
          "internalType": "uint256",
          "name": "_minCommitmentAge",
          "type": "uint256"
        },
        {
          "internalType": "uint256",
          "name": "_maxCommitmentAge",
          "type": "uint256"
        }
      ],
      "name": "setCommitmentAge",
      "outputs": [],
      "stateMutability": "nonpayable",
      "type": "function"
    },
    {
      "inputs": [
        {
          "internalType": "contract INameWhitelist",
          "name": "_nameWhitelist",
          "type": "address"
        }
      ],
      "name": "setNameWhitelist",
      "outputs": [],
      "stateMutability": "nonpayable",
      "type": "function"
    },
    {
      "inputs": [
        {
          "internalType": "bytes4",
          "name": "interfaceID",
          "type": "bytes4"
        }
      ],
      "name": "supportsInterface",
      "outputs": [
        {
          "internalType": "bool",
          "name": "",
          "type": "bool"
        }
      ],
      "stateMutability": "pure",
      "type": "function"
    },
    {
      "inputs": [
        {
          "internalType": "address",
          "name": "newOwner",
          "type": "address"
        }
      ],
      "name": "transferOwnership",
      "outputs": [],
      "stateMutability": "nonpayable",
      "type": "function"
    },
    {
      "inputs": [
        {
          "internalType": "string",
          "name": "name",
          "type": "string"
        }
      ],
      "name": "valid",
      "outputs": [
        {
          "internalType": "bool",
          "name": "",
          "type": "bool"
        }
      ],
      "stateMutability": "pure",
      "type": "function"
    },
    {
      "inputs": [],
      "name": "withdraw",
      "outputs": [],
      "stateMutability": "nonpayable",
      "type": "function"
    }
  ],
  "bytecode": "0x60806040523480156200001157600080fd5b506040516200513038038062005130833981810160405281019062000037919062000601565b620000576200004b620000ab60201b60201c565b620000b360201b60201c565b620000897fa49807205ce4d355092ef5a8a18f56e8913cf4a201fbe287825b095693c21775336200017960201b60201c565b6200009f8686868686866200018f60201b60201c565b5050505050506200069d565b600033905090565b6000600160009054906101000a900473ffffffffffffffffffffffffffffffffffffffff16905081600160006101000a81548173ffffffffffffffffffffffffffffffffffffffff021916908373ffffffffffffffffffffffffffffffffffffffff1602179055508173ffffffffffffffffffffffffffffffffffffffff168173ffffffffffffffffffffffffffffffffffffffff167f8be0079c531659141344cd1fd0a4f28419497f9722a3daafe3b4186f6b6457e060405160405180910390a35050565b6200018b82826200031e60201b60201c565b5050565b838311620001c9576040517f3e5aa83800000000000000000000000000000000000000000000000000000000815260040160405180910390fd5b4283111562000204576040517f2d0c679400000000000000000000000000000000000000000000000000000000815260040160405180910390fd5b85600260006101000a81548173ffffffffffffffffffffffffffffffffffffffff021916908373ffffffffffffffffffffffffffffffffffffffff16021790555084600360006101000a81548173ffffffffffffffffffffffffffffffffffffffff021916908373ffffffffffffffffffffffffffffffffffffffff160217905550836004819055508260058190555081600660006101000a81548173ffffffffffffffffffffffffffffffffffffffff021916908373ffffffffffffffffffffffffffffffffffffffff16021790555080600760006101000a81548173ffffffffffffffffffffffffffffffffffffffff021916908373ffffffffffffffffffffffffffffffffffffffff160217905550505050505050565b6200033082826200040f60201b60201c565b6200040b57600160008084815260200190815260200160002060000160008373ffffffffffffffffffffffffffffffffffffffff1673ffffffffffffffffffffffffffffffffffffffff16815260200190815260200160002060006101000a81548160ff021916908315150217905550620003b0620000ab60201b60201c565b73ffffffffffffffffffffffffffffffffffffffff168173ffffffffffffffffffffffffffffffffffffffff16837f2f8788117e7eff1d82e926ec794901d17c78024a50270940304540a733656f0d60405160405180910390a45b5050565b600080600084815260200190815260200160002060000160008373ffffffffffffffffffffffffffffffffffffffff1673ffffffffffffffffffffffffffffffffffffffff16815260200190815260200160002060009054906101000a900460ff16905092915050565b600080fd5b600073ffffffffffffffffffffffffffffffffffffffff82169050919050565b6000620004ab826200047e565b9050919050565b6000620004bf826200049e565b9050919050565b620004d181620004b2565b8114620004dd57600080fd5b50565b600081519050620004f181620004c6565b92915050565b600062000504826200049e565b9050919050565b6200051681620004f7565b81146200052257600080fd5b50565b60008151905062000536816200050b565b92915050565b6000819050919050565b62000551816200053c565b81146200055d57600080fd5b50565b600081519050620005718162000546565b92915050565b600062000584826200049e565b9050919050565b620005968162000577565b8114620005a257600080fd5b50565b600081519050620005b6816200058b565b92915050565b6000620005c9826200049e565b9050919050565b620005db81620005bc565b8114620005e757600080fd5b50565b600081519050620005fb81620005d0565b92915050565b60008060008060008060c0878903121562000621576200062062000479565b5b60006200063189828a01620004e0565b96505060206200064489828a0162000525565b95505060406200065789828a0162000560565b94505060606200066a89828a0162000560565b93505060806200067d89828a01620005a5565b92505060a06200069089828a01620005ea565b9150509295509295509295565b614a8380620006ad6000396000f3fe6080604052600436106102305760003560e01c80638da5cb5b1161012e578063d01b0198116100ab578063e221496f1161006f578063e221496f14610860578063e4214b4614610889578063f14fcbc8146108b2578063f15de3b8146108db578063f2fde38b1461090457610230565b8063d01b019814610769578063d2d10162146107a6578063d3419bf3146107cf578063d547741f146107fa578063d555254a1461082357610230565b8063a8e5fbc0116100f2578063a8e5fbc01461067d578063acf1a841146106a8578063aeb8ce9b146106c4578063b2f100f014610701578063ce1e09c01461073e57610230565b80638da5cb5b1461057057806391d148541461059b5780639791c097146105d85780639da4f2e114610615578063a217fddf1461065257610230565b80636459220f116101bc57806380869853116101805780638086985314610475578063839df945146104a057806383e7f6ff146104dd5780638a95b09f1461051a5780638d839ffe1461054557610230565b80636459220f146103d2578063645b3f66146103ee578063715018a61461041757806375b238fc1461042e5780637acaaf261461045957610230565b80632f2ff15d116102035780632f2ff15d1461030357806336568abe1461032c5780633ccfd60b146103555780635d3590d51461036c5780635dcd6a621461039557610230565b806301ffc9a7146102355780631e803098146102725780631ea61fc41461029d578063248a9ca3146102c6575b600080fd5b34801561024157600080fd5b5061025c60048036038101906102579190612d67565b61092d565b6040516102699190612daf565b60405180910390f35b34801561027e57600080fd5b506102876109ff565b6040516102949190612e49565b60405180910390f35b3480156102a957600080fd5b506102c460048036038101906102bf9190612f7b565b610a25565b005b3480156102d257600080fd5b506102ed60048036038101906102e89190613039565b610b65565b6040516102fa9190613075565b60405180910390f35b34801561030f57600080fd5b5061032a600480360381019061032591906130ce565b610b84565b005b34801561033857600080fd5b50610353600480360381019061034e91906130ce565b610ba5565b005b34801561036157600080fd5b5061036a610c28565b005b34801561037857600080fd5b50610393600480360381019061038e919061310e565b610c78565b005b3480156103a157600080fd5b506103bc60048036038101906103b79190613039565b610d04565b6040516103c99190613170565b60405180910390f35b6103ec60048036038101906103e79190612f7b565b610d1c565b005b3480156103fa57600080fd5b506104156004803603810190610410919061320d565b610e7f565b005b34801561042357600080fd5b5061042c610f0e565b005b34801561043a57600080fd5b50610443610f22565b6040516104509190613075565b60405180910390f35b610473600480360381019061046e919061320d565b610f46565b005b34801561048157600080fd5b5061048a6110cb565b604051610497919061333a565b60405180910390f35b3480156104ac57600080fd5b506104c760048036038101906104c29190613039565b6110f1565b6040516104d49190613170565b60405180910390f35b3480156104e957600080fd5b5061050460048036038101906104ff9190613496565b611109565b6040516105119190613530565b60405180910390f35b34801561052657600080fd5b5061052f611263565b60405161053c9190613170565b60405180910390f35b34801561055157600080fd5b5061055a61126a565b6040516105679190613170565b60405180910390f35b34801561057c57600080fd5b50610585611270565b604051610592919061355a565b60405180910390f35b3480156105a757600080fd5b506105c260048036038101906105bd91906130ce565b61129a565b6040516105cf9190612daf565b60405180910390f35b3480156105e457600080fd5b506105ff60048036038101906105fa9190613575565b611304565b60405161060c9190612daf565b60405180910390f35b34801561062157600080fd5b5061063c60048036038101906106379190613496565b611319565b6040516106499190613530565b60405180910390f35b34801561065e57600080fd5b50610667611473565b6040516106749190613075565b60405180910390f35b34801561068957600080fd5b5061069261147a565b60405161069f91906135df565b60405180910390f35b6106c260048036038101906106bd91906135fa565b6114a0565b005b3480156106d057600080fd5b506106eb60048036038101906106e69190613575565b6114b3565b6040516106f89190612daf565b60405180910390f35b34801561070d57600080fd5b5061072860048036038101906107239190613575565b611578565b60405161073591906136d1565b60405180910390f35b34801561074a57600080fd5b50610753611720565b6040516107609190613170565b60405180910390f35b34801561077557600080fd5b50610790600480360381019061078b9190613039565b611726565b60405161079d9190612daf565b60405180910390f35b3480156107b257600080fd5b506107cd60048036038101906107c891906137e4565b611753565b005b3480156107db57600080fd5b506107e46118a0565b6040516107f19190613892565b60405180910390f35b34801561080657600080fd5b50610821600480360381019061081c91906130ce565b6118c6565b005b34801561082f57600080fd5b5061084a600480360381019061084591906138ad565b6118e7565b6040516108579190613075565b60405180910390f35b34801561086c57600080fd5b50610887600480360381019061088291906139f2565b611a2b565b005b34801561089557600080fd5b506108b060048036038101906108ab9190613a1f565b611a9a565b005b3480156108be57600080fd5b506108d960048036038101906108d49190613039565b611b4a565b005b3480156108e757600080fd5b5061090260048036038101906108fd9190613a5f565b611bc9565b005b34801561091057600080fd5b5061092b60048036038101906109269190613a9f565b611c36565b005b60007f01ffc9a7000000000000000000000000000000000000000000000000000000007bffffffffffffffffffffffffffffffffffffffffffffffffffffffff1916827bffffffffffffffffffffffffffffffffffffffffffffffffffffffff191614806109f857507fdf7ed181000000000000000000000000000000000000000000000000000000007bffffffffffffffffffffffffffffffffffffffffffffffffffffffff1916827bffffffffffffffffffffffffffffffffffffffffffffffffffffffff1916145b9050919050565b600860009054906101000a900473ffffffffffffffffffffffffffffffffffffffff1681565b7fa49807205ce4d355092ef5a8a18f56e8913cf4a201fbe287825b095693c21775610a4f81611cb9565b60008686604051610a61929190613afc565b6040518091039020905060008160001c90506000600760009054906101000a900473ffffffffffffffffffffffffffffffffffffffff1673ffffffffffffffffffffffffffffffffffffffff166347d2e9fe838989896040518563ffffffff1660e01b8152600401610ad69493929190613b33565b6020604051808303816000875af1158015610af5573d6000803e3d6000fd5b505050506040513d601f19601f82011682018060405250810190610b199190613b8d565b9050827f3da24c024582931cfaf8267d8ed24d13a82a8068d5bd337d30ec45cea4e506ae8a8a600085604051610b529493929190613c33565b60405180910390a2505050505050505050565b6000806000838152602001908152602001600020600101549050919050565b610b8d82610b65565b610b9681611cb9565b610ba08383611ccd565b505050565b610bad611dad565b73ffffffffffffffffffffffffffffffffffffffff168173ffffffffffffffffffffffffffffffffffffffff1614610c1a576040517f08c379a0000000000000000000000000000000000000000000000000000000008152600401610c1190613ce5565b60405180910390fd5b610c248282611db5565b5050565b610c30611270565b73ffffffffffffffffffffffffffffffffffffffff166108fc479081150290604051600060405180830381858888f19350505050158015610c75573d6000803e3d6000fd5b50565b610c80611e96565b8273ffffffffffffffffffffffffffffffffffffffff1663a9059cbb83836040518363ffffffff1660e01b8152600401610cbb929190613d05565b6020604051808303816000875af1158015610cda573d6000803e3d6000fd5b505050506040513d601f19601f82011682018060405250810190610cfe9190613d43565b50505050565b600a6020528060005260406000206000915090505481565b60008585604051610d2e929190613afc565b6040518091039020905060007f587d09fe5fa45354680537d38145a28b772971e0f293af3ee0c536fc919710fb60001b82604051602001610d70929190613d91565b604051602081830303815290604052805190602001209050600760009054906101000a900473ffffffffffffffffffffffffffffffffffffffff1673ffffffffffffffffffffffffffffffffffffffff1663f44779b982336040518363ffffffff1660e01b8152600401610de5929190613dbd565b6020604051808303816000875af1158015610e04573d6000803e3d6000fd5b505050506040513d601f19601f82011682018060405250810190610e289190613d43565b610e6957806040517fe4fd57ae000000000000000000000000000000000000000000000000000000008152600401610e609190613075565b60405180910390fd5b610e768787878787611f14565b50505050505050565b7fa49807205ce4d355092ef5a8a18f56e8913cf4a201fbe287825b095693c21775610ea981611cb9565b610eff8c8c8080601f016020809104026020016040519081016040528093929190818152602001838380828437600081840152601f19601f820116905080830192505050505050508b8b8b8b8b8b8b8b8b61211c565b50505050505050505050505050565b610f16611e96565b610f20600061229c565b565b7fa49807205ce4d355092ef5a8a18f56e8913cf4a201fbe287825b095693c2177581565b6000610f968c8c8080601f016020809104026020016040519081016040528093929190818152602001838380828437600081840152601f19601f820116905080830192505050505050508a611109565b905080602001518160000151610fac9190613e15565b341015610fe5576040517f1101129400000000000000000000000000000000000000000000000000000000815260040160405180910390fd5b61103b8c8c8080601f016020809104026020016040519081016040528093929190818152602001838380828437600081840152601f19601f820116905080830192505050505050508b8b8b8b8b8b8b8b8b61211c565b50806020015181600001516110509190613e15565b3411156110bd573373ffffffffffffffffffffffffffffffffffffffff166108fc826020015183600001516110859190613e15565b346110909190613e49565b9081150290604051600060405180830381858888f193505050501580156110bb573d6000803e3d6000fd5b505b505050505050505050505050565b600660009054906101000a900473ffffffffffffffffffffffffffffffffffffffff1681565b60096020528060005260406000206000915090505481565b611111612ce1565b600083805190602001209050600360009054906101000a900473ffffffffffffffffffffffffffffffffffffffff1673ffffffffffffffffffffffffffffffffffffffff166350e9a71585600260009054906101000a900473ffffffffffffffffffffffffffffffffffffffff1673ffffffffffffffffffffffffffffffffffffffff1663d6e4fa868560001c6040518263ffffffff1660e01b81526004016111ba9190613170565b602060405180830381865afa1580156111d7573d6000803e3d6000fd5b505050506040513d601f19601f820116820180604052508101906111fb9190613b8d565b866040518463ffffffff1660e01b815260040161121a93929190613eeb565b6040805180830381865afa158015611236573d6000803e3d6000fd5b505050506040513d601f19601f8201168201806040525081019061125a9190613f7e565b91505092915050565b6224ea0081565b60045481565b6000600160009054906101000a900473ffffffffffffffffffffffffffffffffffffffff16905090565b600080600084815260200190815260200160002060000160008373ffffffffffffffffffffffffffffffffffffffff1673ffffffffffffffffffffffffffffffffffffffff16815260200190815260200160002060009054906101000a900460ff16905092915050565b6000600361131183612362565b119050919050565b611321612ce1565b600083805190602001209050600360009054906101000a900473ffffffffffffffffffffffffffffffffffffffff1673ffffffffffffffffffffffffffffffffffffffff166347dd3cf185600260009054906101000a900473ffffffffffffffffffffffffffffffffffffffff1673ffffffffffffffffffffffffffffffffffffffff1663d6e4fa868560001c6040518263ffffffff1660e01b81526004016113ca9190613170565b602060405180830381865afa1580156113e7573d6000803e3d6000fd5b505050506040513d601f19601f8201168201806040525081019061140b9190613b8d565b866040518463ffffffff1660e01b815260040161142a93929190613eeb565b6040805180830381865afa158015611446573d6000803e3d6000fd5b505050506040513d601f19601f8201168201806040525081019061146a9190613f7e565b91505092915050565b6000801b81565b600760009054906101000a900473ffffffffffffffffffffffffffffffffffffffff1681565b6114ae838383600080611f14565b505050565b600080828051906020012090506114c983611304565b80156115705750600260009054906101000a900473ffffffffffffffffffffffffffffffffffffffff1673ffffffffffffffffffffffffffffffffffffffff166396e494e88260001c6040518263ffffffff1660e01b815260040161152e9190613170565b602060405180830381865afa15801561154b573d6000803e3d6000fd5b505050506040513d601f19601f8201168201806040525081019061156f9190613d43565b5b915050919050565b600061158382611304565b611590576001905061171b565b600860009054906101000a900473ffffffffffffffffffffffffffffffffffffffff1673ffffffffffffffffffffffffffffffffffffffff16633361c49e836040518263ffffffff1660e01b81526004016115eb9190613fab565b602060405180830381865afa158015611608573d6000803e3d6000fd5b505050506040513d601f19601f8201168201806040525081019061162c9190613d43565b1561163a576002905061171b565b600860009054906101000a900473ffffffffffffffffffffffffffffffffffffffff1673ffffffffffffffffffffffffffffffffffffffff16633ec05629836040518263ffffffff1660e01b81526004016116959190613fab565b602060405180830381865afa1580156116b2573d6000803e3d6000fd5b505050506040513d601f19601f820116820180604052508101906116d69190613d43565b6116e3576003905061171b565b6116f38280519060200120611726565b611700576004905061171b565b611709826114b3565b611716576005905061171b565b600090505b919050565b60055481565b600042600554600a60008581526020019081526020016000205461174a9190613e15565b11159050919050565b6000600160159054906101000a900460ff16159050808015611786575060018060149054906101000a900460ff1660ff16105b806117b4575061179530612517565b1580156117b3575060018060149054906101000a900460ff1660ff16145b5b6117f3576040517f08c379a00000000000000000000000000000000000000000000000000000000081526004016117ea9061403f565b60405180910390fd5b60018060146101000a81548160ff021916908360ff160217905550801561182f5760018060156101000a81548160ff0219169083151502179055505b61183d87878787878761253a565b8015611897576000600160156101000a81548160ff0219169083151502179055507f7f26b83ff96e1f2b6a682f133852f6798a09c465da95921460cefb3847402498600160405161188e91906140a7565b60405180910390a15b50505050505050565b600360009054906101000a900473ffffffffffffffffffffffffffffffffffffffff1681565b6118cf82610b65565b6118d881611cb9565b6118e28383611db5565b505050565b6000806118f38c611578565b9050600060058111156119095761190861365a565b5b81600581111561191c5761191b61365a565b5b1461195e578b6040517f0a9644cf0000000000000000000000000000000000000000000000000000000081526004016119559190613fab565b60405180910390fd5b60008c8051906020012090506000888890501180156119a95750600073ffffffffffffffffffffffffffffffffffffffff168973ffffffffffffffffffffffffffffffffffffffff16145b156119e0576040517fd3f605c400000000000000000000000000000000000000000000000000000000815260040160405180910390fd5b808c8c8b8b8b8f8c8c8c604051602001611a039a99989796959493929190614226565b60405160208183030381529060405280519060200120925050509a9950505050505050505050565b7fa49807205ce4d355092ef5a8a18f56e8913cf4a201fbe287825b095693c21775611a5581611cb9565b81600860006101000a81548173ffffffffffffffffffffffffffffffffffffffff021916908373ffffffffffffffffffffffffffffffffffffffff1602179055505050565b7fa49807205ce4d355092ef5a8a18f56e8913cf4a201fbe287825b095693c21775611ac481611cb9565b828211611afd576040517f3e5aa83800000000000000000000000000000000000000000000000000000000815260040160405180910390fd5b42821115611b37576040517f2d0c679400000000000000000000000000000000000000000000000000000000815260040160405180910390fd5b8260048190555081600581905550505050565b426005546009600084815260200190815260200160002054611b6c9190613e15565b10611bae57806040517f0a059d71000000000000000000000000000000000000000000000000000000008152600401611ba59190613075565b60405180910390fd5b42600960008381526020019081526020016000208190555050565b611bd281611726565b611c11576040517f08c379a0000000000000000000000000000000000000000000000000000000008152600401611c0890614308565b60405180910390fd5b42600a600083815260200190815260200160002081905550611c3282611b4a565b5050565b611c3e611e96565b600073ffffffffffffffffffffffffffffffffffffffff168173ffffffffffffffffffffffffffffffffffffffff1603611cad576040517f08c379a0000000000000000000000000000000000000000000000000000000008152600401611ca49061439a565b60405180910390fd5b611cb68161229c565b50565b611cca81611cc5611dad565b6126c7565b50565b611cd7828261129a565b611da957600160008084815260200190815260200160002060000160008373ffffffffffffffffffffffffffffffffffffffff1673ffffffffffffffffffffffffffffffffffffffff16815260200190815260200160002060006101000a81548160ff021916908315150217905550611d4e611dad565b73ffffffffffffffffffffffffffffffffffffffff168173ffffffffffffffffffffffffffffffffffffffff16837f2f8788117e7eff1d82e926ec794901d17c78024a50270940304540a733656f0d60405160405180910390a45b5050565b600033905090565b611dbf828261129a565b15611e9257600080600084815260200190815260200160002060000160008373ffffffffffffffffffffffffffffffffffffffff1673ffffffffffffffffffffffffffffffffffffffff16815260200190815260200160002060006101000a81548160ff021916908315150217905550611e37611dad565b73ffffffffffffffffffffffffffffffffffffffff168173ffffffffffffffffffffffffffffffffffffffff16837ff6391f5c32d9c69d2a47ea670b442974b53935d1edc7fd64eb21e047a839171b60405160405180910390a45b5050565b611e9e611dad565b73ffffffffffffffffffffffffffffffffffffffff16611ebc611270565b73ffffffffffffffffffffffffffffffffffffffff1614611f12576040517f08c379a0000000000000000000000000000000000000000000000000000000008152600401611f0990614406565b60405180910390fd5b565b60008585604051611f26929190613afc565b6040518091039020905060008160001c90506000611f8888888080601f016020809104026020016040519081016040528093929190818152602001838380828437600081840152601f19601f8201169050808301925050505050505087611109565b90508060000151341015611fc8576040517f1101129400000000000000000000000000000000000000000000000000000000815260040160405180910390fd5b6000600760009054906101000a900473ffffffffffffffffffffffffffffffffffffffff1673ffffffffffffffffffffffffffffffffffffffff166347d2e9fe848989896040518563ffffffff1660e01b815260040161202b9493929190613b33565b6020604051808303816000875af115801561204a573d6000803e3d6000fd5b505050506040513d601f19601f8201168201806040525081019061206e9190613b8d565b905081600001513411156120d3573373ffffffffffffffffffffffffffffffffffffffff166108fc8360000151346120a69190613e49565b9081150290604051600060405180830381858888f193505050501580156120d1573d6000803e3d6000fd5b505b837f3da24c024582931cfaf8267d8ed24d13a82a8068d5bd337d30ec45cea4e506ae8a8a34856040516121099493929190614426565b60405180910390a2505050505050505050565b6000806121298c8b611109565b90506121478c8b6121428f8f8f8f8f8f8f8f8f8f6118e7565b612764565b6000600760009054906101000a900473ffffffffffffffffffffffffffffffffffffffff1673ffffffffffffffffffffffffffffffffffffffff16639f56dac68e8e8e8d8a8a6040518763ffffffff1660e01b81526004016121ae96959493929190614466565b6020604051808303816000875af11580156121cd573d6000803e3d6000fd5b505050506040513d601f19601f820116820180604052508101906121f19190613b8d565b9050600088889050111561221357612212898e805190602001208a8a6128f9565b5b8515612225576122248d8a336129dc565b5b8b73ffffffffffffffffffffffffffffffffffffffff168d805190602001207f69e37f151eb98a09618ddaa80c8cfaf1ce5996867c489f45b555b412271ebf278f856000015186602001518660405161228194939291906144ce565b60405180910390a380925050509a9950505050505050505050565b6000600160009054906101000a900473ffffffffffffffffffffffffffffffffffffffff16905081600160006101000a81548173ffffffffffffffffffffffffffffffffffffffff021916908373ffffffffffffffffffffffffffffffffffffffff1602179055508173ffffffffffffffffffffffffffffffffffffffff168173ffffffffffffffffffffffffffffffffffffffff167f8be0079c531659141344cd1fd0a4f28419497f9722a3daafe3b4186f6b6457e060405160405180910390a35050565b60008060008084519050600092505b8082101561250c57600085838151811061238e5761238d61451a565b5b602001015160f81c60f81b9050608060f81b817effffffffffffffffffffffffffffffffffffffffffffffffffffffffffffff191610156123dd576001836123d69190613e15565b92506124f8565b60e060f81b817effffffffffffffffffffffffffffffffffffffffffffffffffffffffffffff1916101561241f576002836124189190613e15565b92506124f7565b60f060f81b817effffffffffffffffffffffffffffffffffffffffffffffffffffffffffffff191610156124615760038361245a9190613e15565b92506124f6565b60f8801b817effffffffffffffffffffffffffffffffffffffffffffffffffffffffffffff191610156124a25760048361249b9190613e15565b92506124f5565b60fc60f81b817effffffffffffffffffffffffffffffffffffffffffffffffffffffffffffff191610156124e4576005836124dd9190613e15565b92506124f4565b6006836124f19190613e15565b92505b5b5b5b5b50828061250490614549565b935050612371565b829350505050919050565b6000808273ffffffffffffffffffffffffffffffffffffffff163b119050919050565b838311612573576040517f3e5aa83800000000000000000000000000000000000000000000000000000000815260040160405180910390fd5b428311156125ad576040517f2d0c679400000000000000000000000000000000000000000000000000000000815260040160405180910390fd5b85600260006101000a81548173ffffffffffffffffffffffffffffffffffffffff021916908373ffffffffffffffffffffffffffffffffffffffff16021790555084600360006101000a81548173ffffffffffffffffffffffffffffffffffffffff021916908373ffffffffffffffffffffffffffffffffffffffff160217905550836004819055508260058190555081600660006101000a81548173ffffffffffffffffffffffffffffffffffffffff021916908373ffffffffffffffffffffffffffffffffffffffff16021790555080600760006101000a81548173ffffffffffffffffffffffffffffffffffffffff021916908373ffffffffffffffffffffffffffffffffffffffff160217905550505050505050565b6126d1828261129a565b612760576126f68173ffffffffffffffffffffffffffffffffffffffff166014612aa5565b6127048360001c6020612aa5565b604051602001612715929190614665565b6040516020818303038152906040526040517f08c379a00000000000000000000000000000000000000000000000000000000081526004016127579190613fab565b60405180910390fd5b5050565b4260045460096000848152602001908152602001600020546127869190613e15565b11156127c957806040517f5320bcf90000000000000000000000000000000000000000000000000000000081526004016127c09190613075565b60405180910390fd5b4260055460096000848152602001908152602001600020546127eb9190613e15565b1161282d57806040517fcb7690d70000000000000000000000000000000000000000000000000000000081526004016128249190613075565b60405180910390fd5b612836836114b3565b61287757826040517f477707e800000000000000000000000000000000000000000000000000000000815260040161286e9190613fab565b60405180910390fd5b6009600082815260200190815260200160002060009055600a600084805190602001208152602001908152602001600020600090556224ea008210156128f457816040517f9a71997b0000000000000000000000000000000000000000000000000000000081526004016128eb9190613170565b60405180910390fd5b505050565b60007f587d09fe5fa45354680537d38145a28b772971e0f293af3ee0c536fc919710fb60001b84604051602001612931929190613d91565b60405160208183030381529060405280519060200120905060008590508073ffffffffffffffffffffffffffffffffffffffff1663e32954eb8386866040518463ffffffff1660e01b815260040161298b9392919061469f565b6000604051808303816000875af11580156129aa573d6000803e3d6000fd5b505050506040513d6000823e3d601f19601f820116820180604052508101906129d39190614853565b50505050505050565b600660009054906101000a900473ffffffffffffffffffffffffffffffffffffffff1673ffffffffffffffffffffffffffffffffffffffff16637a806d6b33838587604051602001612a2e91906148c2565b6040516020818303038152906040526040518563ffffffff1660e01b8152600401612a5c94939291906148e8565b6020604051808303816000875af1158015612a7b573d6000803e3d6000fd5b505050506040513d601f19601f82011682018060405250810190612a9f9190614949565b50505050565b606060006002836002612ab89190614976565b612ac29190613e15565b67ffffffffffffffff811115612adb57612ada61336b565b5b6040519080825280601f01601f191660200182016040528015612b0d5781602001600182028036833780820191505090505b5090507f300000000000000000000000000000000000000000000000000000000000000081600081518110612b4557612b4461451a565b5b60200101907effffffffffffffffffffffffffffffffffffffffffffffffffffffffffffff1916908160001a9053507f780000000000000000000000000000000000000000000000000000000000000081600181518110612ba957612ba861451a565b5b60200101907effffffffffffffffffffffffffffffffffffffffffffffffffffffffffffff1916908160001a90535060006001846002612be99190614976565b612bf39190613e15565b90505b6001811115612c93577f3031323334353637383961626364656600000000000000000000000000000000600f861660108110612c3557612c3461451a565b5b1a60f81b828281518110612c4c57612c4b61451a565b5b60200101907effffffffffffffffffffffffffffffffffffffffffffffffffffffffffffff1916908160001a905350600485901c945080612c8c906149b8565b9050612bf6565b5060008414612cd7576040517f08c379a0000000000000000000000000000000000000000000000000000000008152600401612cce90614a2d565b60405180910390fd5b8091505092915050565b604051806040016040528060008152602001600081525090565b6000604051905090565b600080fd5b600080fd5b60007fffffffff0000000000000000000000000000000000000000000000000000000082169050919050565b612d4481612d0f565b8114612d4f57600080fd5b50565b600081359050612d6181612d3b565b92915050565b600060208284031215612d7d57612d7c612d05565b5b6000612d8b84828501612d52565b91505092915050565b60008115159050919050565b612da981612d94565b82525050565b6000602082019050612dc46000830184612da0565b92915050565b600073ffffffffffffffffffffffffffffffffffffffff82169050919050565b6000819050919050565b6000612e0f612e0a612e0584612dca565b612dea565b612dca565b9050919050565b6000612e2182612df4565b9050919050565b6000612e3382612e16565b9050919050565b612e4381612e28565b82525050565b6000602082019050612e5e6000830184612e3a565b92915050565b600080fd5b600080fd5b600080fd5b60008083601f840112612e8957612e88612e64565b5b8235905067ffffffffffffffff811115612ea657612ea5612e69565b5b602083019150836001820283011115612ec257612ec1612e6e565b5b9250929050565b6000819050919050565b612edc81612ec9565b8114612ee757600080fd5b50565b600081359050612ef981612ed3565b92915050565b600063ffffffff82169050919050565b612f1881612eff565b8114612f2357600080fd5b50565b600081359050612f3581612f0f565b92915050565b600067ffffffffffffffff82169050919050565b612f5881612f3b565b8114612f6357600080fd5b50565b600081359050612f7581612f4f565b92915050565b600080600080600060808688031215612f9757612f96612d05565b5b600086013567ffffffffffffffff811115612fb557612fb4612d0a565b5b612fc188828901612e73565b95509550506020612fd488828901612eea565b9350506040612fe588828901612f26565b9250506060612ff688828901612f66565b9150509295509295909350565b6000819050919050565b61301681613003565b811461302157600080fd5b50565b6000813590506130338161300d565b92915050565b60006020828403121561304f5761304e612d05565b5b600061305d84828501613024565b91505092915050565b61306f81613003565b82525050565b600060208201905061308a6000830184613066565b92915050565b600061309b82612dca565b9050919050565b6130ab81613090565b81146130b657600080fd5b50565b6000813590506130c8816130a2565b92915050565b600080604083850312156130e5576130e4612d05565b5b60006130f385828601613024565b9250506020613104858286016130b9565b9150509250929050565b60008060006060848603121561312757613126612d05565b5b6000613135868287016130b9565b9350506020613146868287016130b9565b925050604061315786828701612eea565b9150509250925092565b61316a81612ec9565b82525050565b60006020820190506131856000830184613161565b92915050565b60008083601f8401126131a1576131a0612e64565b5b8235905067ffffffffffffffff8111156131be576131bd612e69565b5b6020830191508360208202830111156131da576131d9612e6e565b5b9250929050565b6131ea81612d94565b81146131f557600080fd5b50565b600081359050613207816131e1565b92915050565b60008060008060008060008060008060006101208c8e03121561323357613232612d05565b5b60008c013567ffffffffffffffff81111561325157613250612d0a565b5b61325d8e828f01612e73565b9b509b505060206132708e828f016130b9565b99505060406132818e828f01612eea565b98505060606132928e828f01613024565b97505060806132a38e828f016130b9565b96505060a08c013567ffffffffffffffff8111156132c4576132c3612d0a565b5b6132d08e828f0161318b565b955095505060c06132e38e828f016131f8565b93505060e06132f48e828f01612f26565b9250506101006133068e828f01612f66565b9150509295989b509295989b9093969950565b600061332482612e16565b9050919050565b61333481613319565b82525050565b600060208201905061334f600083018461332b565b92915050565b600080fd5b6000601f19601f8301169050919050565b7f4e487b7100000000000000000000000000000000000000000000000000000000600052604160045260246000fd5b6133a38261335a565b810181811067ffffffffffffffff821117156133c2576133c161336b565b5b80604052505050565b60006133d5612cfb565b90506133e1828261339a565b919050565b600067ffffffffffffffff8211156134015761340061336b565b5b61340a8261335a565b9050602081019050919050565b82818337600083830152505050565b6000613439613434846133e6565b6133cb565b90508281526020810184848401111561345557613454613355565b5b613460848285613417565b509392505050565b600082601f83011261347d5761347c612e64565b5b813561348d848260208601613426565b91505092915050565b600080604083850312156134ad576134ac612d05565b5b600083013567ffffffffffffffff8111156134cb576134ca612d0a565b5b6134d785828601613468565b92505060206134e885828601612eea565b9150509250929050565b6134fb81612ec9565b82525050565b60408201600082015161351760008501826134f2565b50602082015161352a60208501826134f2565b50505050565b60006040820190506135456000830184613501565b92915050565b61355481613090565b82525050565b600060208201905061356f600083018461354b565b92915050565b60006020828403121561358b5761358a612d05565b5b600082013567ffffffffffffffff8111156135a9576135a8612d0a565b5b6135b584828501613468565b91505092915050565b60006135c982612e16565b9050919050565b6135d9816135be565b82525050565b60006020820190506135f460008301846135d0565b92915050565b60008060006040848603121561361357613612612d05565b5b600084013567ffffffffffffffff81111561363157613630612d0a565b5b61363d86828701612e73565b9350935050602061365086828701612eea565b9150509250925092565b7f4e487b7100000000000000000000000000000000000000000000000000000000600052602160045260246000fd5b6006811061369a5761369961365a565b5b50565b60008190506136ab82613689565b919050565b60006136bb8261369d565b9050919050565b6136cb816136b0565b82525050565b60006020820190506136e660008301846136c2565b92915050565b60006136f782613090565b9050919050565b613707816136ec565b811461371257600080fd5b50565b600081359050613724816136fe565b92915050565b600061373582613090565b9050919050565b6137458161372a565b811461375057600080fd5b50565b6000813590506137628161373c565b92915050565b600061377382613090565b9050919050565b61378381613768565b811461378e57600080fd5b50565b6000813590506137a08161377a565b92915050565b60006137b182613090565b9050919050565b6137c1816137a6565b81146137cc57600080fd5b50565b6000813590506137de816137b8565b92915050565b60008060008060008060c0878903121561380157613800612d05565b5b600061380f89828a01613715565b965050602061382089828a01613753565b955050604061383189828a01612eea565b945050606061384289828a01612eea565b935050608061385389828a01613791565b92505060a061386489828a016137cf565b9150509295509295509295565b600061387c82612e16565b9050919050565b61388c81613871565b82525050565b60006020820190506138a76000830184613883565b92915050565b6000806000806000806000806000806101208b8d0312156138d1576138d0612d05565b5b60008b013567ffffffffffffffff8111156138ef576138ee612d0a565b5b6138fb8d828e01613468565b9a5050602061390c8d828e016130b9565b995050604061391d8d828e01612eea565b985050606061392e8d828e01613024565b975050608061393f8d828e016130b9565b96505060a08b013567ffffffffffffffff8111156139605761395f612d0a565b5b61396c8d828e0161318b565b955095505060c061397f8d828e016131f8565b93505060e06139908d828e01612f26565b9250506101006139a28d828e01612f66565b9150509295989b9194979a5092959850565b60006139bf82613090565b9050919050565b6139cf816139b4565b81146139da57600080fd5b50565b6000813590506139ec816139c6565b92915050565b600060208284031215613a0857613a07612d05565b5b6000613a16848285016139dd565b91505092915050565b60008060408385031215613a3657613a35612d05565b5b6000613a4485828601612eea565b9250506020613a5585828601612eea565b9150509250929050565b60008060408385031215613a7657613a75612d05565b5b6000613a8485828601613024565b9250506020613a9585828601613024565b9150509250929050565b600060208284031215613ab557613ab4612d05565b5b6000613ac3848285016130b9565b91505092915050565b600081905092915050565b6000613ae38385613acc565b9350613af0838584613417565b82840190509392505050565b6000613b09828486613ad7565b91508190509392505050565b613b1e81612eff565b82525050565b613b2d81612f3b565b82525050565b6000608082019050613b486000830187613161565b613b556020830186613161565b613b626040830185613b15565b613b6f6060830184613b24565b95945050505050565b600081519050613b8781612ed3565b92915050565b600060208284031215613ba357613ba2612d05565b5b6000613bb184828501613b78565b91505092915050565b600082825260208201905092915050565b6000613bd78385613bba565b9350613be4838584613417565b613bed8361335a565b840190509392505050565b6000819050919050565b6000613c1d613c18613c1384613bf8565b612dea565b612ec9565b9050919050565b613c2d81613c02565b82525050565b60006060820190508181036000830152613c4e818688613bcb565b9050613c5d6020830185613c24565b613c6a6040830184613161565b95945050505050565b7f416363657373436f6e74726f6c3a2063616e206f6e6c792072656e6f756e636560008201527f20726f6c657320666f722073656c660000000000000000000000000000000000602082015250565b6000613ccf602f83613bba565b9150613cda82613c73565b604082019050919050565b60006020820190508181036000830152613cfe81613cc2565b9050919050565b6000604082019050613d1a600083018561354b565b613d276020830184613161565b9392505050565b600081519050613d3d816131e1565b92915050565b600060208284031215613d5957613d58612d05565b5b6000613d6784828501613d2e565b91505092915050565b6000819050919050565b613d8b613d8682613003565b613d70565b82525050565b6000613d9d8285613d7a565b602082019150613dad8284613d7a565b6020820191508190509392505050565b6000604082019050613dd26000830185613066565b613ddf602083018461354b565b9392505050565b7f4e487b7100000000000000000000000000000000000000000000000000000000600052601160045260246000fd5b6000613e2082612ec9565b9150613e2b83612ec9565b9250828201905080821115613e4357613e42613de6565b5b92915050565b6000613e5482612ec9565b9150613e5f83612ec9565b9250828203905081811115613e7757613e76613de6565b5b92915050565b600081519050919050565b60005b83811015613ea6578082015181840152602081019050613e8b565b60008484015250505050565b6000613ebd82613e7d565b613ec78185613bba565b9350613ed7818560208601613e88565b613ee08161335a565b840191505092915050565b60006060820190508181036000830152613f058186613eb2565b9050613f146020830185613161565b613f216040830184613161565b949350505050565b600080fd5b600060408284031215613f4457613f43613f29565b5b613f4e60406133cb565b90506000613f5e84828501613b78565b6000830152506020613f7284828501613b78565b60208301525092915050565b600060408284031215613f9457613f93612d05565b5b6000613fa284828501613f2e565b91505092915050565b60006020820190508181036000830152613fc58184613eb2565b905092915050565b7f496e697469616c697a61626c653a20636f6e747261637420697320616c72656160008201527f647920696e697469616c697a6564000000000000000000000000000000000000602082015250565b6000614029602e83613bba565b915061403482613fcd565b604082019050919050565b600060208201905081810360008301526140588161401c565b9050919050565b6000819050919050565b600060ff82169050919050565b600061409161408c6140878461405f565b612dea565b614069565b9050919050565b6140a181614076565b82525050565b60006020820190506140bc6000830184614098565b92915050565b600082825260208201905092915050565b6000819050919050565b600082825260208201905092915050565b60006140fa83856140dd565b9350614107838584613417565b6141108361335a565b840190509392505050565b60006141288484846140ee565b90509392505050565b600080fd5b600080fd5b600080fd5b6000808335600160200384360303811261415d5761415c61413b565b5b83810192508235915060208301925067ffffffffffffffff82111561418557614184614131565b5b60018202360383131561419b5761419a614136565b5b509250929050565b6000602082019050919050565b60006141bc83856140c2565b9350836020840285016141ce846140d3565b8060005b878110156142145784840389526141e98284614140565b6141f486828461411b565b95506141ff846141a3565b935060208b019a5050506001810190506141d2565b50829750879450505050509392505050565b60006101208201905061423c600083018d613066565b614249602083018c61354b565b614256604083018b613161565b614263606083018a61354b565b818103608083015261427681888a6141b0565b905061428560a0830187613066565b61429260c0830186612da0565b61429f60e0830185613b15565b6142ad610100830184613b24565b9b9a5050505050505050505050565b7f6c6162656c206f63637570696564000000000000000000000000000000000000600082015250565b60006142f2600e83613bba565b91506142fd826142bc565b602082019050919050565b60006020820190508181036000830152614321816142e5565b9050919050565b7f4f776e61626c653a206e6577206f776e657220697320746865207a65726f206160008201527f6464726573730000000000000000000000000000000000000000000000000000602082015250565b6000614384602683613bba565b915061438f82614328565b604082019050919050565b600060208201905081810360008301526143b381614377565b9050919050565b7f4f776e61626c653a2063616c6c6572206973206e6f7420746865206f776e6572600082015250565b60006143f0602083613bba565b91506143fb826143ba565b602082019050919050565b6000602082019050818103600083015261441f816143e3565b9050919050565b60006060820190508181036000830152614441818688613bcb565b90506144506020830185613161565b61445d6040830184613161565b95945050505050565b600060c08201905081810360008301526144808189613eb2565b905061448f602083018861354b565b61449c6040830187613161565b6144a9606083018661354b565b6144b66080830185613b15565b6144c360a0830184613b24565b979650505050505050565b600060808201905081810360008301526144e88187613eb2565b90506144f76020830186613161565b6145046040830185613161565b6145116060830184613161565b95945050505050565b7f4e487b7100000000000000000000000000000000000000000000000000000000600052603260045260246000fd5b600061455482612ec9565b91507fffffffffffffffffffffffffffffffffffffffffffffffffffffffffffffffff820361458657614585613de6565b5b600182019050919050565b600081905092915050565b7f416363657373436f6e74726f6c3a206163636f756e7420000000000000000000600082015250565b60006145d2601783614591565b91506145dd8261459c565b601782019050919050565b60006145f382613e7d565b6145fd8185614591565b935061460d818560208601613e88565b80840191505092915050565b7f206973206d697373696e6720726f6c6520000000000000000000000000000000600082015250565b600061464f601183614591565b915061465a82614619565b601182019050919050565b6000614670826145c5565b915061467c82856145e8565b915061468782614642565b915061469382846145e8565b91508190509392505050565b60006040820190506146b46000830186613066565b81810360208301526146c78184866141b0565b9050949350505050565b600067ffffffffffffffff8211156146ec576146eb61336b565b5b602082029050602081019050919050565b600067ffffffffffffffff8211156147185761471761336b565b5b6147218261335a565b9050602081019050919050565b600061474161473c846146fd565b6133cb565b90508281526020810184848401111561475d5761475c613355565b5b614768848285613e88565b509392505050565b600082601f83011261478557614784612e64565b5b815161479584826020860161472e565b91505092915050565b60006147b16147ac846146d1565b6133cb565b905080838252602082019050602084028301858111156147d4576147d3612e6e565b5b835b8181101561481b57805167ffffffffffffffff8111156147f9576147f8612e64565b5b8086016148068982614770565b855260208501945050506020810190506147d6565b5050509392505050565b600082601f83011261483a57614839612e64565b5b815161484a84826020860161479e565b91505092915050565b60006020828403121561486957614868612d05565b5b600082015167ffffffffffffffff81111561488757614886612d0a565b5b61489384828501614825565b91505092915050565b7f2e77656233000000000000000000000000000000000000000000000000000000815250565b60006148ce82846145e8565b91506148d98261489c565b60058201915081905092915050565b60006080820190506148fd600083018761354b565b61490a602083018661354b565b614917604083018561354b565b81810360608301526149298184613eb2565b905095945050505050565b6000815190506149438161300d565b92915050565b60006020828403121561495f5761495e612d05565b5b600061496d84828501614934565b91505092915050565b600061498182612ec9565b915061498c83612ec9565b925082820261499a81612ec9565b915082820484148315176149b1576149b0613de6565b5b5092915050565b60006149c382612ec9565b9150600082036149d6576149d5613de6565b5b600182039050919050565b7f537472696e67733a20686578206c656e67746820696e73756666696369656e74600082015250565b6000614a17602083613bba565b9150614a22826149e1565b602082019050919050565b60006020820190508181036000830152614a4681614a0a565b905091905056fea26469706673582212203adfce42349bf68f9d07ded33fcbcda24b2643e21c5dce651998e3fd5e99f8e764736f6c63430008110033",
  "linkReferences": {},
  "deployedLinkReferences": {}
}