{
  "_format": "hh-sol-artifact-1",
  "contractName": "NameWrapper",
  "sourceName": "contracts/wrapper/NameWrapper.sol",
  "abi": [
    {
      "inputs": [
        {
          "internalType": "contract ENS",
          "name": "_ens",
          "type": "address"
        },
        {
          "internalType": "contract IBaseRegistrar",
          "name": "_registrar",
          "type": "address"
        },
        {
          "internalType": "contract IMetadataService",
          "name": "_metadataService",
          "type": "address"
        }
      ],
      "stateMutability": "nonpayable",
      "type": "constructor"
    },
    {
      "inputs": [],
      "name": "CannotUpgrade",
      "type": "error"
    },
    {
      "inputs": [],
      "name": "IncompatibleParent",
      "type": "error"
    },
    {
      "inputs": [
        {
          "internalType": "address",
          "name": "owner",
          "type": "address"
        }
      ],
      "name": "IncorrectTargetOwner",
      "type": "error"
    },
    {
      "inputs": [],
      "name": "IncorrectTokenType",
      "type": "error"
    },
    {
      "inputs": [
        {
          "internalType": "bytes32",
          "name": "labelHash",
          "type": "bytes32"
        },
        {
          "internalType": "bytes32",
          "name": "expectedLabelhash",
          "type": "bytes32"
        }
      ],
      "name": "LabelMismatch",
      "type": "error"
    },
    {
      "inputs": [
        {
          "internalType": "string",
          "name": "label",
          "type": "string"
        }
      ],
      "name": "LabelTooLong",
      "type": "error"
    },
    {
      "inputs": [],
      "name": "LabelTooShort",
      "type": "error"
    },
    {
      "inputs": [
        {
          "internalType": "bytes32",
          "name": "node",
          "type": "bytes32"
        }
      ],
      "name": "OperationProhibited",
      "type": "error"
    },
    {
      "inputs": [
        {
          "internalType": "bytes32",
          "name": "node",
          "type": "bytes32"
        },
        {
          "internalType": "address",
          "name": "addr",
          "type": "address"
        }
      ],
      "name": "Unauthorised",
      "type": "error"
    },
    {
      "anonymous": false,
      "inputs": [
        {
          "indexed": true,
          "internalType": "address",
          "name": "account",
          "type": "address"
        },
        {
          "indexed": true,
          "internalType": "address",
          "name": "operator",
          "type": "address"
        },
        {
          "indexed": false,
          "internalType": "bool",
          "name": "approved",
          "type": "bool"
        }
      ],
      "name": "ApprovalForAll",
      "type": "event"
    },
    {
      "anonymous": false,
      "inputs": [
        {
          "indexed": true,
          "internalType": "address",
          "name": "controller",
          "type": "address"
        },
        {
          "indexed": false,
          "internalType": "bool",
          "name": "active",
          "type": "bool"
        }
      ],
      "name": "ControllerChanged",
      "type": "event"
    },
    {
      "anonymous": false,
      "inputs": [
        {
          "indexed": true,
          "internalType": "bytes32",
          "name": "node",
          "type": "bytes32"
        },
        {
          "indexed": false,
          "internalType": "uint32",
          "name": "fuses",
          "type": "uint32"
        },
        {
          "indexed": false,
          "internalType": "uint64",
          "name": "expiry",
          "type": "uint64"
        }
      ],
      "name": "FusesSet",
      "type": "event"
    },
    {
      "anonymous": false,
      "inputs": [
        {
          "indexed": false,
          "internalType": "uint8",
          "name": "version",
          "type": "uint8"
        }
      ],
      "name": "Initialized",
      "type": "event"
    },
    {
      "anonymous": false,
      "inputs": [
        {
          "indexed": true,
          "internalType": "bytes32",
          "name": "node",
          "type": "bytes32"
        },
        {
          "indexed": false,
          "internalType": "address",
          "name": "owner",
          "type": "address"
        }
      ],
      "name": "NameUnwrapped",
      "type": "event"
    },
    {
      "anonymous": false,
      "inputs": [
        {
          "indexed": true,
          "internalType": "bytes32",
          "name": "node",
          "type": "bytes32"
        },
        {
          "indexed": false,
          "internalType": "bytes",
          "name": "name",
          "type": "bytes"
        },
        {
          "indexed": false,
          "internalType": "address",
          "name": "owner",
          "type": "address"
        },
        {
          "indexed": false,
          "internalType": "uint32",
          "name": "fuses",
          "type": "uint32"
        },
        {
          "indexed": false,
          "internalType": "uint64",
          "name": "expiry",
          "type": "uint64"
        }
      ],
      "name": "NameWrapped",
      "type": "event"
    },
    {
      "anonymous": false,
      "inputs": [
        {
          "indexed": true,
          "internalType": "address",
          "name": "previousOwner",
          "type": "address"
        },
        {
          "indexed": true,
          "internalType": "address",
          "name": "newOwner",
          "type": "address"
        }
      ],
      "name": "OwnershipTransferred",
      "type": "event"
    },
    {
      "anonymous": false,
      "inputs": [
        {
          "indexed": true,
          "internalType": "address",
          "name": "operator",
          "type": "address"
        },
        {
          "indexed": true,
          "internalType": "address",
          "name": "from",
          "type": "address"
        },
        {
          "indexed": true,
          "internalType": "address",
          "name": "to",
          "type": "address"
        },
        {
          "indexed": false,
          "internalType": "uint256[]",
          "name": "ids",
          "type": "uint256[]"
        },
        {
          "indexed": false,
          "internalType": "uint256[]",
          "name": "values",
          "type": "uint256[]"
        }
      ],
      "name": "TransferBatch",
      "type": "event"
    },
    {
      "anonymous": false,
      "inputs": [
        {
          "indexed": true,
          "internalType": "address",
          "name": "operator",
          "type": "address"
        },
        {
          "indexed": true,
          "internalType": "address",
          "name": "from",
          "type": "address"
        },
        {
          "indexed": true,
          "internalType": "address",
          "name": "to",
          "type": "address"
        },
        {
          "indexed": false,
          "internalType": "uint256",
          "name": "id",
          "type": "uint256"
        },
        {
          "indexed": false,
          "internalType": "uint256",
          "name": "value",
          "type": "uint256"
        }
      ],
      "name": "TransferSingle",
      "type": "event"
    },
    {
      "anonymous": false,
      "inputs": [
        {
          "indexed": false,
          "internalType": "string",
          "name": "value",
          "type": "string"
        },
        {
          "indexed": true,
          "internalType": "uint256",
          "name": "id",
          "type": "uint256"
        }
      ],
      "name": "URI",
      "type": "event"
    },
    {
      "inputs": [
        {
          "internalType": "uint256",
          "name": "",
          "type": "uint256"
        }
      ],
      "name": "_tokens",
      "outputs": [
        {
          "internalType": "uint256",
          "name": "",
          "type": "uint256"
        }
      ],
      "stateMutability": "view",
      "type": "function"
    },
    {
      "inputs": [
        {
          "internalType": "bytes32",
          "name": "node",
          "type": "bytes32"
        },
        {
          "internalType": "uint32",
          "name": "fuseMask",
          "type": "uint32"
        }
      ],
      "name": "allFusesBurned",
      "outputs": [
        {
          "internalType": "bool",
          "name": "",
          "type": "bool"
        }
      ],
      "stateMutability": "view",
      "type": "function"
    },
    {
      "inputs": [
        {
          "internalType": "address",
          "name": "account",
          "type": "address"
        },
        {
          "internalType": "uint256",
          "name": "id",
          "type": "uint256"
        }
      ],
      "name": "balanceOf",
      "outputs": [
        {
          "internalType": "uint256",
          "name": "",
          "type": "uint256"
        }
      ],
      "stateMutability": "view",
      "type": "function"
    },
    {
      "inputs": [
        {
          "internalType": "address[]",
          "name": "accounts",
          "type": "address[]"
        },
        {
          "internalType": "uint256[]",
          "name": "ids",
          "type": "uint256[]"
        }
      ],
      "name": "balanceOfBatch",
      "outputs": [
        {
          "internalType": "uint256[]",
          "name": "",
          "type": "uint256[]"
        }
      ],
      "stateMutability": "view",
      "type": "function"
    },
    {
      "inputs": [
        {
          "internalType": "address",
          "name": "",
          "type": "address"
        }
      ],
      "name": "controllers",
      "outputs": [
        {
          "internalType": "bool",
          "name": "",
          "type": "bool"
        }
      ],
      "stateMutability": "view",
      "type": "function"
    },
    {
      "inputs": [],
      "name": "ens",
      "outputs": [
        {
          "internalType": "contract ENS",
          "name": "",
          "type": "address"
        }
      ],
      "stateMutability": "view",
      "type": "function"
    },
    {
      "inputs": [
        {
          "internalType": "uint256",
          "name": "id",
          "type": "uint256"
        }
      ],
      "name": "getData",
      "outputs": [
        {
          "internalType": "address",
          "name": "",
          "type": "address"
        },
        {
          "internalType": "uint32",
          "name": "",
          "type": "uint32"
        },
        {
          "internalType": "uint64",
          "name": "",
          "type": "uint64"
        }
      ],
      "stateMutability": "view",
      "type": "function"
    },
    {
      "inputs": [
        {
          "internalType": "contract ENS",
          "name": "_ens",
          "type": "address"
        },
        {
          "internalType": "contract IBaseRegistrar",
          "name": "_registrar",
          "type": "address"
        },
        {
          "internalType": "contract IMetadataService",
          "name": "_metadataService",
          "type": "address"
        }
      ],
      "name": "initialize",
      "outputs": [],
      "stateMutability": "nonpayable",
      "type": "function"
    },
    {
      "inputs": [
        {
          "internalType": "address",
          "name": "account",
          "type": "address"
        },
        {
          "internalType": "address",
          "name": "operator",
          "type": "address"
        }
      ],
      "name": "isApprovedForAll",
      "outputs": [
        {
          "internalType": "bool",
          "name": "",
          "type": "bool"
        }
      ],
      "stateMutability": "view",
      "type": "function"
    },
    {
      "inputs": [
        {
          "internalType": "bytes32",
          "name": "node",
          "type": "bytes32"
        },
        {
          "internalType": "address",
          "name": "addr",
          "type": "address"
        }
      ],
      "name": "isTokenOwnerOrApproved",
      "outputs": [
        {
          "internalType": "bool",
          "name": "",
          "type": "bool"
        }
      ],
      "stateMutability": "view",
      "type": "function"
    },
    {
      "inputs": [
        {
          "internalType": "bytes32",
          "name": "node",
          "type": "bytes32"
        }
      ],
      "name": "isWrapped",
      "outputs": [
        {
          "internalType": "bool",
          "name": "",
          "type": "bool"
        }
      ],
      "stateMutability": "view",
      "type": "function"
    },
    {
      "inputs": [],
      "name": "metadataService",
      "outputs": [
        {
          "internalType": "contract IMetadataService",
          "name": "",
          "type": "address"
        }
      ],
      "stateMutability": "view",
      "type": "function"
    },
    {
      "inputs": [],
      "name": "name",
      "outputs": [
        {
          "internalType": "string",
          "name": "",
          "type": "string"
        }
      ],
      "stateMutability": "view",
      "type": "function"
    },
    {
      "inputs": [
        {
          "internalType": "bytes32",
          "name": "",
          "type": "bytes32"
        }
      ],
      "name": "names",
      "outputs": [
        {
          "internalType": "bytes",
          "name": "",
          "type": "bytes"
        }
      ],
      "stateMutability": "view",
      "type": "function"
    },
    {
      "inputs": [
        {
          "internalType": "address",
          "name": "to",
          "type": "address"
        },
        {
          "internalType": "address",
          "name": "",
          "type": "address"
        },
        {
          "internalType": "uint256",
          "name": "tokenId",
          "type": "uint256"
        },
        {
          "internalType": "bytes",
          "name": "data",
          "type": "bytes"
        }
      ],
      "name": "onERC721Received",
      "outputs": [
        {
          "internalType": "bytes4",
          "name": "",
          "type": "bytes4"
        }
      ],
      "stateMutability": "nonpayable",
      "type": "function"
    },
    {
      "inputs": [],
      "name": "owner",
      "outputs": [
        {
          "internalType": "address",
          "name": "",
          "type": "address"
        }
      ],
      "stateMutability": "view",
      "type": "function"
    },
    {
      "inputs": [
        {
          "internalType": "uint256",
          "name": "id",
          "type": "uint256"
        }
      ],
      "name": "ownerOf",
      "outputs": [
        {
          "internalType": "address",
          "name": "owner",
          "type": "address"
        }
      ],
      "stateMutability": "view",
      "type": "function"
    },
    {
      "inputs": [
        {
          "internalType": "address",
          "name": "_token",
          "type": "address"
        },
        {
          "internalType": "address",
          "name": "_to",
          "type": "address"
        },
        {
          "internalType": "uint256",
          "name": "_amount",
          "type": "uint256"
        }
      ],
      "name": "recoverFunds",
      "outputs": [],
      "stateMutability": "nonpayable",
      "type": "function"
    },
    {
      "inputs": [
        {
          "internalType": "string",
          "name": "label",
          "type": "string"
        },
        {
          "internalType": "address",
          "name": "wrappedOwner",
          "type": "address"
        },
        {
          "internalType": "uint256",
          "name": "duration",
          "type": "uint256"
        },
        {
          "internalType": "address",
          "name": "resolver",
          "type": "address"
        },
        {
          "internalType": "uint32",
          "name": "fuses",
          "type": "uint32"
        },
        {
          "internalType": "uint64",
          "name": "expiry",
          "type": "uint64"
        }
      ],
      "name": "registerAndWrapETH2LD",
      "outputs": [
        {
          "internalType": "uint256",
          "name": "registrarExpiry",
          "type": "uint256"
        }
      ],
      "stateMutability": "nonpayable",
      "type": "function"
    },
    {
      "inputs": [],
      "name": "registrar",
      "outputs": [
        {
          "internalType": "contract IBaseRegistrar",
          "name": "",
          "type": "address"
        }
      ],
      "stateMutability": "view",
      "type": "function"
    },
    {
      "inputs": [
        {
          "internalType": "uint256",
          "name": "tokenId",
          "type": "uint256"
        },
        {
          "internalType": "uint256",
          "name": "duration",
          "type": "uint256"
        },
        {
          "internalType": "uint32",
          "name": "fuses",
          "type": "uint32"
        },
        {
          "internalType": "uint64",
          "name": "expiry",
          "type": "uint64"
        }
      ],
      "name": "renew",
      "outputs": [
        {
          "internalType": "uint256",
          "name": "expires",
          "type": "uint256"
        }
      ],
      "stateMutability": "nonpayable",
      "type": "function"
    },
    {
      "inputs": [],
      "name": "renounceOwnership",
      "outputs": [],
      "stateMutability": "nonpayable",
      "type": "function"
    },
    {
      "inputs": [
        {
          "internalType": "address",
          "name": "from",
          "type": "address"
        },
        {
          "internalType": "address",
          "name": "to",
          "type": "address"
        },
        {
          "internalType": "uint256[]",
          "name": "ids",
          "type": "uint256[]"
        },
        {
          "internalType": "uint256[]",
          "name": "amounts",
          "type": "uint256[]"
        },
        {
          "internalType": "bytes",
          "name": "data",
          "type": "bytes"
        }
      ],
      "name": "safeBatchTransferFrom",
      "outputs": [],
      "stateMutability": "nonpayable",
      "type": "function"
    },
    {
      "inputs": [
        {
          "internalType": "address",
          "name": "from",
          "type": "address"
        },
        {
          "internalType": "address",
          "name": "to",
          "type": "address"
        },
        {
          "internalType": "uint256",
          "name": "id",
          "type": "uint256"
        },
        {
          "internalType": "uint256",
          "name": "amount",
          "type": "uint256"
        },
        {
          "internalType": "bytes",
          "name": "data",
          "type": "bytes"
        }
      ],
      "name": "safeTransferFrom",
      "outputs": [],
      "stateMutability": "nonpayable",
      "type": "function"
    },
    {
      "inputs": [
        {
          "internalType": "address",
          "name": "operator",
          "type": "address"
        },
        {
          "internalType": "bool",
          "name": "approved",
          "type": "bool"
        }
      ],
      "name": "setApprovalForAll",
      "outputs": [],
      "stateMutability": "nonpayable",
      "type": "function"
    },
    {
      "inputs": [
        {
          "internalType": "bytes32",
          "name": "parentNode",
          "type": "bytes32"
        },
        {
          "internalType": "bytes32",
          "name": "labelhash",
          "type": "bytes32"
        },
        {
          "internalType": "uint32",
          "name": "fuses",
          "type": "uint32"
        },
        {
          "internalType": "uint64",
          "name": "expiry",
          "type": "uint64"
        }
      ],
      "name": "setChildFuses",
      "outputs": [],
      "stateMutability": "nonpayable",
      "type": "function"
    },
    {
      "inputs": [
        {
          "internalType": "address",
          "name": "controller",
          "type": "address"
        },
        {
          "internalType": "bool",
          "name": "active",
          "type": "bool"
        }
      ],
      "name": "setController",
      "outputs": [],
      "stateMutability": "nonpayable",
      "type": "function"
    },
    {
      "inputs": [
        {
          "internalType": "bytes32",
          "name": "node",
          "type": "bytes32"
        },
        {
          "internalType": "uint32",
          "name": "fuses",
          "type": "uint32"
        }
      ],
      "name": "setFuses",
      "outputs": [
        {
          "internalType": "uint32",
          "name": "",
          "type": "uint32"
        }
      ],
      "stateMutability": "nonpayable",
      "type": "function"
    },
    {
      "inputs": [
        {
          "internalType": "contract IMetadataService",
          "name": "_metadataService",
          "type": "address"
        }
      ],
      "name": "setMetadataService",
      "outputs": [],
      "stateMutability": "nonpayable",
      "type": "function"
    },
    {
      "inputs": [
        {
          "internalType": "bytes32",
          "name": "node",
          "type": "bytes32"
        },
        {
          "internalType": "address",
          "name": "owner",
          "type": "address"
        },
        {
          "internalType": "address",
          "name": "resolver",
          "type": "address"
        },
        {
          "internalType": "uint64",
          "name": "ttl",
          "type": "uint64"
        }
      ],
      "name": "setRecord",
      "outputs": [],
      "stateMutability": "nonpayable",
      "type": "function"
    },
    {
      "inputs": [
        {
          "internalType": "bytes32",
          "name": "node",
          "type": "bytes32"
        },
        {
          "internalType": "address",
          "name": "resolver",
          "type": "address"
        }
      ],
      "name": "setResolver",
      "outputs": [],
      "stateMutability": "nonpayable",
      "type": "function"
    },
    {
      "inputs": [
        {
          "internalType": "bytes32",
          "name": "parentNode",
          "type": "bytes32"
        },
        {
          "internalType": "string",
          "name": "label",
          "type": "string"
        },
        {
          "internalType": "address",
          "name": "owner",
          "type": "address"
        },
        {
          "internalType": "uint32",
          "name": "fuses",
          "type": "uint32"
        },
        {
          "internalType": "uint64",
          "name": "expiry",
          "type": "uint64"
        }
      ],
      "name": "setSubnodeOwner",
      "outputs": [
        {
          "internalType": "bytes32",
          "name": "node",
          "type": "bytes32"
        }
      ],
      "stateMutability": "nonpayable",
      "type": "function"
    },
    {
      "inputs": [
        {
          "internalType": "bytes32",
          "name": "parentNode",
          "type": "bytes32"
        },
        {
          "internalType": "string",
          "name": "label",
          "type": "string"
        },
        {
          "internalType": "address",
          "name": "owner",
          "type": "address"
        },
        {
          "internalType": "address",
          "name": "resolver",
          "type": "address"
        },
        {
          "internalType": "uint64",
          "name": "ttl",
          "type": "uint64"
        },
        {
          "internalType": "uint32",
          "name": "fuses",
          "type": "uint32"
        },
        {
          "internalType": "uint64",
          "name": "expiry",
          "type": "uint64"
        }
      ],
      "name": "setSubnodeRecord",
      "outputs": [
        {
          "internalType": "bytes32",
          "name": "node",
          "type": "bytes32"
        }
      ],
      "stateMutability": "nonpayable",
      "type": "function"
    },
    {
      "inputs": [
        {
          "internalType": "bytes32",
          "name": "node",
          "type": "bytes32"
        },
        {
          "internalType": "uint64",
          "name": "ttl",
          "type": "uint64"
        }
      ],
      "name": "setTTL",
      "outputs": [],
      "stateMutability": "nonpayable",
      "type": "function"
    },
    {
      "inputs": [
        {
          "internalType": "contract INameWrapperUpgrade",
          "name": "_upgradeAddress",
          "type": "address"
        }
      ],
      "name": "setUpgradeContract",
      "outputs": [],
      "stateMutability": "nonpayable",
      "type": "function"
    },
    {
      "inputs": [
        {
          "internalType": "bytes4",
          "name": "interfaceId",
          "type": "bytes4"
        }
      ],
      "name": "supportsInterface",
      "outputs": [
        {
          "internalType": "bool",
          "name": "",
          "type": "bool"
        }
      ],
      "stateMutability": "view",
      "type": "function"
    },
    {
      "inputs": [
        {
          "internalType": "address",
          "name": "newOwner",
          "type": "address"
        }
      ],
      "name": "transferOwnership",
      "outputs": [],
      "stateMutability": "nonpayable",
      "type": "function"
    },
    {
      "inputs": [
        {
          "internalType": "bytes32",
          "name": "parentNode",
          "type": "bytes32"
        },
        {
          "internalType": "bytes32",
          "name": "labelhash",
          "type": "bytes32"
        },
        {
          "internalType": "address",
          "name": "controller",
          "type": "address"
        }
      ],
      "name": "unwrap",
      "outputs": [],
      "stateMutability": "nonpayable",
      "type": "function"
    },
    {
      "inputs": [
        {
          "internalType": "bytes32",
          "name": "labelhash",
          "type": "bytes32"
        },
        {
          "internalType": "address",
          "name": "registrant",
          "type": "address"
        },
        {
          "internalType": "address",
          "name": "controller",
          "type": "address"
        }
      ],
      "name": "unwrapETH2LD",
      "outputs": [],
      "stateMutability": "nonpayable",
      "type": "function"
    },
    {
      "inputs": [
        {
          "internalType": "bytes32",
          "name": "parentNode",
          "type": "bytes32"
        },
        {
          "internalType": "string",
          "name": "label",
          "type": "string"
        },
        {
          "internalType": "address",
          "name": "wrappedOwner",
          "type": "address"
        },
        {
          "internalType": "address",
          "name": "resolver",
          "type": "address"
        }
      ],
      "name": "upgrade",
      "outputs": [],
      "stateMutability": "nonpayable",
      "type": "function"
    },
    {
      "inputs": [],
      "name": "upgradeContract",
      "outputs": [
        {
          "internalType": "contract INameWrapperUpgrade",
          "name": "",
          "type": "address"
        }
      ],
      "stateMutability": "view",
      "type": "function"
    },
    {
      "inputs": [
        {
          "internalType": "string",
          "name": "label",
          "type": "string"
        },
        {
          "internalType": "address",
          "name": "wrappedOwner",
          "type": "address"
        },
        {
          "internalType": "address",
          "name": "resolver",
          "type": "address"
        }
      ],
      "name": "upgradeETH2LD",
      "outputs": [],
      "stateMutability": "nonpayable",
      "type": "function"
    },
    {
      "inputs": [
        {
          "internalType": "uint256",
          "name": "tokenId",
          "type": "uint256"
        }
      ],
      "name": "uri",
      "outputs": [
        {
          "internalType": "string",
          "name": "",
          "type": "string"
        }
      ],
      "stateMutability": "view",
      "type": "function"
    },
    {
      "inputs": [
        {
          "internalType": "address",
          "name": "user",
          "type": "address"
        }
      ],
      "name": "userDomains",
      "outputs": [
        {
          "internalType": "string[]",
          "name": "",
          "type": "string[]"
        }
      ],
      "stateMutability": "view",
      "type": "function"
    },
    {
      "inputs": [
        {
          "internalType": "address",
          "name": "user",
          "type": "address"
        }
      ],
      "name": "userNodeSet",
      "outputs": [
        {
          "internalType": "bytes32[]",
          "name": "",
          "type": "bytes32[]"
        }
      ],
      "stateMutability": "view",
      "type": "function"
    },
    {
      "inputs": [
        {
          "internalType": "address",
          "name": "user",
          "type": "address"
        }
      ],
      "name": "userOperators",
      "outputs": [
        {
          "internalType": "address[]",
          "name": "",
          "type": "address[]"
        }
      ],
      "stateMutability": "view",
      "type": "function"
    },
    {
      "inputs": [
        {
          "internalType": "bytes",
          "name": "name",
          "type": "bytes"
        },
        {
          "internalType": "address",
          "name": "wrappedOwner",
          "type": "address"
        },
        {
          "internalType": "address",
          "name": "resolver",
          "type": "address"
        }
      ],
      "name": "wrap",
      "outputs": [],
      "stateMutability": "nonpayable",
      "type": "function"
    },
    {
      "inputs": [
        {
          "internalType": "string",
          "name": "label",
          "type": "string"
        },
        {
          "internalType": "address",
          "name": "wrappedOwner",
          "type": "address"
        },
        {
          "internalType": "uint32",
          "name": "fuses",
          "type": "uint32"
        },
        {
          "internalType": "uint64",
          "name": "expiry",
          "type": "uint64"
        },
        {
          "internalType": "address",
          "name": "resolver",
          "type": "address"
        }
      ],
      "name": "wrapETH2LD",
      "outputs": [
        {
          "internalType": "uint64",
          "name": "",
          "type": "uint64"
        }
      ],
      "stateMutability": "nonpayable",
      "type": "function"
    }
  ],
  "bytecode": "0x60806040523480156200001157600080fd5b5060405162009d7f38038062009d7f833981810160405281019062000037919062000484565b620000576200004b6200007360201b60201c565b6200007b60201b60201c565b6200006a8383836200013f60201b60201c565b50505062000841565b600033905090565b60008060009054906101000a900473ffffffffffffffffffffffffffffffffffffffff169050816000806101000a81548173ffffffffffffffffffffffffffffffffffffffff021916908373ffffffffffffffffffffffffffffffffffffffff1602179055508173ffffffffffffffffffffffffffffffffffffffff168173ffffffffffffffffffffffffffffffffffffffff167f8be0079c531659141344cd1fd0a4f28419497f9722a3daafe3b4186f6b6457e060405160405180910390a35050565b82600460026101000a81548173ffffffffffffffffffffffffffffffffffffffff021916908373ffffffffffffffffffffffffffffffffffffffff16021790555081600560006101000a81548173ffffffffffffffffffffffffffffffffffffffff021916908373ffffffffffffffffffffffffffffffffffffffff16021790555080600660006101000a81548173ffffffffffffffffffffffffffffffffffffffff021916908373ffffffffffffffffffffffffffffffffffffffff160217905550620002497f587d09fe5fa45354680537d38145a28b772971e0f293af3ee0c536fc919710fb60001b60001c6000600160401767ffffffffffffffff6200032c60201b60201c565b620002706000801b60001c6000600160401767ffffffffffffffff6200032c60201b60201c565b6040518060400160405280600181526020016000815250600760008060001b81526020019081526020016000209081620002ab91906200075a565b506040518060400160405280600681526020017f0477656233000000000000000000000000000000000000000000000000000000815250600760007f587d09fe5fa45354680537d38145a28b772971e0f293af3ee0c536fc919710fb60001b815260200190815260200160002090816200032691906200075a565b50505050565b60c08167ffffffffffffffff16901b60a08363ffffffff16901b8473ffffffffffffffffffffffffffffffffffffffff161717600160008681526020019081526020016000208190555050505050565b600080fd5b600073ffffffffffffffffffffffffffffffffffffffff82169050919050565b6000620003ae8262000381565b9050919050565b6000620003c282620003a1565b9050919050565b620003d481620003b5565b8114620003e057600080fd5b50565b600081519050620003f481620003c9565b92915050565b60006200040782620003a1565b9050919050565b6200041981620003fa565b81146200042557600080fd5b50565b60008151905062000439816200040e565b92915050565b60006200044c82620003a1565b9050919050565b6200045e816200043f565b81146200046a57600080fd5b50565b6000815190506200047e8162000453565b92915050565b600080600060608486031215620004a0576200049f6200037c565b5b6000620004b086828701620003e3565b9350506020620004c38682870162000428565b9250506040620004d6868287016200046d565b9150509250925092565b600081519050919050565b7f4e487b7100000000000000000000000000000000000000000000000000000000600052604160045260246000fd5b7f4e487b7100000000000000000000000000000000000000000000000000000000600052602260045260246000fd5b600060028204905060018216806200056257607f821691505b6020821081036200057857620005776200051a565b5b50919050565b60008190508160005260206000209050919050565b60006020601f8301049050919050565b600082821b905092915050565b600060088302620005e27fffffffffffffffffffffffffffffffffffffffffffffffffffffffffffffffff82620005a3565b620005ee8683620005a3565b95508019841693508086168417925050509392505050565b6000819050919050565b6000819050919050565b60006200063b620006356200062f8462000606565b62000610565b62000606565b9050919050565b6000819050919050565b62000657836200061a565b6200066f620006668262000642565b848454620005b0565b825550505050565b600090565b6200068662000677565b620006938184846200064c565b505050565b5b81811015620006bb57620006af6000826200067c565b60018101905062000699565b5050565b601f8211156200070a57620006d4816200057e565b620006df8462000593565b81016020851015620006ef578190505b62000707620006fe8562000593565b83018262000698565b50505b505050565b600082821c905092915050565b60006200072f600019846008026200070f565b1980831691505092915050565b60006200074a83836200071c565b9150826002028217905092915050565b6200076582620004e0565b67ffffffffffffffff811115620007815762000780620004eb565b5b6200078d825462000549565b6200079a828285620006bf565b600060209050601f831160018114620007d25760008415620007bd578287015190505b620007c985826200073c565b86555062000839565b601f198416620007e2866200057e565b60005b828110156200080c57848901518255600182019150602085019450602081019050620007e5565b868310156200082c578489015162000828601f8916826200071c565b8355505b6001600288020188555050505b505050505050565b61952e80620008516000396000f3fe608060405234801561001057600080fd5b506004361061029f5760003560e01c80638b4dfa7511610167578063da8c229e116100ce578063ee7eba7811610087578063ee7eba78146108c8578063f242432a146108e4578063f2fde38b14610900578063f44779b91461091c578063f9547a9e1461094c578063fd0cd0d91461097c5761029f565b8063da8c229e146107e4578063e0dba60f14610814578063e72bf00f14610830578063e985e9c51461084c578063eb8ae5301461087c578063ed70554d146108985761029f565b8063c0c53b8b11610120578063c0c53b8b14610700578063c20a2eb01461071c578063c658e0861461074c578063cf4088231461077c578063d0752eae14610798578063d8c9921a146107c85761029f565b80638b4dfa751461062e5780638da5cb5b1461064a5780639f56dac614610668578063a22cb46514610698578063adf4960a146106b4578063b6bcad26146106e45761029f565b8063235bb6a61161020b57806347d2e9fe116101c457806347d2e9fe1461055a5780634e1273f41461058a57806353095467146105ba5780635d3590d5146105d85780636352211e146105f4578063715018a6146106245761029f565b8063235bb6a61461048657806324c1af44146104b65780632b20e397146104e65780632eb2c2d61461050457806333c69ea9146105205780633f15457f1461053c5761029f565b806314ab90381161025d57806314ab9038146103b4578063150b7a02146103d05780631534e177146104005780631896f70a1461041c5780631f4e15041461043857806320c38e2b146104565761029f565b8062fdd58e146102a45780630178fe3f146102d457806301ffc9a71461030657806306fdde031461033657806308e8c255146103545780630e89341c14610384575b600080fd5b6102be60048036038101906102b99190616192565b6109ac565b6040516102cb91906161e1565b60405180910390f35b6102ee60048036038101906102e991906161fc565b610a74565b6040516102fd9392919061627a565b60405180910390f35b610320600480360381019061031b9190616309565b610a8f565b60405161032d9190616351565b60405180910390f35b61033e610b71565b60405161034b91906163fc565b60405180910390f35b61036e6004803603810190610369919061641e565b610baa565b60405161037b9190616509565b60405180910390f35b61039e600480360381019061039991906161fc565b610bfa565b6040516103ab91906163fc565b60405180910390f35b6103ce60048036038101906103c9919061658d565b610ca4565b005b6103ea60048036038101906103e59190616632565b610deb565b6040516103f791906166c9565b60405180910390f35b61041a60048036038101906104159190616722565b610fa9565b005b6104366004803603810190610431919061674f565b610ff5565b005b61044061113c565b60405161044d91906167ee565b60405180910390f35b610470600480360381019061046b9190616809565b611162565b60405161047d919061688b565b60405180910390f35b6104a0600480360381019061049b919061641e565b611202565b6040516104ad919061696b565b60405180910390f35b6104d060048036038101906104cb9190616ae9565b611252565b6040516104dd9190616bb6565b60405180910390f35b6104ee6115e5565b6040516104fb9190616bf2565b60405180910390f35b61051e60048036038101906105199190616d71565b61160b565b005b61053a60048036038101906105359190616e40565b611664565b005b6105446118ad565b6040516105519190616ec8565b60405180910390f35b610574600480360381019061056f9190616ee3565b6118d3565b60405161058191906161e1565b60405180910390f35b6105a4600480360381019061059f919061700d565b611a87565b6040516105b19190617143565b60405180910390f35b6105c2611ba0565b6040516105cf9190617186565b60405180910390f35b6105f260048036038101906105ed91906171a1565b611bc6565b005b61060e600480360381019061060991906161fc565b611c52565b60405161061b91906171f4565b60405180910390f35b61062c611c64565b005b6106486004803603810190610643919061720f565b611c78565b005b610652611ea9565b60405161065f91906171f4565b60405180910390f35b610682600480360381019061067d91906172b8565b611ed2565b60405161068f91906161e1565b60405180910390f35b6106b260048036038101906106ad9190617393565b612081565b005b6106ce60048036038101906106c991906173d3565b61213f565b6040516106db9190616351565b60405180910390f35b6106fe60048036038101906106f99190617451565b61216c565b005b61071a600480360381019061071591906174fa565b61252e565b005b610736600480360381019061073191906173d3565b612679565b604051610743919061754d565b60405180910390f35b61076660048036038101906107619190617568565b61276d565b6040516107739190616bb6565b60405180910390f35b61079660048036038101906107919190617602565b612b20565b005b6107b260048036038101906107ad919061641e565b612ca6565b6040516107bf9190617775565b60405180910390f35b6107e260048036038101906107dd9190617797565b612e06565b005b6107fe60048036038101906107f9919061641e565b612f7a565b60405161080b9190616351565b60405180910390f35b61082e60048036038101906108299190617393565b612f9a565b005b61084a600480360381019061084591906177ea565b61304b565b005b6108666004803603810190610861919061785e565b613149565b6040516108739190616351565b60405180910390f35b6108966004803603810190610891919061789e565b6131dd565b005b6108b260048036038101906108ad91906161fc565b61366c565b6040516108bf91906161e1565b60405180910390f35b6108e260048036038101906108dd9190617912565b613684565b005b6108fe60048036038101906108f9919061799a565b613765565b005b61091a6004803603810190610915919061641e565b613784565b005b6109366004803603810190610931919061674f565b613807565b6040516109439190616351565b60405180910390f35b61096660048036038101906109619190617a31565b613861565b6040516109739190617acb565b60405180910390f35b61099660048036038101906109919190616809565b613bea565b6040516109a39190616351565b60405180910390f35b60008073ffffffffffffffffffffffffffffffffffffffff168373ffffffffffffffffffffffffffffffffffffffff1603610a1c576040517f08c379a0000000000000000000000000000000000000000000000000000000008152600401610a1390617b58565b60405180910390fd5b6000610a2783610a74565b505090508373ffffffffffffffffffffffffffffffffffffffff168173ffffffffffffffffffffffffffffffffffffffff1603610a68576001915050610a6e565b60009150505b92915050565b6000806000610a8284613d00565b9250925092509193909250565b60007fe89c48dc000000000000000000000000000000000000000000000000000000007bffffffffffffffffffffffffffffffffffffffffffffffffffffffff1916827bffffffffffffffffffffffffffffffffffffffffffffffffffffffff19161480610b5a57507f150b7a02000000000000000000000000000000000000000000000000000000007bffffffffffffffffffffffffffffffffffffffffffffffffffffffff1916827bffffffffffffffffffffffffffffffffffffffffffffffffffffffff1916145b80610b6a5750610b6982613d51565b5b9050919050565b6040518060400160405280600b81526020017f4e616d655772617070657200000000000000000000000000000000000000000081525081565b6060610bf3600a60008473ffffffffffffffffffffffffffffffffffffffff1673ffffffffffffffffffffffffffffffffffffffff168152602001908152602001600020613e33565b9050919050565b6060600660009054906101000a900473ffffffffffffffffffffffffffffffffffffffff1673ffffffffffffffffffffffffffffffffffffffff16630e89341c836040518263ffffffff1660e01b8152600401610c5791906161e1565b600060405180830381865afa158015610c74573d6000803e3d6000fd5b505050506040513d6000823e3d601f19601f82011682018060405250810190610c9d9190617be8565b9050919050565b81610caf8133613807565b610cf25780336040517fb455aae8000000000000000000000000000000000000000000000000000000008152600401610ce9929190617c31565b60405180910390fd5b8260106000610d038360001c610a74565b50915050600082821663ffffffff1614610d5457826040517fa2a72013000000000000000000000000000000000000000000000000000000008152600401610d4b9190616bb6565b60405180910390fd5b600460029054906101000a900473ffffffffffffffffffffffffffffffffffffffff1673ffffffffffffffffffffffffffffffffffffffff166314ab903887876040518363ffffffff1660e01b8152600401610db1929190617c5a565b600060405180830381600087803b158015610dcb57600080fd5b505af1158015610ddf573d6000803e3d6000fd5b50505050505050505050565b6000600560009054906101000a900473ffffffffffffffffffffffffffffffffffffffff1673ffffffffffffffffffffffffffffffffffffffff163373ffffffffffffffffffffffffffffffffffffffff1614610e74576040517f1931a53800000000000000000000000000000000000000000000000000000000815260040160405180910390fd5b60008060008060008787810190610e8b9190617cc1565b9450945094509450945060008960001b9050600086805190602001209050818114610eef5780826040517fc65c3ccc000000000000000000000000000000000000000000000000000000008152600401610ee6929190617d58565b60405180910390fd5b600560009054906101000a900473ffffffffffffffffffffffffffffffffffffffff1673ffffffffffffffffffffffffffffffffffffffff166328ed4f6c8360001c306040518363ffffffff1660e01b8152600401610f4f929190617d81565b600060405180830381600087803b158015610f6957600080fd5b505af1158015610f7d573d6000803e3d6000fd5b50505050610f8e8787878787613e54565b5063150b7a0260e01b97505050505050505095945050505050565b610fb1613fb1565b80600660006101000a81548173ffffffffffffffffffffffffffffffffffffffff021916908373ffffffffffffffffffffffffffffffffffffffff16021790555050565b816110008133613807565b6110435780336040517fb455aae800000000000000000000000000000000000000000000000000000000815260040161103a929190617c31565b60405180910390fd5b82600860006110548360001c610a74565b50915050600082821663ffffffff16146110a557826040517fa2a7201300000000000000000000000000000000000000000000000000000000815260040161109c9190616bb6565b60405180910390fd5b600460029054906101000a900473ffffffffffffffffffffffffffffffffffffffff1673ffffffffffffffffffffffffffffffffffffffff16631896f70a87876040518363ffffffff1660e01b8152600401611102929190617c31565b600060405180830381600087803b15801561111c57600080fd5b505af1158015611130573d6000803e3d6000fd5b50505050505050505050565b600860009054906101000a900473ffffffffffffffffffffffffffffffffffffffff1681565b6007602052806000526040600020600091509050805461118190617dd9565b80601f01602080910402602001604051908101604052809291908181526020018280546111ad90617dd9565b80156111fa5780601f106111cf576101008083540402835291602001916111fa565b820191906000526020600020905b8154815290600101906020018083116111dd57829003601f168201915b505050505081565b606061124b600960008473ffffffffffffffffffffffffffffffffffffffff1673ffffffffffffffffffffffffffffffffffffffff16815260200190815260200160002061402f565b9050919050565b60008761125f8133613807565b6112a25780336040517fb455aae8000000000000000000000000000000000000000000000000000000008152600401611299929190617c31565b60405180910390fd5b88888051906020012060006112b78383614044565b90506000600460029054906101000a900473ffffffffffffffffffffffffffffffffffffffff1673ffffffffffffffffffffffffffffffffffffffff166302571be3836040518263ffffffff1660e01b81526004016113169190616bb6565b602060405180830381865afa158015611333573d6000803e3d6000fd5b505050506040513d601f19601f820116820180604052508101906113579190617e1f565b9050600073ffffffffffffffffffffffffffffffffffffffff168173ffffffffffffffffffffffffffffffffffffffff16036113f357600061139b8560001c610a74565b5091505060006020821663ffffffff16146113ed57826040517fa2a720130000000000000000000000000000000000000000000000000000000081526004016113e49190616bb6565b60405180910390fd5b50611455565b60006114018360001c610a74565b5091505060006040821663ffffffff161461145357826040517fa2a7201300000000000000000000000000000000000000000000000000000000815260040161144a9190616bb6565b60405180910390fd5b505b60008c80519060200120905061146b8e82614044565b96506114798e888b8b614077565b975061148487613bea565b61153057600460029054906101000a900473ffffffffffffffffffffffffffffffffffffffff1673ffffffffffffffffffffffffffffffffffffffff16635ef2c7f08f83308f8f6040518663ffffffff1660e01b81526004016114eb959493929190617e4c565b600060405180830381600087803b15801561150557600080fd5b505af1158015611519573d6000803e3d6000fd5b5050505061152b8e888f8f8d8d6140c1565b6115d4565b600460029054906101000a900473ffffffffffffffffffffffffffffffffffffffff1673ffffffffffffffffffffffffffffffffffffffff16635ef2c7f08f83308f8f6040518663ffffffff1660e01b8152600401611593959493929190617e4c565b600060405180830381600087803b1580156115ad57600080fd5b505af11580156115c1573d6000803e3d6000fd5b505050506115d38e888f8f8d8d614180565b5b505050505050979650505050505050565b600560009054906101000a900473ffffffffffffffffffffffffffffffffffffffff1681565b61161885858585856142fd565b60005b835181101561165c57611649868686848151811061163c5761163b617e9f565b5b602002602001015161460a565b808061165490617efd565b91505061161b565b505050505050565b60006116708585614044565b905060008060006116838460001c610a74565b925092509250600080600061169a8b60001c610a74565b92509250507f587d09fe5fa45354680537d38145a28b772971e0f293af3ee0c536fc919710fb60001b8b036117bc576116d38733613807565b6117165786336040517fb455aae800000000000000000000000000000000000000000000000000000000815260040161170d929190617c31565b60405180910390fd5b600560009054906101000a900473ffffffffffffffffffffffffffffffffffffffff1673ffffffffffffffffffffffffffffffffffffffff1663d6e4fa868b60001c6040518263ffffffff1660e01b815260040161177491906161e1565b602060405180830381865afa158015611791573d6000803e3d6000fd5b505050506040513d601f19601f820116820180604052508101906117b59190617f5a565b925061180d565b6117c68b33613807565b6118095786336040517fb455aae8000000000000000000000000000000000000000000000000000000008152600401611800929190617c31565b60405180910390fd5b8092505b611818878a846146bc565b611823888585614736565b975060006040861663ffffffff161415801561184d57508463ffffffff1689861763ffffffff1614155b1561188f57866040517fa2a720130000000000000000000000000000000000000000000000000000000081526004016118869190616bb6565b60405180910390fd5b84891798506118a087878b8b614782565b5050505050505050505050565b600460029054906101000a900473ffffffffffffffffffffffffffffffffffffffff1681565b6000600360003373ffffffffffffffffffffffffffffffffffffffff1673ffffffffffffffffffffffffffffffffffffffff16815260200190815260200160002060009054906101000a900460ff16611961576040517f08c379a000000000000000000000000000000000000000000000000000000000815260040161195890617ff9565b60405180910390fd5b60006119937f587d09fe5fa45354680537d38145a28b772971e0f293af3ee0c536fc919710fb60001b8760001b614044565b9050600560009054906101000a900473ffffffffffffffffffffffffffffffffffffffff1673ffffffffffffffffffffffffffffffffffffffff1663c475abff87876040518363ffffffff1660e01b81526004016119f2929190618019565b6020604051808303816000875af1158015611a11573d6000803e3d6000fd5b505050506040513d601f19601f82011682018060405250810190611a359190617f5a565b9150611a4081613bea565b15611a7e576000806000611a568460001c610a74565b925092509250611a67868287614736565b9550611a7a848460408a861717896147ce565b5050505b50949350505050565b60608151835114611acd576040517f08c379a0000000000000000000000000000000000000000000000000000000008152600401611ac4906180b4565b60405180910390fd5b6000835167ffffffffffffffff811115611aea57611ae9616992565b5b604051908082528060200260200182016040528015611b185781602001602082028036833780820191505090505b50905060005b8451811015611b9557611b65858281518110611b3d57611b3c617e9f565b5b6020026020010151858381518110611b5857611b57617e9f565b5b60200260200101516109ac565b828281518110611b7857611b77617e9f565b5b60200260200101818152505080611b8e90617efd565b9050611b1e565b508091505092915050565b600660009054906101000a900473ffffffffffffffffffffffffffffffffffffffff1681565b611bce613fb1565b8273ffffffffffffffffffffffffffffffffffffffff1663a9059cbb83836040518363ffffffff1660e01b8152600401611c099291906180d4565b6020604051808303816000875af1158015611c28573d6000803e3d6000fd5b505050506040513d601f19601f82011682018060405250810190611c4c9190618112565b50505050565b6000611c5d826147ed565b9050919050565b611c6c613fb1565b611c766000614806565b565b611ca57f587d09fe5fa45354680537d38145a28b772971e0f293af3ee0c536fc919710fb60001b84614044565b611caf8133613807565b611cf25780336040517fb455aae8000000000000000000000000000000000000000000000000000000008152600401611ce9929190617c31565b60405180910390fd5b600073ffffffffffffffffffffffffffffffffffffffff168273ffffffffffffffffffffffffffffffffffffffff1603611d6357816040517f5949361a000000000000000000000000000000000000000000000000000000008152600401611d5a91906171f4565b60405180910390fd5b3073ffffffffffffffffffffffffffffffffffffffff168373ffffffffffffffffffffffffffffffffffffffff1603611dd357826040517f5949361a000000000000000000000000000000000000000000000000000000008152600401611dca91906171f4565b60405180910390fd5b6000611e027f587d09fe5fa45354680537d38145a28b772971e0f293af3ee0c536fc919710fb60001b86614044565b9050611e0e81846148ca565b600560009054906101000a900473ffffffffffffffffffffffffffffffffffffffff1673ffffffffffffffffffffffffffffffffffffffff166342842e0e30868860001c6040518463ffffffff1660e01b8152600401611e709392919061813f565b600060405180830381600087803b158015611e8a57600080fd5b505af1158015611e9e573d6000803e3d6000fd5b505050505050505050565b60008060009054906101000a900473ffffffffffffffffffffffffffffffffffffffff16905090565b6000600360003373ffffffffffffffffffffffffffffffffffffffff1673ffffffffffffffffffffffffffffffffffffffff16815260200190815260200160002060009054906101000a900460ff16611f60576040517f08c379a0000000000000000000000000000000000000000000000000000000008152600401611f5790617ff9565b60405180910390fd5b60008888604051611f729291906181a6565b604051809103902060001c9050600560009054906101000a900473ffffffffffffffffffffffffffffffffffffffff1673ffffffffffffffffffffffffffffffffffffffff1663fca247ac8230896040518463ffffffff1660e01b8152600401611fde939291906181bf565b6020604051808303816000875af1158015611ffd573d6000803e3d6000fd5b505050506040513d601f19601f820116820180604052508101906120219190617f5a565b915061207489898080601f016020809104026020016040519081016040528093929190818152602001838380828437600081840152601f19601f8201169050808301925050505050505088868689613e54565b5050979650505050505050565b61208b82826149ee565b80156120e8576120e282600a60003373ffffffffffffffffffffffffffffffffffffffff1673ffffffffffffffffffffffffffffffffffffffff168152602001908152602001600020614b5990919063ffffffff16565b5061213b565b61213982600a60003373ffffffffffffffffffffffffffffffffffffffff1673ffffffffffffffffffffffffffffffffffffffff168152602001908152602001600020614b8990919063ffffffff16565b505b5050565b60008061214e8460001c610a74565b509150508263ffffffff1683821663ffffffff161491505092915050565b612174613fb1565b600073ffffffffffffffffffffffffffffffffffffffff16600860009054906101000a900473ffffffffffffffffffffffffffffffffffffffff1673ffffffffffffffffffffffffffffffffffffffff161461232f57600560009054906101000a900473ffffffffffffffffffffffffffffffffffffffff1673ffffffffffffffffffffffffffffffffffffffff1663a22cb465600860009054906101000a900473ffffffffffffffffffffffffffffffffffffffff1660006040518363ffffffff1660e01b815260040161224a9291906181f6565b600060405180830381600087803b15801561226457600080fd5b505af1158015612278573d6000803e3d6000fd5b50505050600460029054906101000a900473ffffffffffffffffffffffffffffffffffffffff1673ffffffffffffffffffffffffffffffffffffffff1663a22cb465600860009054906101000a900473ffffffffffffffffffffffffffffffffffffffff1660006040518363ffffffff1660e01b81526004016122fc9291906181f6565b600060405180830381600087803b15801561231657600080fd5b505af115801561232a573d6000803e3d6000fd5b505050505b80600860006101000a81548173ffffffffffffffffffffffffffffffffffffffff021916908373ffffffffffffffffffffffffffffffffffffffff160217905550600073ffffffffffffffffffffffffffffffffffffffff16600860009054906101000a900473ffffffffffffffffffffffffffffffffffffffff1673ffffffffffffffffffffffffffffffffffffffff161461252b57600560009054906101000a900473ffffffffffffffffffffffffffffffffffffffff1673ffffffffffffffffffffffffffffffffffffffff1663a22cb465600860009054906101000a900473ffffffffffffffffffffffffffffffffffffffff1660016040518363ffffffff1660e01b81526004016124469291906181f6565b600060405180830381600087803b15801561246057600080fd5b505af1158015612474573d6000803e3d6000fd5b50505050600460029054906101000a900473ffffffffffffffffffffffffffffffffffffffff1673ffffffffffffffffffffffffffffffffffffffff1663a22cb465600860009054906101000a900473ffffffffffffffffffffffffffffffffffffffff1660016040518363ffffffff1660e01b81526004016124f89291906181f6565b600060405180830381600087803b15801561251257600080fd5b505af1158015612526573d6000803e3d6000fd5b505050505b50565b6000600460019054906101000a900460ff1615905080801561256257506001600460009054906101000a900460ff1660ff16105b80612591575061257130614bb9565b15801561259057506001600460009054906101000a900460ff1660ff16145b5b6125d0576040517f08c379a00000000000000000000000000000000000000000000000000000000081526004016125c790618291565b60405180910390fd5b6001600460006101000a81548160ff021916908360ff160217905550801561260e576001600460016101000a81548160ff0219169083151502179055505b612619848484614bdc565b8015612673576000600460016101000a81548160ff0219169083151502179055507f7f26b83ff96e1f2b6a682f133852f6798a09c465da95921460cefb3847402498600160405161266a91906182f9565b60405180910390a15b50505050565b6000826126868133613807565b6126c95780336040517fb455aae80000000000000000000000000000000000000000000000000000000081526004016126c0929190617c31565b60405180910390fd5b83600260006126da8360001c610a74565b50915050600082821663ffffffff161461272b57826040517fa2a720130000000000000000000000000000000000000000000000000000000081526004016127229190616bb6565b60405180910390fd5b6127358787614db5565b60008060006127468a60001c610a74565b925092509250818917985061275d8a848b84614782565b8897505050505050505092915050565b60008661277a8133613807565b6127bd5780336040517fb455aae80000000000000000000000000000000000000000000000000000000081526004016127b4929190617c31565b60405180910390fd5b8787876040516127ce9291906181a6565b604051809103902060006127e28383614044565b90506000600460029054906101000a900473ffffffffffffffffffffffffffffffffffffffff1673ffffffffffffffffffffffffffffffffffffffff166302571be3836040518263ffffffff1660e01b81526004016128419190616bb6565b602060405180830381865afa15801561285e573d6000803e3d6000fd5b505050506040513d601f19601f820116820180604052508101906128829190617e1f565b9050600073ffffffffffffffffffffffffffffffffffffffff168173ffffffffffffffffffffffffffffffffffffffff160361291e5760006128c68560001c610a74565b5091505060006020821663ffffffff161461291857826040517fa2a7201300000000000000000000000000000000000000000000000000000000815260040161290f9190616bb6565b60405180910390fd5b50612980565b600061292c8360001c610a74565b5091505060006040821663ffffffff161461297e57826040517fa2a720130000000000000000000000000000000000000000000000000000000081526004016129759190616bb6565b60405180910390fd5b505b60008b8b6040516129929291906181a6565b604051809103902090506129a68d82614044565b96506129b48d888b8b614077565b97506129bf87613bea565b612abd57600460029054906101000a900473ffffffffffffffffffffffffffffffffffffffff1673ffffffffffffffffffffffffffffffffffffffff166306ab59238e83306040518463ffffffff1660e01b8152600401612a2293929190618314565b6020604051808303816000875af1158015612a41573d6000803e3d6000fd5b505050506040513d601f19601f82011682018060405250810190612a659190618360565b50612ab88d888e8e8080601f016020809104026020016040519081016040528093929190818152602001838380828437600081840152601f19601f820116905080830192505050505050508d8d8d6140c1565b612b10565b612b0f8d888e8e8080601f016020809104026020016040519081016040528093929190818152602001838380828437600081840152601f19601f820116905080830192505050505050508d8d8d614180565b5b5050505050509695505050505050565b83612b2b8133613807565b612b6e5780336040517fb455aae8000000000000000000000000000000000000000000000000000000008152600401612b65929190617c31565b60405180910390fd5b8460106008600417176000612b858360001c610a74565b50915050600082821663ffffffff1614612bd657826040517fa2a72013000000000000000000000000000000000000000000000000000000008152600401612bcd9190616bb6565b60405180910390fd5b600460029054906101000a900473ffffffffffffffffffffffffffffffffffffffff1673ffffffffffffffffffffffffffffffffffffffff1663cf408823893089896040518563ffffffff1660e01b8152600401612c37949392919061838d565b600060405180830381600087803b158015612c5157600080fd5b505af1158015612c65573d6000803e3d6000fd5b505050506000612c778960001c610a74565b50509050612c9b81898b60001c600160405180602001604052806000815250614e09565b505050505050505050565b60606000612cb383611202565b90506000815167ffffffffffffffff811115612cd257612cd1616992565b5b604051908082528060200260200182016040528015612d0557816020015b6060815260200190600190039081612cf05790505b50905060005b8251811015612dfb5760076000848381518110612d2b57612d2a617e9f565b5b602002602001015181526020019081526020016000208054612d4c90617dd9565b80601f0160208091040260200160405190810160405280929190818152602001828054612d7890617dd9565b8015612dc55780601f10612d9a57610100808354040283529160200191612dc5565b820191906000526020600020905b815481529060010190602001808311612da857829003601f168201915b5050505050828281518110612ddd57612ddc617e9f565b5b60200260200101819052508080612df390617efd565b915050612d0b565b508092505050919050565b612e108383614044565b612e1a8133613807565b612e5d5780336040517fb455aae8000000000000000000000000000000000000000000000000000000008152600401612e54929190617c31565b60405180910390fd5b7f587d09fe5fa45354680537d38145a28b772971e0f293af3ee0c536fc919710fb60001b8403612eb9576040517f615a470300000000000000000000000000000000000000000000000000000000815260040160405180910390fd5b600073ffffffffffffffffffffffffffffffffffffffff168273ffffffffffffffffffffffffffffffffffffffff161480612f1f57503073ffffffffffffffffffffffffffffffffffffffff168273ffffffffffffffffffffffffffffffffffffffff16145b15612f6157816040517f5949361a000000000000000000000000000000000000000000000000000000008152600401612f5891906171f4565b60405180910390fd5b612f74612f6e8585614044565b836148ca565b50505050565b60036020528060005260406000206000915054906101000a900460ff1681565b612fa2613fb1565b80600360008473ffffffffffffffffffffffffffffffffffffffff1673ffffffffffffffffffffffffffffffffffffffff16815260200190815260200160002060006101000a81548160ff0219169083151502179055508173ffffffffffffffffffffffffffffffffffffffff167f4c97694570a07277810af7e5669ffd5f6a2d6b74b6e9a274b8b870fd5114cf878260405161303f9190616351565b60405180910390a25050565b6000848460405161305d9291906181a6565b6040518091039020905060006130967f587d09fe5fa45354680537d38145a28b772971e0f293af3ee0c536fc919710fb60001b83614044565b90506000806130a483614fc2565b91509150600860009054906101000a900473ffffffffffffffffffffffffffffffffffffffff1673ffffffffffffffffffffffffffffffffffffffff1663f9547a9e89898986868b6040518763ffffffff1660e01b815260040161310d969594939291906183ff565b600060405180830381600087803b15801561312757600080fd5b505af115801561313b573d6000803e3d6000fd5b505050505050505050505050565b6000600260008473ffffffffffffffffffffffffffffffffffffffff1673ffffffffffffffffffffffffffffffffffffffff16815260200190815260200160002060008373ffffffffffffffffffffffffffffffffffffffff1673ffffffffffffffffffffffffffffffffffffffff16815260200190815260200160002060009054906101000a900460ff16905092915050565b600080613238600087878080601f016020809104026020016040519081016040528093929190818152602001838380828437600081840152601f19601f820116905080830192505050505050506150c290919063ffffffff16565b9150915060006132958288888080601f016020809104026020016040519081016040528093929190818152602001838380828437600081840152601f19601f8201169050808301925050505050505061518090919063ffffffff16565b905060006132a38285614044565b90507f587d09fe5fa45354680537d38145a28b772971e0f293af3ee0c536fc919710fb60001b8203613301576040517f615a470300000000000000000000000000000000000000000000000000000000815260040160405180910390fd5b6000600460029054906101000a900473ffffffffffffffffffffffffffffffffffffffff1673ffffffffffffffffffffffffffffffffffffffff166302571be3836040518263ffffffff1660e01b815260040161335e9190616bb6565b602060405180830381865afa15801561337b573d6000803e3d6000fd5b505050506040513d601f19601f8201168201806040525081019061339f9190617e1f565b90503373ffffffffffffffffffffffffffffffffffffffff168173ffffffffffffffffffffffffffffffffffffffff16141580156134785750600460029054906101000a900473ffffffffffffffffffffffffffffffffffffffff1673ffffffffffffffffffffffffffffffffffffffff1663e985e9c582336040518363ffffffff1660e01b815260040161343592919061845b565b602060405180830381865afa158015613452573d6000803e3d6000fd5b505050506040513d601f19601f820116820180604052508101906134769190618112565b155b156134bc5781336040517fb455aae80000000000000000000000000000000000000000000000000000000081526004016134b3929190617c31565b60405180910390fd5b600073ffffffffffffffffffffffffffffffffffffffff168673ffffffffffffffffffffffffffffffffffffffff161461358057600460029054906101000a900473ffffffffffffffffffffffffffffffffffffffff1673ffffffffffffffffffffffffffffffffffffffff16631896f70a83886040518363ffffffff1660e01b815260040161354d929190617c31565b600060405180830381600087803b15801561356757600080fd5b505af115801561357b573d6000803e3d6000fd5b505050505b600460029054906101000a900473ffffffffffffffffffffffffffffffffffffffff1673ffffffffffffffffffffffffffffffffffffffff16635b0fc9c383306040518363ffffffff1660e01b81526004016135dd929190617c31565b600060405180830381600087803b1580156135f757600080fd5b505af115801561360b573d6000803e3d6000fd5b50505050613661828a8a8080601f016020809104026020016040519081016040528093929190818152602001838380828437600081840152601f19601f8201169050808301925050505050505089600080615236565b505050505050505050565b60016020528060005260406000206000915090505481565b600084846040516136969291906181a6565b6040518091039020905060006136ac8783614044565b90506000806136ba83614fc2565b91509150600860009054906101000a900473ffffffffffffffffffffffffffffffffffffffff1673ffffffffffffffffffffffffffffffffffffffff166324c1af448a8a8a8a8a600089896040518963ffffffff1660e01b81526004016137289897969594939291906184bf565b600060405180830381600087803b15801561374257600080fd5b505af1158015613756573d6000803e3d6000fd5b50505050505050505050505050565b61377285858585856152a8565b61377d85858561460a565b5050505050565b61378c613fb1565b600073ffffffffffffffffffffffffffffffffffffffff168173ffffffffffffffffffffffffffffffffffffffff16036137fb576040517f08c379a00000000000000000000000000000000000000000000000000000000081526004016137f2906185a9565b60405180910390fd5b61380481614806565b50565b6000806138168460001c611c52565b90508273ffffffffffffffffffffffffffffffffffffffff168173ffffffffffffffffffffffffffffffffffffffff16148061385857506138578184613149565b5b91505092915050565b60008087876040516138749291906181a6565b604051809103902060001c90506000600560009054906101000a900473ffffffffffffffffffffffffffffffffffffffff1673ffffffffffffffffffffffffffffffffffffffff16636352211e836040518263ffffffff1660e01b81526004016138de91906161e1565b602060405180830381865afa1580156138fb573d6000803e3d6000fd5b505050506040513d601f19601f8201168201806040525081019061391f9190617e1f565b90503373ffffffffffffffffffffffffffffffffffffffff168173ffffffffffffffffffffffffffffffffffffffff16141580156139f85750600560009054906101000a900473ffffffffffffffffffffffffffffffffffffffff1673ffffffffffffffffffffffffffffffffffffffff1663e985e9c582336040518363ffffffff1660e01b81526004016139b592919061845b565b602060405180830381865afa1580156139d2573d6000803e3d6000fd5b505050506040513d601f19601f820116820180604052508101906139f69190618112565b155b15613a6b57613a2d7f587d09fe5fa45354680537d38145a28b772971e0f293af3ee0c536fc919710fb60001b8360001b614044565b336040517fb455aae8000000000000000000000000000000000000000000000000000000008152600401613a62929190617c31565b60405180910390fd5b600560009054906101000a900473ffffffffffffffffffffffffffffffffffffffff1673ffffffffffffffffffffffffffffffffffffffff166323b872dd8230856040518463ffffffff1660e01b8152600401613aca9392919061813f565b600060405180830381600087803b158015613ae457600080fd5b505af1158015613af8573d6000803e3d6000fd5b50505050600560009054906101000a900473ffffffffffffffffffffffffffffffffffffffff1673ffffffffffffffffffffffffffffffffffffffff166328ed4f6c83306040518363ffffffff1660e01b8152600401613b59929190617d81565b600060405180830381600087803b158015613b7357600080fd5b505af1158015613b87573d6000803e3d6000fd5b50505050613bdc89898080601f016020809104026020016040519081016040528093929190818152602001838380828437600081840152601f19601f8201169050808301925050505050505088888888613e54565b925050509695505050505050565b60008073ffffffffffffffffffffffffffffffffffffffff16613c0f8360001c611c52565b73ffffffffffffffffffffffffffffffffffffffff1614158015613cf957503073ffffffffffffffffffffffffffffffffffffffff16600460029054906101000a900473ffffffffffffffffffffffffffffffffffffffff1673ffffffffffffffffffffffffffffffffffffffff166302571be3846040518263ffffffff1660e01b8152600401613ca09190616bb6565b602060405180830381865afa158015613cbd573d6000803e3d6000fd5b505050506040513d601f19601f82011682018060405250810190613ce19190617e1f565b73ffffffffffffffffffffffffffffffffffffffff16145b9050919050565b6000806000806001600086815260200190815260200160002054905080935060c081901c91508167ffffffffffffffff16421115613d415760009250613d49565b60a081901c92505b509193909250565b60007fd9b67a26000000000000000000000000000000000000000000000000000000007bffffffffffffffffffffffffffffffffffffffffffffffffffffffff1916827bffffffffffffffffffffffffffffffffffffffffffffffffffffffff19161480613e1c57507f0e89341c000000000000000000000000000000000000000000000000000000007bffffffffffffffffffffffffffffffffffffffffffffffffffffffff1916827bffffffffffffffffffffffffffffffffffffffffffffffffffffffff1916145b80613e2c5750613e2b826153aa565b5b9050919050565b60606000613e4383600001615414565b905060608190508092505050919050565b600080868051906020012090506000613e907f587d09fe5fa45354680537d38145a28b772971e0f293af3ee0c536fc919710fb60001b83614044565b90506000613e9f828488615470565b9091508097508192505050613ede7f587d09fe5fa45354680537d38145a28b772971e0f293af3ee0c536fc919710fb60001b838b8b60408c178b6140c1565b600073ffffffffffffffffffffffffffffffffffffffff168573ffffffffffffffffffffffffffffffffffffffff1614613fa257600460029054906101000a900473ffffffffffffffffffffffffffffffffffffffff1673ffffffffffffffffffffffffffffffffffffffff16631896f70a83876040518363ffffffff1660e01b8152600401613f6f929190617c31565b600060405180830381600087803b158015613f8957600080fd5b505af1158015613f9d573d6000803e3d6000fd5b505050505b85935050505095945050505050565b613fb9615552565b73ffffffffffffffffffffffffffffffffffffffff16613fd7611ea9565b73ffffffffffffffffffffffffffffffffffffffff161461402d576040517f08c379a000000000000000000000000000000000000000000000000000000000815260040161402490618615565b60405180910390fd5b565b606061403d82600001615414565b9050919050565b60008282604051602001614059929190618656565b60405160208183030381529060405280519060200120905092915050565b6000806140868560001c610a74565b925050506000806140998860001c610a74565b92509250506140a98787846146bc565b6140b4858483614736565b9350505050949350505050565b600061416885600760008a815260200190815260200160002080546140e590617dd9565b80601f016020809104026020016040519081016040528092919081815260200182805461411190617dd9565b801561415e5780601f106141335761010080835404028352916020019161415e565b820191906000526020600020905b81548152906001019060200180831161414157829003601f168201915b505050505061555a565b90506141778682868686615236565b50505050505050565b600061418e8660001c611c52565b9050600061423786600760008b815260200190815260200160002080546141b490617dd9565b80601f01602080910402602001604051908101604052809291908181526020018280546141e090617dd9565b801561422d5780601f106142025761010080835404028352916020019161422d565b820191906000526020600020905b81548152906001019060200180831161421057829003601f168201915b505050505061555a565b9050600060076000898152602001908152602001600020805461425990617dd9565b90500361428257806007600089815260200190815260200160002090816142809190618824565b505b61428e87838686614782565b600073ffffffffffffffffffffffffffffffffffffffff168573ffffffffffffffffffffffffffffffffffffffff16036142d2576142cd8760006148ca565b6142f3565b6142f282868960001c600160405180602001604052806000815250614e09565b5b5050505050505050565b8151835114614341576040517f08c379a000000000000000000000000000000000000000000000000000000000815260040161433890618968565b60405180910390fd5b600073ffffffffffffffffffffffffffffffffffffffff168473ffffffffffffffffffffffffffffffffffffffff16036143b0576040517f08c379a00000000000000000000000000000000000000000000000000000000081526004016143a7906189fa565b60405180910390fd5b3373ffffffffffffffffffffffffffffffffffffffff168573ffffffffffffffffffffffffffffffffffffffff1614806143f057506143ef8533613149565b5b61442f576040517f08c379a000000000000000000000000000000000000000000000000000000000815260040161442690618a8c565b60405180910390fd5b60005b83518110156145765760008482815181106144505761444f617e9f565b5b60200260200101519050600084838151811061446f5761446e617e9f565b5b60200260200101519050600080600061448785610a74565b9250925092506144968261560c565b6144da578460001b6040517fa2a720130000000000000000000000000000000000000000000000000000000081526004016144d19190616bb6565b60405180910390fd5b60018414801561451557508a73ffffffffffffffffffffffffffffffffffffffff168373ffffffffffffffffffffffffffffffffffffffff16145b614554576040517f08c379a000000000000000000000000000000000000000000000000000000000815260040161454b90618b1e565b60405180910390fd5b614560858b8484615621565b50505050508061456f90617efd565b9050614432565b508373ffffffffffffffffffffffffffffffffffffffff168573ffffffffffffffffffffffffffffffffffffffff163373ffffffffffffffffffffffffffffffffffffffff167f4a39dc06d4c0dbc64b70af90fd698a233a518aa5d07e595d983b8c0526c8f7fb86866040516145ed929190618b3e565b60405180910390a4614603338686868686615671565b5050505050565b60008160001b905061466381600960008773ffffffffffffffffffffffffffffffffffffffff1673ffffffffffffffffffffffffffffffffffffffff16815260200190815260200160002061584890919063ffffffff16565b506146b581600960008673ffffffffffffffffffffffffffffffffffffffff1673ffffffffffffffffffffffffffffffffffffffff16815260200190815260200160002061585f90919063ffffffff16565b5050505050565b6000604063ffffffff166040841663ffffffff161490506000806001841663ffffffff161490508180156146ed5750805b1561472f57846040517fa2a720130000000000000000000000000000000000000000000000000000000081526004016147269190616bb6565b60405180910390fd5b5050505050565b60008167ffffffffffffffff168467ffffffffffffffff161115614758578193505b8267ffffffffffffffff168467ffffffffffffffff161015614778578293505b8390509392505050565b61478e848484846147ce565b837f936318e296f824e203b086d97bb155a0200cec4847efea1fb4b9b7f92415735583836040516147c0929190618b75565b60405180910390a250505050565b6147d88483615876565b6147e78460001c848484615621565b50505050565b6000806147f983610a74565b5050905080915050919050565b60008060009054906101000a900473ffffffffffffffffffffffffffffffffffffffff169050816000806101000a81548173ffffffffffffffffffffffffffffffffffffffff021916908373ffffffffffffffffffffffffffffffffffffffff1602179055508173ffffffffffffffffffffffffffffffffffffffff168173ffffffffffffffffffffffffffffffffffffffff167f8be0079c531659141344cd1fd0a4f28419497f9722a3daafe3b4186f6b6457e060405160405180910390a35050565b6148d582600161213f565b1561491757816040517fa2a7201300000000000000000000000000000000000000000000000000000000815260040161490e9190616bb6565b60405180910390fd5b6149238260001c6158ed565b600460029054906101000a900473ffffffffffffffffffffffffffffffffffffffff1673ffffffffffffffffffffffffffffffffffffffff16635b0fc9c383836040518363ffffffff1660e01b8152600401614980929190617c31565b600060405180830381600087803b15801561499a57600080fd5b505af11580156149ae573d6000803e3d6000fd5b50505050817fee2ba1195c65bcf218a83d874335c6bf9d9067b4c672f3c3bf16cf40de7586c4826040516149e291906171f4565b60405180910390a25050565b8173ffffffffffffffffffffffffffffffffffffffff163373ffffffffffffffffffffffffffffffffffffffff1603614a5c576040517f08c379a0000000000000000000000000000000000000000000000000000000008152600401614a5390618c10565b60405180910390fd5b80600260003373ffffffffffffffffffffffffffffffffffffffff1673ffffffffffffffffffffffffffffffffffffffff16815260200190815260200160002060008473ffffffffffffffffffffffffffffffffffffffff1673ffffffffffffffffffffffffffffffffffffffff16815260200190815260200160002060006101000a81548160ff0219169083151502179055508173ffffffffffffffffffffffffffffffffffffffff163373ffffffffffffffffffffffffffffffffffffffff167f17307eab39ab6107e8899845ad3d59bd9653f200f220920489ca2b5937696c3183604051614b4d9190616351565b60405180910390a35050565b6000614b81836000018373ffffffffffffffffffffffffffffffffffffffff1660001b61595e565b905092915050565b6000614bb1836000018373ffffffffffffffffffffffffffffffffffffffff1660001b6159ce565b905092915050565b6000808273ffffffffffffffffffffffffffffffffffffffff163b119050919050565b82600460026101000a81548173ffffffffffffffffffffffffffffffffffffffff021916908373ffffffffffffffffffffffffffffffffffffffff16021790555081600560006101000a81548173ffffffffffffffffffffffffffffffffffffffff021916908373ffffffffffffffffffffffffffffffffffffffff16021790555080600660006101000a81548173ffffffffffffffffffffffffffffffffffffffff021916908373ffffffffffffffffffffffffffffffffffffffff160217905550614cde7f587d09fe5fa45354680537d38145a28b772971e0f293af3ee0c536fc919710fb60001b60001c6000600160401767ffffffffffffffff615621565b614cfd6000801b60001c6000600160401767ffffffffffffffff615621565b6040518060400160405280600181526020016000815250600760008060001b81526020019081526020016000209081614d369190618c30565b506040518060400160405280600681526020017f0477656233000000000000000000000000000000000000000000000000000000815250600760007f587d09fe5fa45354680537d38145a28b772971e0f293af3ee0c536fc919710fb60001b81526020019081526020016000209081614daf9190618c30565b50505050565b60006040821663ffffffff1614614e055781336040517fb455aae8000000000000000000000000000000000000000000000000000000008152600401614dfc929190617c31565b60405180910390fd5b5050565b6000806000614e1786610a74565b925092509250614e268261560c565b614e6a578560001b6040517fa2a72013000000000000000000000000000000000000000000000000000000008152600401614e619190616bb6565b60405180910390fd5b600185148015614ea557508773ffffffffffffffffffffffffffffffffffffffff168373ffffffffffffffffffffffffffffffffffffffff16145b614ee4576040517f08c379a0000000000000000000000000000000000000000000000000000000008152600401614edb90618b1e565b60405180910390fd5b8673ffffffffffffffffffffffffffffffffffffffff168373ffffffffffffffffffffffffffffffffffffffff1603614f1f57505050614fbb565b614f2b86888484615621565b8673ffffffffffffffffffffffffffffffffffffffff168873ffffffffffffffffffffffffffffffffffffffff163373ffffffffffffffffffffffffffffffffffffffff167fc3d58168c5ae7397731d063d5bbf3d657854427343f4c083240f7aacaa2d0f628989604051614fa1929190618019565b60405180910390a4614fb7338989898989615ae2565b5050505b5050505050565b600080600073ffffffffffffffffffffffffffffffffffffffff16600860009054906101000a900473ffffffffffffffffffffffffffffffffffffffff1673ffffffffffffffffffffffffffffffffffffffff160361504d576040517f24c1d6d400000000000000000000000000000000000000000000000000000000815260040160405180910390fd5b6150578333613807565b61509a5782336040517fb455aae8000000000000000000000000000000000000000000000000000000008152600401615091929190617c31565b60405180910390fd5b6150a68360001c610a74565b90915080925081935050506150bd8360001c6158ed565b915091565b60008083518310615108576040517f08c379a00000000000000000000000000000000000000000000000000000000081526004016150ff90618d4e565b60405180910390fd5b600084848151811061511d5761511c617e9f565b5b602001015160f81c60f81b60f81c60ff1690506000811115615157576151508560018661514a9190618d6e565b83615cb9565b925061515e565b6000801b92505b6001818561516c9190618d6e565b6151769190618d6e565b9150509250929050565b600080600061518f85856150c2565b915091506000801b82036151f957600185516151ab9190618da2565b84146151ec576040517f08c379a00000000000000000000000000000000000000000000000000000000081526004016151e390618e22565b60405180910390fd5b6000801b92505050615230565b6152038582615180565b82604051602001615215929190618656565b60405160208183030381529060405280519060200120925050505b92915050565b836007600087815260200190815260200160002090816152569190618824565b5061526385848484615ce5565b847f8ce7013e8abebc55c3890a68f5a27c67c3f7efa64e584de5fb22363c606fd340858585856040516152999493929190618e42565b60405180910390a25050505050565b600073ffffffffffffffffffffffffffffffffffffffff168473ffffffffffffffffffffffffffffffffffffffff1603615317576040517f08c379a000000000000000000000000000000000000000000000000000000000815260040161530e906189fa565b60405180910390fd5b3373ffffffffffffffffffffffffffffffffffffffff168573ffffffffffffffffffffffffffffffffffffffff16148061535757506153568533613149565b5b615396576040517f08c379a000000000000000000000000000000000000000000000000000000000815260040161538d90618f00565b60405180910390fd5b6153a38585858585614e09565b5050505050565b60007f01ffc9a7000000000000000000000000000000000000000000000000000000007bffffffffffffffffffffffffffffffffffffffffffffffffffffffff1916827bffffffffffffffffffffffffffffffffffffffffffffffffffffffff1916149050919050565b60608160000180548060200260200160405190810160405280929190818152602001828054801561546457602002820191906000526020600020905b815481526020019060010190808311615450575b50505050509050919050565b6000806000806154828760001c610a74565b8093508195508296505050506000600560009054906101000a900473ffffffffffffffffffffffffffffffffffffffff1673ffffffffffffffffffffffffffffffffffffffff1663d6e4fa868860001c6040518263ffffffff1660e01b81526004016154ee91906161e1565b602060405180830381865afa15801561550b573d6000803e3d6000fd5b505050506040513d601f19601f8201168201806040525081019061552f9190617f5a565b905061553c868383614736565b9550848487945094509450505093509350939050565b600033905090565b6060600183511015615598576040517f280dacb600000000000000000000000000000000000000000000000000000000815260040160405180910390fd5b60ff835111156155df57826040517fe3ba295f0000000000000000000000000000000000000000000000000000000081526004016155d691906163fc565b60405180910390fd5b825183836040516020016155f593929190618fc3565b604051602081830303815290604052905092915050565b6000806004831663ffffffff16149050919050565b60c08167ffffffffffffffff16901b60a08363ffffffff16901b8473ffffffffffffffffffffffffffffffffffffffff161717600160008681526020019081526020016000208190555050505050565b6156908473ffffffffffffffffffffffffffffffffffffffff16614bb9565b15615840578373ffffffffffffffffffffffffffffffffffffffff1663bc197c8187878686866040518663ffffffff1660e01b81526004016156d6959493929190618ff8565b6020604051808303816000875af192505050801561571257506040513d601f19601f8201168201806040525081019061570f9190619075565b60015b6157b75761571e6190af565b806308c379a00361577a57506157326190d1565b8061573d575061577c565b806040517f08c379a000000000000000000000000000000000000000000000000000000000815260040161577191906163fc565b60405180910390fd5b505b6040517f08c379a00000000000000000000000000000000000000000000000000000000081526004016157ae906191d3565b60405180910390fd5b63bc197c8160e01b7bffffffffffffffffffffffffffffffffffffffffffffffffffffffff1916817bffffffffffffffffffffffffffffffffffffffffffffffffffffffff19161461583e576040517f08c379a000000000000000000000000000000000000000000000000000000000815260040161583590619265565b60405180910390fd5b505b505050505050565b600061585783600001836159ce565b905092915050565b600061586e836000018361595e565b905092915050565b6000604019821663ffffffff16141580156158a75750600160401763ffffffff166001604017821663ffffffff1614155b156158e957816040517fa2a720130000000000000000000000000000000000000000000000000000000081526004016158e09190616bb6565b60405180910390fd5b5050565b60006158f882610a74565b505090506159508260001b600960008473ffffffffffffffffffffffffffffffffffffffff1673ffffffffffffffffffffffffffffffffffffffff16815260200190815260200160002061584890919063ffffffff16565b5061595a82615dde565b5050565b600061596a8383615e85565b6159c35782600001829080600181540180825580915050600190039060005260206000200160009091909190915055826000018054905083600101600084815260200190815260200160002081905550600190506159c8565b600090505b92915050565b60008083600101600084815260200190815260200160002054905060008114615ad6576000600182615a009190618da2565b9050600060018660000180549050615a189190618da2565b9050818114615a87576000866000018281548110615a3957615a38617e9f565b5b9060005260206000200154905080876000018481548110615a5d57615a5c617e9f565b5b90600052602060002001819055508387600101600083815260200190815260200160002081905550505b85600001805480615a9b57615a9a619285565b5b600190038181906000526020600020016000905590558560010160008681526020019081526020016000206000905560019350505050615adc565b60009150505b92915050565b615b018473ffffffffffffffffffffffffffffffffffffffff16614bb9565b15615cb1578373ffffffffffffffffffffffffffffffffffffffff1663f23a6e6187878686866040518663ffffffff1660e01b8152600401615b479594939291906192b4565b6020604051808303816000875af1925050508015615b8357506040513d601f19601f82011682018060405250810190615b809190619075565b60015b615c2857615b8f6190af565b806308c379a003615beb5750615ba36190d1565b80615bae5750615bed565b806040517f08c379a0000000000000000000000000000000000000000000000000000000008152600401615be291906163fc565b60405180910390fd5b505b6040517f08c379a0000000000000000000000000000000000000000000000000000000008152600401615c1f906191d3565b60405180910390fd5b63f23a6e6160e01b7bffffffffffffffffffffffffffffffffffffffffffffffffffffffff1916817bffffffffffffffffffffffffffffffffffffffffffffffffffffffff191614615caf576040517f08c379a0000000000000000000000000000000000000000000000000000000008152600401615ca690619265565b60405180910390fd5b505b505050505050565b600083518284615cc99190618d6e565b1115615cd457600080fd5b818360208601012090509392505050565b615cef8483615876565b6000615cfd8560001c611c52565b9050600073ffffffffffffffffffffffffffffffffffffffff168173ffffffffffffffffffffffffffffffffffffffff1614615d7957615d3f8560001c6158ed565b847fee2ba1195c65bcf218a83d874335c6bf9d9067b4c672f3c3bf16cf40de7586c46000604051615d7091906171f4565b60405180910390a25b615d8585858585615ea8565b615dd685600960008773ffffffffffffffffffffffffffffffffffffffff1673ffffffffffffffffffffffffffffffffffffffff16815260200190815260200160002061585f90919063ffffffff16565b505050505050565b6000806000615dec84610a74565b925092509250615dff8460008484615621565b600073ffffffffffffffffffffffffffffffffffffffff168373ffffffffffffffffffffffffffffffffffffffff163373ffffffffffffffffffffffffffffffffffffffff167fc3d58168c5ae7397731d063d5bbf3d657854427343f4c083240f7aacaa2d0f62876001604051615e7792919061933f565b60405180910390a450505050565b600080836001016000848152602001908152602001600020541415905092915050565b60008460001c90506000806000615ec18860001c610a74565b9250925092508467ffffffffffffffff168167ffffffffffffffff161115615ee7578094505b600073ffffffffffffffffffffffffffffffffffffffff168373ffffffffffffffffffffffffffffffffffffffff1614615f56576040517f08c379a0000000000000000000000000000000000000000000000000000000008152600401615f4d906193b4565b60405180910390fd5b600073ffffffffffffffffffffffffffffffffffffffff168773ffffffffffffffffffffffffffffffffffffffff1603615fc5576040517f08c379a0000000000000000000000000000000000000000000000000000000008152600401615fbc90619446565b60405180910390fd5b3073ffffffffffffffffffffffffffffffffffffffff168773ffffffffffffffffffffffffffffffffffffffff1603616033576040517f08c379a000000000000000000000000000000000000000000000000000000000815260040161602a906194d8565b60405180910390fd5b616041848884891788615621565b8673ffffffffffffffffffffffffffffffffffffffff16600073ffffffffffffffffffffffffffffffffffffffff163373ffffffffffffffffffffffffffffffffffffffff167fc3d58168c5ae7397731d063d5bbf3d657854427343f4c083240f7aacaa2d0f628760016040516160b992919061933f565b60405180910390a46160e03360008987600160405180602001604052806000815250615ae2565b5050505050505050565b6000604051905090565b600080fd5b600080fd5b600073ffffffffffffffffffffffffffffffffffffffff82169050919050565b6000616129826160fe565b9050919050565b6161398161611e565b811461614457600080fd5b50565b60008135905061615681616130565b92915050565b6000819050919050565b61616f8161615c565b811461617a57600080fd5b50565b60008135905061618c81616166565b92915050565b600080604083850312156161a9576161a86160f4565b5b60006161b785828601616147565b92505060206161c88582860161617d565b9150509250929050565b6161db8161615c565b82525050565b60006020820190506161f660008301846161d2565b92915050565b600060208284031215616212576162116160f4565b5b60006162208482850161617d565b91505092915050565b6162328161611e565b82525050565b600063ffffffff82169050919050565b61625181616238565b82525050565b600067ffffffffffffffff82169050919050565b61627481616257565b82525050565b600060608201905061628f6000830186616229565b61629c6020830185616248565b6162a9604083018461626b565b949350505050565b60007fffffffff0000000000000000000000000000000000000000000000000000000082169050919050565b6162e6816162b1565b81146162f157600080fd5b50565b600081359050616303816162dd565b92915050565b60006020828403121561631f5761631e6160f4565b5b600061632d848285016162f4565b91505092915050565b60008115159050919050565b61634b81616336565b82525050565b60006020820190506163666000830184616342565b92915050565b600081519050919050565b600082825260208201905092915050565b60005b838110156163a657808201518184015260208101905061638b565b60008484015250505050565b6000601f19601f8301169050919050565b60006163ce8261636c565b6163d88185616377565b93506163e8818560208601616388565b6163f1816163b2565b840191505092915050565b6000602082019050818103600083015261641681846163c3565b905092915050565b600060208284031215616434576164336160f4565b5b600061644284828501616147565b91505092915050565b600081519050919050565b600082825260208201905092915050565b6000819050602082019050919050565b6164808161611e565b82525050565b60006164928383616477565b60208301905092915050565b6000602082019050919050565b60006164b68261644b565b6164c08185616456565b93506164cb83616467565b8060005b838110156164fc5781516164e38882616486565b97506164ee8361649e565b9250506001810190506164cf565b5085935050505092915050565b6000602082019050818103600083015261652381846164ab565b905092915050565b6000819050919050565b61653e8161652b565b811461654957600080fd5b50565b60008135905061655b81616535565b92915050565b61656a81616257565b811461657557600080fd5b50565b60008135905061658781616561565b92915050565b600080604083850312156165a4576165a36160f4565b5b60006165b28582860161654c565b92505060206165c385828601616578565b9150509250929050565b600080fd5b600080fd5b600080fd5b60008083601f8401126165f2576165f16165cd565b5b8235905067ffffffffffffffff81111561660f5761660e6165d2565b5b60208301915083600182028301111561662b5761662a6165d7565b5b9250929050565b60008060008060006080868803121561664e5761664d6160f4565b5b600061665c88828901616147565b955050602061666d88828901616147565b945050604061667e8882890161617d565b935050606086013567ffffffffffffffff81111561669f5761669e6160f9565b5b6166ab888289016165dc565b92509250509295509295909350565b6166c3816162b1565b82525050565b60006020820190506166de60008301846166ba565b92915050565b60006166ef8261611e565b9050919050565b6166ff816166e4565b811461670a57600080fd5b50565b60008135905061671c816166f6565b92915050565b600060208284031215616738576167376160f4565b5b60006167468482850161670d565b91505092915050565b60008060408385031215616766576167656160f4565b5b60006167748582860161654c565b925050602061678585828601616147565b9150509250929050565b6000819050919050565b60006167b46167af6167aa846160fe565b61678f565b6160fe565b9050919050565b60006167c682616799565b9050919050565b60006167d8826167bb565b9050919050565b6167e8816167cd565b82525050565b600060208201905061680360008301846167df565b92915050565b60006020828403121561681f5761681e6160f4565b5b600061682d8482850161654c565b91505092915050565b600081519050919050565b600082825260208201905092915050565b600061685d82616836565b6168678185616841565b9350616877818560208601616388565b616880816163b2565b840191505092915050565b600060208201905081810360008301526168a58184616852565b905092915050565b600081519050919050565b600082825260208201905092915050565b6000819050602082019050919050565b6168e28161652b565b82525050565b60006168f483836168d9565b60208301905092915050565b6000602082019050919050565b6000616918826168ad565b61692281856168b8565b935061692d836168c9565b8060005b8381101561695e57815161694588826168e8565b975061695083616900565b925050600181019050616931565b5085935050505092915050565b60006020820190508181036000830152616985818461690d565b905092915050565b600080fd5b7f4e487b7100000000000000000000000000000000000000000000000000000000600052604160045260246000fd5b6169ca826163b2565b810181811067ffffffffffffffff821117156169e9576169e8616992565b5b80604052505050565b60006169fc6160ea565b9050616a0882826169c1565b919050565b600067ffffffffffffffff821115616a2857616a27616992565b5b616a31826163b2565b9050602081019050919050565b82818337600083830152505050565b6000616a60616a5b84616a0d565b6169f2565b905082815260208101848484011115616a7c57616a7b61698d565b5b616a87848285616a3e565b509392505050565b600082601f830112616aa457616aa36165cd565b5b8135616ab4848260208601616a4d565b91505092915050565b616ac681616238565b8114616ad157600080fd5b50565b600081359050616ae381616abd565b92915050565b600080600080600080600060e0888a031215616b0857616b076160f4565b5b6000616b168a828b0161654c565b975050602088013567ffffffffffffffff811115616b3757616b366160f9565b5b616b438a828b01616a8f565b9650506040616b548a828b01616147565b9550506060616b658a828b01616147565b9450506080616b768a828b01616578565b93505060a0616b878a828b01616ad4565b92505060c0616b988a828b01616578565b91505092959891949750929550565b616bb08161652b565b82525050565b6000602082019050616bcb6000830184616ba7565b92915050565b6000616bdc826167bb565b9050919050565b616bec81616bd1565b82525050565b6000602082019050616c076000830184616be3565b92915050565b600067ffffffffffffffff821115616c2857616c27616992565b5b602082029050602081019050919050565b6000616c4c616c4784616c0d565b6169f2565b90508083825260208201905060208402830185811115616c6f57616c6e6165d7565b5b835b81811015616c985780616c84888261617d565b845260208401935050602081019050616c71565b5050509392505050565b600082601f830112616cb757616cb66165cd565b5b8135616cc7848260208601616c39565b91505092915050565b600067ffffffffffffffff821115616ceb57616cea616992565b5b616cf4826163b2565b9050602081019050919050565b6000616d14616d0f84616cd0565b6169f2565b905082815260208101848484011115616d3057616d2f61698d565b5b616d3b848285616a3e565b509392505050565b600082601f830112616d5857616d576165cd565b5b8135616d68848260208601616d01565b91505092915050565b600080600080600060a08688031215616d8d57616d8c6160f4565b5b6000616d9b88828901616147565b9550506020616dac88828901616147565b945050604086013567ffffffffffffffff811115616dcd57616dcc6160f9565b5b616dd988828901616ca2565b935050606086013567ffffffffffffffff811115616dfa57616df96160f9565b5b616e0688828901616ca2565b925050608086013567ffffffffffffffff811115616e2757616e266160f9565b5b616e3388828901616d43565b9150509295509295909350565b60008060008060808587031215616e5a57616e596160f4565b5b6000616e688782880161654c565b9450506020616e798782880161654c565b9350506040616e8a87828801616ad4565b9250506060616e9b87828801616578565b91505092959194509250565b6000616eb2826167bb565b9050919050565b616ec281616ea7565b82525050565b6000602082019050616edd6000830184616eb9565b92915050565b60008060008060808587031215616efd57616efc6160f4565b5b6000616f0b8782880161617d565b9450506020616f1c8782880161617d565b9350506040616f2d87828801616ad4565b9250506060616f3e87828801616578565b91505092959194509250565b600067ffffffffffffffff821115616f6557616f64616992565b5b602082029050602081019050919050565b6000616f89616f8484616f4a565b6169f2565b90508083825260208201905060208402830185811115616fac57616fab6165d7565b5b835b81811015616fd55780616fc18882616147565b845260208401935050602081019050616fae565b5050509392505050565b600082601f830112616ff457616ff36165cd565b5b8135617004848260208601616f76565b91505092915050565b60008060408385031215617024576170236160f4565b5b600083013567ffffffffffffffff811115617042576170416160f9565b5b61704e85828601616fdf565b925050602083013567ffffffffffffffff81111561706f5761706e6160f9565b5b61707b85828601616ca2565b9150509250929050565b600081519050919050565b600082825260208201905092915050565b6000819050602082019050919050565b6170ba8161615c565b82525050565b60006170cc83836170b1565b60208301905092915050565b6000602082019050919050565b60006170f082617085565b6170fa8185617090565b9350617105836170a1565b8060005b8381101561713657815161711d88826170c0565b9750617128836170d8565b925050600181019050617109565b5085935050505092915050565b6000602082019050818103600083015261715d81846170e5565b905092915050565b6000617170826167bb565b9050919050565b61718081617165565b82525050565b600060208201905061719b6000830184617177565b92915050565b6000806000606084860312156171ba576171b96160f4565b5b60006171c886828701616147565b93505060206171d986828701616147565b92505060406171ea8682870161617d565b9150509250925092565b60006020820190506172096000830184616229565b92915050565b600080600060608486031215617228576172276160f4565b5b60006172368682870161654c565b935050602061724786828701616147565b925050604061725886828701616147565b9150509250925092565b60008083601f840112617278576172776165cd565b5b8235905067ffffffffffffffff811115617295576172946165d2565b5b6020830191508360018202830111156172b1576172b06165d7565b5b9250929050565b600080600080600080600060c0888a0312156172d7576172d66160f4565b5b600088013567ffffffffffffffff8111156172f5576172f46160f9565b5b6173018a828b01617262565b975097505060206173148a828b01616147565b95505060406173258a828b0161617d565b94505060606173368a828b01616147565b93505060806173478a828b01616ad4565b92505060a06173588a828b01616578565b91505092959891949750929550565b61737081616336565b811461737b57600080fd5b50565b60008135905061738d81617367565b92915050565b600080604083850312156173aa576173a96160f4565b5b60006173b885828601616147565b92505060206173c98582860161737e565b9150509250929050565b600080604083850312156173ea576173e96160f4565b5b60006173f88582860161654c565b925050602061740985828601616ad4565b9150509250929050565b600061741e8261611e565b9050919050565b61742e81617413565b811461743957600080fd5b50565b60008135905061744b81617425565b92915050565b600060208284031215617467576174666160f4565b5b60006174758482850161743c565b91505092915050565b60006174898261611e565b9050919050565b6174998161747e565b81146174a457600080fd5b50565b6000813590506174b681617490565b92915050565b60006174c78261611e565b9050919050565b6174d7816174bc565b81146174e257600080fd5b50565b6000813590506174f4816174ce565b92915050565b600080600060608486031215617513576175126160f4565b5b6000617521868287016174a7565b9350506020617532868287016174e5565b92505060406175438682870161670d565b9150509250925092565b60006020820190506175626000830184616248565b92915050565b60008060008060008060a08789031215617585576175846160f4565b5b600061759389828a0161654c565b965050602087013567ffffffffffffffff8111156175b4576175b36160f9565b5b6175c089828a01617262565b955095505060406175d389828a01616147565b93505060606175e489828a01616ad4565b92505060806175f589828a01616578565b9150509295509295509295565b6000806000806080858703121561761c5761761b6160f4565b5b600061762a8782880161654c565b945050602061763b87828801616147565b935050604061764c87828801616147565b925050606061765d87828801616578565b91505092959194509250565b600081519050919050565b600082825260208201905092915050565b6000819050602082019050919050565b600082825260208201905092915050565b60006176b18261636c565b6176bb8185617695565b93506176cb818560208601616388565b6176d4816163b2565b840191505092915050565b60006176eb83836176a6565b905092915050565b6000602082019050919050565b600061770b82617669565b6177158185617674565b93508360208202850161772785617685565b8060005b85811015617763578484038952815161774485826176df565b945061774f836176f3565b925060208a0199505060018101905061772b565b50829750879550505050505092915050565b6000602082019050818103600083015261778f8184617700565b905092915050565b6000806000606084860312156177b0576177af6160f4565b5b60006177be8682870161654c565b93505060206177cf8682870161654c565b92505060406177e086828701616147565b9150509250925092565b60008060008060608587031215617804576178036160f4565b5b600085013567ffffffffffffffff811115617822576178216160f9565b5b61782e87828801617262565b9450945050602061784187828801616147565b925050604061785287828801616147565b91505092959194509250565b60008060408385031215617875576178746160f4565b5b600061788385828601616147565b925050602061789485828601616147565b9150509250929050565b600080600080606085870312156178b8576178b76160f4565b5b600085013567ffffffffffffffff8111156178d6576178d56160f9565b5b6178e2878288016165dc565b945094505060206178f587828801616147565b925050604061790687828801616147565b91505092959194509250565b60008060008060006080868803121561792e5761792d6160f4565b5b600061793c8882890161654c565b955050602086013567ffffffffffffffff81111561795d5761795c6160f9565b5b61796988828901617262565b9450945050604061797c88828901616147565b925050606061798d88828901616147565b9150509295509295909350565b600080600080600060a086880312156179b6576179b56160f4565b5b60006179c488828901616147565b95505060206179d588828901616147565b94505060406179e68882890161617d565b93505060606179f78882890161617d565b925050608086013567ffffffffffffffff811115617a1857617a176160f9565b5b617a2488828901616d43565b9150509295509295909350565b60008060008060008060a08789031215617a4e57617a4d6160f4565b5b600087013567ffffffffffffffff811115617a6c57617a6b6160f9565b5b617a7889828a01617262565b96509650506020617a8b89828a01616147565b9450506040617a9c89828a01616ad4565b9350506060617aad89828a01616578565b9250506080617abe89828a01616147565b9150509295509295509295565b6000602082019050617ae0600083018461626b565b92915050565b7f455243313135353a2062616c616e636520717565727920666f7220746865207a60008201527f65726f2061646472657373000000000000000000000000000000000000000000602082015250565b6000617b42602b83616377565b9150617b4d82617ae6565b604082019050919050565b60006020820190508181036000830152617b7181617b35565b9050919050565b6000617b8b617b8684616a0d565b6169f2565b905082815260208101848484011115617ba757617ba661698d565b5b617bb2848285616388565b509392505050565b600082601f830112617bcf57617bce6165cd565b5b8151617bdf848260208601617b78565b91505092915050565b600060208284031215617bfe57617bfd6160f4565b5b600082015167ffffffffffffffff811115617c1c57617c1b6160f9565b5b617c2884828501617bba565b91505092915050565b6000604082019050617c466000830185616ba7565b617c536020830184616229565b9392505050565b6000604082019050617c6f6000830185616ba7565b617c7c602083018461626b565b9392505050565b6000617c8e826160fe565b9050919050565b617c9e81617c83565b8114617ca957600080fd5b50565b600081359050617cbb81617c95565b92915050565b600080600080600060a08688031215617cdd57617cdc6160f4565b5b600086013567ffffffffffffffff811115617cfb57617cfa6160f9565b5b617d0788828901616a8f565b9550506020617d1888828901617cac565b9450506040617d2988828901616ad4565b9350506060617d3a88828901616578565b9250506080617d4b88828901617cac565b9150509295509295909350565b6000604082019050617d6d6000830185616ba7565b617d7a6020830184616ba7565b9392505050565b6000604082019050617d9660008301856161d2565b617da36020830184616229565b9392505050565b7f4e487b7100000000000000000000000000000000000000000000000000000000600052602260045260246000fd5b60006002820490506001821680617df157607f821691505b602082108103617e0457617e03617daa565b5b50919050565b600081519050617e1981616130565b92915050565b600060208284031215617e3557617e346160f4565b5b6000617e4384828501617e0a565b91505092915050565b600060a082019050617e616000830188616ba7565b617e6e6020830187616ba7565b617e7b6040830186616229565b617e886060830185616229565b617e95608083018461626b565b9695505050505050565b7f4e487b7100000000000000000000000000000000000000000000000000000000600052603260045260246000fd5b7f4e487b7100000000000000000000000000000000000000000000000000000000600052601160045260246000fd5b6000617f088261615c565b91507fffffffffffffffffffffffffffffffffffffffffffffffffffffffffffffffff8203617f3a57617f39617ece565b5b600182019050919050565b600081519050617f5481616166565b92915050565b600060208284031215617f7057617f6f6160f4565b5b6000617f7e84828501617f45565b91505092915050565b7f436f6e74726f6c6c61626c653a2043616c6c6572206973206e6f74206120636f60008201527f6e74726f6c6c6572000000000000000000000000000000000000000000000000602082015250565b6000617fe3602883616377565b9150617fee82617f87565b604082019050919050565b6000602082019050818103600083015261801281617fd6565b9050919050565b600060408201905061802e60008301856161d2565b61803b60208301846161d2565b9392505050565b7f455243313135353a206163636f756e747320616e6420696473206c656e67746860008201527f206d69736d617463680000000000000000000000000000000000000000000000602082015250565b600061809e602983616377565b91506180a982618042565b604082019050919050565b600060208201905081810360008301526180cd81618091565b9050919050565b60006040820190506180e96000830185616229565b6180f660208301846161d2565b9392505050565b60008151905061810c81617367565b92915050565b600060208284031215618128576181276160f4565b5b6000618136848285016180fd565b91505092915050565b60006060820190506181546000830186616229565b6181616020830185616229565b61816e60408301846161d2565b949350505050565b600081905092915050565b600061818d8385618176565b935061819a838584616a3e565b82840190509392505050565b60006181b3828486618181565b91508190509392505050565b60006060820190506181d460008301866161d2565b6181e16020830185616229565b6181ee60408301846161d2565b949350505050565b600060408201905061820b6000830185616229565b6182186020830184616342565b9392505050565b7f496e697469616c697a61626c653a20636f6e747261637420697320616c72656160008201527f647920696e697469616c697a6564000000000000000000000000000000000000602082015250565b600061827b602e83616377565b91506182868261821f565b604082019050919050565b600060208201905081810360008301526182aa8161826e565b9050919050565b6000819050919050565b600060ff82169050919050565b60006182e36182de6182d9846182b1565b61678f565b6182bb565b9050919050565b6182f3816182c8565b82525050565b600060208201905061830e60008301846182ea565b92915050565b60006060820190506183296000830186616ba7565b6183366020830185616ba7565b6183436040830184616229565b949350505050565b60008151905061835a81616535565b92915050565b600060208284031215618376576183756160f4565b5b60006183848482850161834b565b91505092915050565b60006080820190506183a26000830187616ba7565b6183af6020830186616229565b6183bc6040830185616229565b6183c9606083018461626b565b95945050505050565b60006183de8385616377565b93506183eb838584616a3e565b6183f4836163b2565b840190509392505050565b600060a082019050818103600083015261841a81888a6183d2565b90506184296020830187616229565b6184366040830186616248565b618443606083018561626b565b6184506080830184616229565b979650505050505050565b60006040820190506184706000830185616229565b61847d6020830184616229565b9392505050565b6000819050919050565b60006184a96184a461849f84618484565b61678f565b616257565b9050919050565b6184b98161848e565b82525050565b600060e0820190506184d4600083018b616ba7565b81810360208301526184e781898b6183d2565b90506184f66040830188616229565b6185036060830187616229565b61851060808301866184b0565b61851d60a0830185616248565b61852a60c083018461626b565b9998505050505050505050565b7f4f776e61626c653a206e6577206f776e657220697320746865207a65726f206160008201527f6464726573730000000000000000000000000000000000000000000000000000602082015250565b6000618593602683616377565b915061859e82618537565b604082019050919050565b600060208201905081810360008301526185c281618586565b9050919050565b7f4f776e61626c653a2063616c6c6572206973206e6f7420746865206f776e6572600082015250565b60006185ff602083616377565b915061860a826185c9565b602082019050919050565b6000602082019050818103600083015261862e816185f2565b9050919050565b6000819050919050565b61865061864b8261652b565b618635565b82525050565b6000618662828561863f565b602082019150618672828461863f565b6020820191508190509392505050565b60008190508160005260206000209050919050565b60006020601f8301049050919050565b600082821b905092915050565b6000600883026186e47fffffffffffffffffffffffffffffffffffffffffffffffffffffffffffffffff826186a7565b6186ee86836186a7565b95508019841693508086168417925050509392505050565b600061872161871c6187178461615c565b61678f565b61615c565b9050919050565b6000819050919050565b61873b83618706565b61874f61874782618728565b8484546186b4565b825550505050565b600090565b618764618757565b61876f818484618732565b505050565b5b818110156187935761878860008261875c565b600181019050618775565b5050565b601f8211156187d8576187a981618682565b6187b284618697565b810160208510156187c1578190505b6187d56187cd85618697565b830182618774565b50505b505050565b600082821c905092915050565b60006187fb600019846008026187dd565b1980831691505092915050565b600061881483836187ea565b9150826002028217905092915050565b61882d82616836565b67ffffffffffffffff81111561884657618845616992565b5b6188508254617dd9565b61885b828285618797565b600060209050601f83116001811461888e576000841561887c578287015190505b6188868582618808565b8655506188ee565b601f19841661889c86618682565b60005b828110156188c45784890151825560018201915060208501945060208101905061889f565b868310156188e157848901516188dd601f8916826187ea565b8355505b6001600288020188555050505b505050505050565b7f455243313135353a2069647320616e6420616d6f756e7473206c656e6774682060008201527f6d69736d61746368000000000000000000000000000000000000000000000000602082015250565b6000618952602883616377565b915061895d826188f6565b604082019050919050565b6000602082019050818103600083015261898181618945565b9050919050565b7f455243313135353a207472616e7366657220746f20746865207a65726f20616460008201527f6472657373000000000000000000000000000000000000000000000000000000602082015250565b60006189e4602583616377565b91506189ef82618988565b604082019050919050565b60006020820190508181036000830152618a13816189d7565b9050919050565b7f455243313135353a207472616e736665722063616c6c6572206973206e6f742060008201527f6f776e6572206e6f7220617070726f7665640000000000000000000000000000602082015250565b6000618a76603283616377565b9150618a8182618a1a565b604082019050919050565b60006020820190508181036000830152618aa581618a69565b9050919050565b7f455243313135353a20696e73756666696369656e742062616c616e636520666f60008201527f72207472616e7366657200000000000000000000000000000000000000000000602082015250565b6000618b08602a83616377565b9150618b1382618aac565b604082019050919050565b60006020820190508181036000830152618b3781618afb565b9050919050565b60006040820190508181036000830152618b5881856170e5565b90508181036020830152618b6c81846170e5565b90509392505050565b6000604082019050618b8a6000830185616248565b618b97602083018461626b565b9392505050565b7f455243313135353a2073657474696e6720617070726f76616c2073746174757360008201527f20666f722073656c660000000000000000000000000000000000000000000000602082015250565b6000618bfa602983616377565b9150618c0582618b9e565b604082019050919050565b60006020820190508181036000830152618c2981618bed565b9050919050565b618c398261636c565b67ffffffffffffffff811115618c5257618c51616992565b5b618c5c8254617dd9565b618c67828285618797565b600060209050601f831160018114618c9a5760008415618c88578287015190505b618c928582618808565b865550618cfa565b601f198416618ca886618682565b60005b82811015618cd057848901518255600182019150602085019450602081019050618cab565b86831015618ced5784890151618ce9601f8916826187ea565b8355505b6001600288020188555050505b505050505050565b7f726561644c6162656c3a20496e646578206f7574206f6620626f756e64730000600082015250565b6000618d38601e83616377565b9150618d4382618d02565b602082019050919050565b60006020820190508181036000830152618d6781618d2b565b9050919050565b6000618d798261615c565b9150618d848361615c565b9250828201905080821115618d9c57618d9b617ece565b5b92915050565b6000618dad8261615c565b9150618db88361615c565b9250828203905081811115618dd057618dcf617ece565b5b92915050565b7f6e616d65686173683a204a756e6b20617420656e64206f66206e616d65000000600082015250565b6000618e0c601d83616377565b9150618e1782618dd6565b602082019050919050565b60006020820190508181036000830152618e3b81618dff565b9050919050565b60006080820190508181036000830152618e5c8187616852565b9050618e6b6020830186616229565b618e786040830185616248565b618e85606083018461626b565b95945050505050565b7f455243313135353a2063616c6c6572206973206e6f74206f776e6572206e6f7260008201527f20617070726f7665640000000000000000000000000000000000000000000000602082015250565b6000618eea602983616377565b9150618ef582618e8e565b604082019050919050565b60006020820190508181036000830152618f1981618edd565b9050919050565b60008160f81b9050919050565b6000618f3882618f20565b9050919050565b618f50618f4b826182bb565b618f2d565b82525050565b600081905092915050565b6000618f6c8261636c565b618f768185618f56565b9350618f86818560208601616388565b80840191505092915050565b6000618f9d82616836565b618fa78185618176565b9350618fb7818560208601616388565b80840191505092915050565b6000618fcf8286618f3f565b600182019150618fdf8285618f61565b9150618feb8284618f92565b9150819050949350505050565b600060a08201905061900d6000830188616229565b61901a6020830187616229565b818103604083015261902c81866170e5565b9050818103606083015261904081856170e5565b905081810360808301526190548184616852565b90509695505050505050565b60008151905061906f816162dd565b92915050565b60006020828403121561908b5761908a6160f4565b5b600061909984828501619060565b91505092915050565b60008160e01c9050919050565b600060033d11156190ce5760046000803e6190cb6000516190a2565b90505b90565b600060443d1061915e576190e36160ea565b60043d036004823e80513d602482011167ffffffffffffffff8211171561910b57505061915e565b808201805167ffffffffffffffff811115619129575050505061915e565b80602083010160043d03850181111561914657505050505061915e565b619155826020018501866169c1565b82955050505050505b90565b7f455243313135353a207472616e7366657220746f206e6f6e204552433131353560008201527f526563656976657220696d706c656d656e746572000000000000000000000000602082015250565b60006191bd603483616377565b91506191c882619161565b604082019050919050565b600060208201905081810360008301526191ec816191b0565b9050919050565b7f455243313135353a204552433131353552656365697665722072656a6563746560008201527f6420746f6b656e73000000000000000000000000000000000000000000000000602082015250565b600061924f602883616377565b915061925a826191f3565b604082019050919050565b6000602082019050818103600083015261927e81619242565b9050919050565b7f4e487b7100000000000000000000000000000000000000000000000000000000600052603160045260246000fd5b600060a0820190506192c96000830188616229565b6192d66020830187616229565b6192e360408301866161d2565b6192f060608301856161d2565b81810360808301526193028184616852565b90509695505050505050565b600061932961932461931f846182b1565b61678f565b61615c565b9050919050565b6193398161930e565b82525050565b600060408201905061935460008301856161d2565b6193616020830184619330565b9392505050565b7f455243313135353a206d696e74206f66206578697374696e6720746f6b656e00600082015250565b600061939e601f83616377565b91506193a982619368565b602082019050919050565b600060208201905081810360008301526193cd81619391565b9050919050565b7f455243313135353a206d696e7420746f20746865207a65726f2061646472657360008201527f7300000000000000000000000000000000000000000000000000000000000000602082015250565b6000619430602183616377565b915061943b826193d4565b604082019050919050565b6000602082019050818103600083015261945f81619423565b9050919050565b7f455243313135353a206e65774f776e65722063616e6e6f74206265207468652060008201527f4e616d655772617070657220636f6e7472616374000000000000000000000000602082015250565b60006194c2603483616377565b91506194cd82619466565b604082019050919050565b600060208201905081810360008301526194f1816194b5565b905091905056fea264697066735822122098f717f218b58438d95816a2bb67a632137ec653b662b00eaa0ecc03c93adcf564736f6c63430008110033",
  "linkReferences": {},
  "deployedLinkReferences": {}
}