{
  "_format": "hh-sol-artifact-1",
  "contractName": "PublicResolver",
  "sourceName": "@ensdomains/ens-contracts/contracts/resolvers/PublicResolver.sol",
  "abi": [
    {
      "inputs": [
        {
          "internalType": "contract ENS",
          "name": "_ens",
          "type": "address"
        },
        {
          "internalType": "contract INameWrapper",
          "name": "wrapperAddress",
          "type": "address"
        },
        {
          "internalType": "address",
          "name": "_trustedETHController",
          "type": "address"
        },
        {
          "internalType": "address",
          "name": "_trustedReverseRegistrar",
          "type": "address"
        }
      ],
      "stateMutability": "nonpayable",
      "type": "constructor"
    },
    {
      "anonymous": false,
      "inputs": [
        {
          "indexed": true,
          "internalType": "bytes32",
          "name": "node",
          "type": "bytes32"
        },
        {
          "indexed": true,
          "internalType": "uint256",
          "name": "contentType",
          "type": "uint256"
        }
      ],
      "name": "ABIChanged",
      "type": "event"
    },
    {
      "anonymous": false,
      "inputs": [
        {
          "indexed": true,
          "internalType": "bytes32",
          "name": "node",
          "type": "bytes32"
        },
        {
          "indexed": false,
          "internalType": "address",
          "name": "a",
          "type": "address"
        }
      ],
      "name": "AddrChanged",
      "type": "event"
    },
    {
      "anonymous": false,
      "inputs": [
        {
          "indexed": true,
          "internalType": "bytes32",
          "name": "node",
          "type": "bytes32"
        },
        {
          "indexed": false,
          "internalType": "uint256",
          "name": "coinType",
          "type": "uint256"
        },
        {
          "indexed": false,
          "internalType": "bytes",
          "name": "newAddress",
          "type": "bytes"
        }
      ],
      "name": "AddressChanged",
      "type": "event"
    },
    {
      "anonymous": false,
      "inputs": [
        {
          "indexed": true,
          "internalType": "address",
          "name": "owner",
          "type": "address"
        },
        {
          "indexed": true,
          "internalType": "address",
          "name": "operator",
          "type": "address"
        },
        {
          "indexed": false,
          "internalType": "bool",
          "name": "approved",
          "type": "bool"
        }
      ],
      "name": "ApprovalForAll",
      "type": "event"
    },
    {
      "anonymous": false,
      "inputs": [
        {
          "indexed": true,
          "internalType": "bytes32",
          "name": "node",
          "type": "bytes32"
        },
        {
          "indexed": false,
          "internalType": "bytes",
          "name": "hash",
          "type": "bytes"
        }
      ],
      "name": "ContenthashChanged",
      "type": "event"
    },
    {
      "anonymous": false,
      "inputs": [
        {
          "indexed": true,
          "internalType": "bytes32",
          "name": "node",
          "type": "bytes32"
        },
        {
          "indexed": false,
          "internalType": "bytes",
          "name": "name",
          "type": "bytes"
        },
        {
          "indexed": false,
          "internalType": "uint16",
          "name": "resource",
          "type": "uint16"
        },
        {
          "indexed": false,
          "internalType": "bytes",
          "name": "record",
          "type": "bytes"
        }
      ],
      "name": "DNSRecordChanged",
      "type": "event"
    },
    {
      "anonymous": false,
      "inputs": [
        {
          "indexed": true,
          "internalType": "bytes32",
          "name": "node",
          "type": "bytes32"
        },
        {
          "indexed": false,
          "internalType": "bytes",
          "name": "name",
          "type": "bytes"
        },
        {
          "indexed": false,
          "internalType": "uint16",
          "name": "resource",
          "type": "uint16"
        }
      ],
      "name": "DNSRecordDeleted",
      "type": "event"
    },
    {
      "anonymous": false,
      "inputs": [
        {
          "indexed": true,
          "internalType": "bytes32",
          "name": "node",
          "type": "bytes32"
        },
        {
          "indexed": false,
          "internalType": "bytes",
          "name": "lastzonehash",
          "type": "bytes"
        },
        {
          "indexed": false,
          "internalType": "bytes",
          "name": "zonehash",
          "type": "bytes"
        }
      ],
      "name": "DNSZonehashChanged",
      "type": "event"
    },
    {
      "anonymous": false,
      "inputs": [
        {
          "indexed": true,
          "internalType": "bytes32",
          "name": "node",
          "type": "bytes32"
        },
        {
          "indexed": true,
          "internalType": "bytes4",
          "name": "interfaceID",
          "type": "bytes4"
        },
        {
          "indexed": false,
          "internalType": "address",
          "name": "implementer",
          "type": "address"
        }
      ],
      "name": "InterfaceChanged",
      "type": "event"
    },
    {
      "anonymous": false,
      "inputs": [
        {
          "indexed": true,
          "internalType": "bytes32",
          "name": "node",
          "type": "bytes32"
        },
        {
          "indexed": false,
          "internalType": "string",
          "name": "name",
          "type": "string"
        }
      ],
      "name": "NameChanged",
      "type": "event"
    },
    {
      "anonymous": false,
      "inputs": [
        {
          "indexed": true,
          "internalType": "bytes32",
          "name": "node",
          "type": "bytes32"
        },
        {
          "indexed": false,
          "internalType": "bytes32",
          "name": "x",
          "type": "bytes32"
        },
        {
          "indexed": false,
          "internalType": "bytes32",
          "name": "y",
          "type": "bytes32"
        }
      ],
      "name": "PubkeyChanged",
      "type": "event"
    },
    {
      "anonymous": false,
      "inputs": [
        {
          "indexed": true,
          "internalType": "bytes32",
          "name": "node",
          "type": "bytes32"
        },
        {
          "indexed": true,
          "internalType": "string",
          "name": "indexedKey",
          "type": "string"
        },
        {
          "indexed": false,
          "internalType": "string",
          "name": "key",
          "type": "string"
        },
        {
          "indexed": false,
          "internalType": "string",
          "name": "value",
          "type": "string"
        }
      ],
      "name": "TextChanged",
      "type": "event"
    },
    {
      "anonymous": false,
      "inputs": [
        {
          "indexed": true,
          "internalType": "bytes32",
          "name": "node",
          "type": "bytes32"
        },
        {
          "indexed": false,
          "internalType": "uint64",
          "name": "newVersion",
          "type": "uint64"
        }
      ],
      "name": "VersionChanged",
      "type": "event"
    },
    {
      "inputs": [
        {
          "internalType": "bytes32",
          "name": "node",
          "type": "bytes32"
        },
        {
          "internalType": "uint256",
          "name": "contentTypes",
          "type": "uint256"
        }
      ],
      "name": "ABI",
      "outputs": [
        {
          "internalType": "uint256",
          "name": "",
          "type": "uint256"
        },
        {
          "internalType": "bytes",
          "name": "",
          "type": "bytes"
        }
      ],
      "stateMutability": "view",
      "type": "function"
    },
    {
      "inputs": [
        {
          "internalType": "bytes32",
          "name": "node",
          "type": "bytes32"
        }
      ],
      "name": "addr",
      "outputs": [
        {
          "internalType": "address payable",
          "name": "",
          "type": "address"
        }
      ],
      "stateMutability": "view",
      "type": "function"
    },
    {
      "inputs": [
        {
          "internalType": "bytes32",
          "name": "node",
          "type": "bytes32"
        },
        {
          "internalType": "uint256",
          "name": "coinType",
          "type": "uint256"
        }
      ],
      "name": "addr",
      "outputs": [
        {
          "internalType": "bytes",
          "name": "",
          "type": "bytes"
        }
      ],
      "stateMutability": "view",
      "type": "function"
    },
    {
      "inputs": [
        {
          "internalType": "bytes32",
          "name": "node",
          "type": "bytes32"
        }
      ],
      "name": "clearRecords",
      "outputs": [],
      "stateMutability": "nonpayable",
      "type": "function"
    },
    {
      "inputs": [
        {
          "internalType": "bytes32",
          "name": "node",
          "type": "bytes32"
        }
      ],
      "name": "contenthash",
      "outputs": [
        {
          "internalType": "bytes",
          "name": "",
          "type": "bytes"
        }
      ],
      "stateMutability": "view",
      "type": "function"
    },
    {
      "inputs": [
        {
          "internalType": "bytes32",
          "name": "node",
          "type": "bytes32"
        },
        {
          "internalType": "bytes32",
          "name": "name",
          "type": "bytes32"
        },
        {
          "internalType": "uint16",
          "name": "resource",
          "type": "uint16"
        }
      ],
      "name": "dnsRecord",
      "outputs": [
        {
          "internalType": "bytes",
          "name": "",
          "type": "bytes"
        }
      ],
      "stateMutability": "view",
      "type": "function"
    },
    {
      "inputs": [
        {
          "internalType": "bytes32",
          "name": "node",
          "type": "bytes32"
        },
        {
          "internalType": "bytes32",
          "name": "name",
          "type": "bytes32"
        }
      ],
      "name": "hasDNSRecords",
      "outputs": [
        {
          "internalType": "bool",
          "name": "",
          "type": "bool"
        }
      ],
      "stateMutability": "view",
      "type": "function"
    },
    {
      "inputs": [
        {
          "internalType": "bytes32",
          "name": "node",
          "type": "bytes32"
        },
        {
          "internalType": "bytes4",
          "name": "interfaceID",
          "type": "bytes4"
        }
      ],
      "name": "interfaceImplementer",
      "outputs": [
        {
          "internalType": "address",
          "name": "",
          "type": "address"
        }
      ],
      "stateMutability": "view",
      "type": "function"
    },
    {
      "inputs": [
        {
          "internalType": "address",
          "name": "account",
          "type": "address"
        },
        {
          "internalType": "address",
          "name": "operator",
          "type": "address"
        }
      ],
      "name": "isApprovedForAll",
      "outputs": [
        {
          "internalType": "bool",
          "name": "",
          "type": "bool"
        }
      ],
      "stateMutability": "view",
      "type": "function"
    },
    {
      "inputs": [
        {
          "internalType": "bytes[]",
          "name": "data",
          "type": "bytes[]"
        }
      ],
      "name": "multicall",
      "outputs": [
        {
          "internalType": "bytes[]",
          "name": "results",
          "type": "bytes[]"
        }
      ],
      "stateMutability": "nonpayable",
      "type": "function"
    },
    {
      "inputs": [
        {
          "internalType": "bytes32",
          "name": "nodehash",
          "type": "bytes32"
        },
        {
          "internalType": "bytes[]",
          "name": "data",
          "type": "bytes[]"
        }
      ],
      "name": "multicallWithNodeCheck",
      "outputs": [
        {
          "internalType": "bytes[]",
          "name": "results",
          "type": "bytes[]"
        }
      ],
      "stateMutability": "nonpayable",
      "type": "function"
    },
    {
      "inputs": [
        {
          "internalType": "bytes32",
          "name": "node",
          "type": "bytes32"
        }
      ],
      "name": "name",
      "outputs": [
        {
          "internalType": "string",
          "name": "",
          "type": "string"
        }
      ],
      "stateMutability": "view",
      "type": "function"
    },
    {
      "inputs": [
        {
          "internalType": "bytes32",
          "name": "node",
          "type": "bytes32"
        }
      ],
      "name": "pubkey",
      "outputs": [
        {
          "internalType": "bytes32",
          "name": "x",
          "type": "bytes32"
        },
        {
          "internalType": "bytes32",
          "name": "y",
          "type": "bytes32"
        }
      ],
      "stateMutability": "view",
      "type": "function"
    },
    {
      "inputs": [
        {
          "internalType": "bytes32",
          "name": "",
          "type": "bytes32"
        }
      ],
      "name": "recordVersions",
      "outputs": [
        {
          "internalType": "uint64",
          "name": "",
          "type": "uint64"
        }
      ],
      "stateMutability": "view",
      "type": "function"
    },
    {
      "inputs": [
        {
          "internalType": "bytes32",
          "name": "node",
          "type": "bytes32"
        },
        {
          "internalType": "uint256",
          "name": "contentType",
          "type": "uint256"
        },
        {
          "internalType": "bytes",
          "name": "data",
          "type": "bytes"
        }
      ],
      "name": "setABI",
      "outputs": [],
      "stateMutability": "nonpayable",
      "type": "function"
    },
    {
      "inputs": [
        {
          "internalType": "bytes32",
          "name": "node",
          "type": "bytes32"
        },
        {
          "internalType": "uint256",
          "name": "coinType",
          "type": "uint256"
        },
        {
          "internalType": "bytes",
          "name": "a",
          "type": "bytes"
        }
      ],
      "name": "setAddr",
      "outputs": [],
      "stateMutability": "nonpayable",
      "type": "function"
    },
    {
      "inputs": [
        {
          "internalType": "bytes32",
          "name": "node",
          "type": "bytes32"
        },
        {
          "internalType": "address",
          "name": "a",
          "type": "address"
        }
      ],
      "name": "setAddr",
      "outputs": [],
      "stateMutability": "nonpayable",
      "type": "function"
    },
    {
      "inputs": [
        {
          "internalType": "address",
          "name": "operator",
          "type": "address"
        },
        {
          "internalType": "bool",
          "name": "approved",
          "type": "bool"
        }
      ],
      "name": "setApprovalForAll",
      "outputs": [],
      "stateMutability": "nonpayable",
      "type": "function"
    },
    {
      "inputs": [
        {
          "internalType": "bytes32",
          "name": "node",
          "type": "bytes32"
        },
        {
          "internalType": "bytes",
          "name": "hash",
          "type": "bytes"
        }
      ],
      "name": "setContenthash",
      "outputs": [],
      "stateMutability": "nonpayable",
      "type": "function"
    },
    {
      "inputs": [
        {
          "internalType": "bytes32",
          "name": "node",
          "type": "bytes32"
        },
        {
          "internalType": "bytes",
          "name": "data",
          "type": "bytes"
        }
      ],
      "name": "setDNSRecords",
      "outputs": [],
      "stateMutability": "nonpayable",
      "type": "function"
    },
    {
      "inputs": [
        {
          "internalType": "bytes32",
          "name": "node",
          "type": "bytes32"
        },
        {
          "internalType": "bytes4",
          "name": "interfaceID",
          "type": "bytes4"
        },
        {
          "internalType": "address",
          "name": "implementer",
          "type": "address"
        }
      ],
      "name": "setInterface",
      "outputs": [],
      "stateMutability": "nonpayable",
      "type": "function"
    },
    {
      "inputs": [
        {
          "internalType": "bytes32",
          "name": "node",
          "type": "bytes32"
        },
        {
          "internalType": "string",
          "name": "newName",
          "type": "string"
        }
      ],
      "name": "setName",
      "outputs": [],
      "stateMutability": "nonpayable",
      "type": "function"
    },
    {
      "inputs": [
        {
          "internalType": "bytes32",
          "name": "node",
          "type": "bytes32"
        },
        {
          "internalType": "bytes32",
          "name": "x",
          "type": "bytes32"
        },
        {
          "internalType": "bytes32",
          "name": "y",
          "type": "bytes32"
        }
      ],
      "name": "setPubkey",
      "outputs": [],
      "stateMutability": "nonpayable",
      "type": "function"
    },
    {
      "inputs": [
        {
          "internalType": "bytes32",
          "name": "node",
          "type": "bytes32"
        },
        {
          "internalType": "string",
          "name": "key",
          "type": "string"
        },
        {
          "internalType": "string",
          "name": "value",
          "type": "string"
        }
      ],
      "name": "setText",
      "outputs": [],
      "stateMutability": "nonpayable",
      "type": "function"
    },
    {
      "inputs": [
        {
          "internalType": "bytes32",
          "name": "node",
          "type": "bytes32"
        },
        {
          "internalType": "bytes",
          "name": "hash",
          "type": "bytes"
        }
      ],
      "name": "setZonehash",
      "outputs": [],
      "stateMutability": "nonpayable",
      "type": "function"
    },
    {
      "inputs": [
        {
          "internalType": "bytes4",
          "name": "interfaceID",
          "type": "bytes4"
        }
      ],
      "name": "supportsInterface",
      "outputs": [
        {
          "internalType": "bool",
          "name": "",
          "type": "bool"
        }
      ],
      "stateMutability": "view",
      "type": "function"
    },
    {
      "inputs": [
        {
          "internalType": "bytes32",
          "name": "node",
          "type": "bytes32"
        },
        {
          "internalType": "string",
          "name": "key",
          "type": "string"
        }
      ],
      "name": "text",
      "outputs": [
        {
          "internalType": "string",
          "name": "",
          "type": "string"
        }
      ],
      "stateMutability": "view",
      "type": "function"
    },
    {
      "inputs": [
        {
          "internalType": "bytes32",
          "name": "node",
          "type": "bytes32"
        }
      ],
      "name": "zonehash",
      "outputs": [
        {
          "internalType": "bytes",
          "name": "",
          "type": "bytes"
        }
      ],
      "stateMutability": "view",
      "type": "function"
    }
  ],
  "bytecode": "0x6101006040523480156200001257600080fd5b506040516200518438038062005184833981810160405281019062000038919062000206565b8373ffffffffffffffffffffffffffffffffffffffff1660808173ffffffffffffffffffffffffffffffffffffffff16815250508273ffffffffffffffffffffffffffffffffffffffff1660a08173ffffffffffffffffffffffffffffffffffffffff16815250508173ffffffffffffffffffffffffffffffffffffffff1660c08173ffffffffffffffffffffffffffffffffffffffff16815250508073ffffffffffffffffffffffffffffffffffffffff1660e08173ffffffffffffffffffffffffffffffffffffffff16815250505050505062000278565b600080fd5b600073ffffffffffffffffffffffffffffffffffffffff82169050919050565b6000620001448262000117565b9050919050565b6000620001588262000137565b9050919050565b6200016a816200014b565b81146200017657600080fd5b50565b6000815190506200018a816200015f565b92915050565b60006200019d8262000137565b9050919050565b620001af8162000190565b8114620001bb57600080fd5b50565b600081519050620001cf81620001a4565b92915050565b620001e08162000137565b8114620001ec57600080fd5b50565b6000815190506200020081620001d5565b92915050565b6000806000806080858703121562000223576200022262000112565b5b6000620002338782880162000179565b94505060206200024687828801620001be565b93505060406200025987828801620001ef565b92505060606200026c87828801620001ef565b91505092959194509250565b60805160a05160c05160e051614ecb620002b96000396000612241015260006121ec01526000818161233d0152612390015260006122a10152614ecb6000f3fe608060405234801561001057600080fd5b50600436106101c45760003560e01c806377372213116100f9578063ce3decdc11610097578063e32954eb11610071578063e32954eb1461056f578063e59d895d1461059f578063e985e9c5146105bb578063f1cb7e06146105eb576101c4565b8063ce3decdc14610507578063d5fa2b0014610523578063d700ff331461053f576101c4565b8063a8fa5682116100d3578063a8fa568214610446578063ac9650d814610476578063bc1c58d1146104a6578063c8690233146104d6576101c4565b806377372213146103f25780638b95dd711461040e578063a22cb4651461042a576101c4565b80633603d7581161016657806359d1d43c1161014057806359d1d43c146103465780635c98042b14610376578063623195b0146103a6578063691f3431146103c2576101c4565b80633603d758146102ca5780633b3b57de146102e65780634cbf6ba414610316576101c4565b8063124a319c116101a2578063124a319c146102315780632203ab561461026157806329cd62ea14610292578063304e6ade146102ae576101c4565b806301ffc9a7146101c95780630af179d7146101f957806310f13a8c14610215575b600080fd5b6101e360048036038101906101de9190613555565b61061b565b6040516101f0919061359d565b60405180910390f35b610213600480360381019061020e9190613653565b61062d565b005b61022f600480360381019061022a9190613709565b61088c565b005b61024b6004803603810190610246919061379e565b610989565b604051610258919061381f565b60405180910390f35b61027b60048036038101906102769190613870565b610de4565b60405161028992919061394f565b60405180910390f35b6102ac60048036038101906102a7919061397f565b610f64565b005b6102c860048036038101906102c39190613653565b611041565b005b6102e460048036038101906102df91906139d2565b611102565b005b61030060048036038101906102fb91906139d2565b6111d4565b60405161030d9190613a20565b60405180910390f35b610330600480360381019061032b9190613a3b565b611209565b60405161033d919061359d565b60405180910390f35b610360600480360381019061035b9190613a7b565b611298565b60405161036d9190613b30565b60405180910390f35b610390600480360381019061038b91906139d2565b6113a8565b60405161039d9190613b52565b60405180910390f35b6103c060048036038101906103bb9190613b74565b611498565b005b6103dc60048036038101906103d791906139d2565b61157a565b6040516103e99190613b30565b60405180910390f35b61040c60048036038101906104079190613a7b565b61166a565b005b61042860048036038101906104239190613d18565b61172b565b005b610444600480360381019061043f9190613ddf565b611844565b005b610460600480360381019061045b9190613e59565b6119af565b60405161046d9190613b52565b60405180910390f35b610490600480360381019061048b9190613f02565b611acb565b60405161049d919061405b565b60405180910390f35b6104c060048036038101906104bb91906139d2565b611ae3565b6040516104cd9190613b52565b60405180910390f35b6104f060048036038101906104eb91906139d2565b611bd3565b6040516104fe92919061408c565b60405180910390f35b610521600480360381019061051c9190613653565b611c83565b005b61053d600480360381019061053891906140b5565b611e12565b005b610559600480360381019061055491906139d2565b611e3e565b6040516105669190614118565b60405180910390f35b61058960048036038101906105849190614133565b611e65565b604051610596919061405b565b60405180910390f35b6105b960048036038101906105b49190614193565b611e7b565b005b6105d560048036038101906105d091906141e6565b611fd8565b6040516105e2919061359d565b60405180910390f35b61060560048036038101906106009190613870565b61206c565b6040516106129190613b52565b60405180910390f35b60006106268261216e565b9050919050565b82610637816121e8565b61064057600080fd5b6000806060806000806000808b815260200190815260200160002060009054906101000a900467ffffffffffffffff16905060006106cc60008b8b8080601f016020809104026020016040519081016040528093929190818152602001838380828437600081840152601f19601f8201169050808301925050505050505061247790919063ffffffff16565b90505b6106d8816124a1565b61080e5760008761ffff160361073357806040015196506106f8816124b7565b94508460405160200161070b9190614262565b60405160208183030381529060405280519060200120925061072c816124ee565b9350610800565b600061073e826124b7565b9050816040015161ffff168861ffff1614158061076b5750610769818761252790919063ffffffff16565b155b156107fe576107d78c878a8e8e8080601f016020809104026020016040519081016040528093929190818152602001838380828437600081840152601f19601f820116905080830192505050505050508b8c88602001516107cc91906142a8565b60008c51148a61254e565b8160400151975081602001519650809550858051906020012093506107fb826124ee565b94505b505b610809816128d1565b6106cf565b506000845111156108805761087f8a85888c8c8080601f016020809104026020016040519081016040528093929190818152602001838380828437600081840152601f19601f82011690508083019250505050505050898a8f8f905061087491906142a8565b60008a51148861254e565b5b50505050505050505050565b84610896816121e8565b61089f57600080fd5b8282600a60008060008b815260200190815260200160002060009054906101000a900467ffffffffffffffff1667ffffffffffffffff1667ffffffffffffffff1681526020019081526020016000206000898152602001908152602001600020878760405161090f92919061430c565b9081526020016040518091039020918261092a92919061453c565b50848460405161093b92919061430c565b6040518091039020867f448bc014f1536726cf8d54ff3d6481ed3cbc683c2591ca204274009afa09b1a1878787876040516109799493929190614639565b60405180910390a3505050505050565b6000806007600080600087815260200190815260200160002060009054906101000a900467ffffffffffffffff1667ffffffffffffffff1667ffffffffffffffff16815260200190815260200160002060008581526020019081526020016000206000847bffffffffffffffffffffffffffffffffffffffffffffffffffffffff19167bffffffffffffffffffffffffffffffffffffffffffffffffffffffff1916815260200190815260200160002060009054906101000a900473ffffffffffffffffffffffffffffffffffffffff169050600073ffffffffffffffffffffffffffffffffffffffff168173ffffffffffffffffffffffffffffffffffffffff1614610a995780915050610dde565b6000610aa4856111d4565b9050600073ffffffffffffffffffffffffffffffffffffffff168173ffffffffffffffffffffffffffffffffffffffff1603610ae557600092505050610dde565b6000808273ffffffffffffffffffffffffffffffffffffffff167f01ffc9a700000000000000000000000000000000000000000000000000000000604051602401610b309190614683565b6040516020818303038152906040527f01ffc9a7000000000000000000000000000000000000000000000000000000007bffffffffffffffffffffffffffffffffffffffffffffffffffffffff19166020820180517bffffffffffffffffffffffffffffffffffffffffffffffffffffffff8381831617835250505050604051610bba9190614262565b600060405180830381855afa9150503d8060008114610bf5576040519150601f19603f3d011682016040523d82523d6000602084013e610bfa565b606091505b5091509150811580610c0d575060208151105b80610c5b5750600060f81b81601f81518110610c2c57610c2b61469e565b5b602001015160f81c60f81b7effffffffffffffffffffffffffffffffffffffffffffffffffffffffffffff1916145b15610c6d576000945050505050610dde565b8273ffffffffffffffffffffffffffffffffffffffff1686604051602401610c959190614683565b6040516020818303038152906040527f01ffc9a7000000000000000000000000000000000000000000000000000000007bffffffffffffffffffffffffffffffffffffffffffffffffffffffff19166020820180517bffffffffffffffffffffffffffffffffffffffffffffffffffffffff8381831617835250505050604051610d1f9190614262565b600060405180830381855afa9150503d8060008114610d5a576040519150601f19603f3d011682016040523d82523d6000602084013e610d5f565b606091505b508092508193505050811580610d76575060208151105b80610dc45750600060f81b81601f81518110610d9557610d9461469e565b5b602001015160f81c60f81b7effffffffffffffffffffffffffffffffffffffffffffffffffffffffffffff1916145b15610dd6576000945050505050610dde565b829450505050505b92915050565b6000606060006001600080600088815260200190815260200160002060009054906101000a900467ffffffffffffffff1667ffffffffffffffff1667ffffffffffffffff168152602001908152602001600020600086815260200190815260200160002090506000600190505b848111610f4457600085821614158015610e89575060008260008381526020019081526020016000208054610e859061435f565b9050115b15610f385780826000838152602001908152602001600020808054610ead9061435f565b80601f0160208091040260200160405190810160405280929190818152602001828054610ed99061435f565b8015610f265780601f10610efb57610100808354040283529160200191610f26565b820191906000526020600020905b815481529060010190602001808311610f0957829003601f168201915b50505050509050935093505050610f5d565b600181901b9050610e51565b5060006040518060200160405280600081525092509250505b9250929050565b82610f6e816121e8565b610f7757600080fd5b6040518060400160405280848152602001838152506009600080600088815260200190815260200160002060009054906101000a900467ffffffffffffffff1667ffffffffffffffff1667ffffffffffffffff16815260200190815260200160002060008681526020019081526020016000206000820151816000015560208201518160010155905050837f1d6f5e03d3f63eb58751986629a5439baee5079ff04f345becb66e23eb154e46848460405161103392919061408c565b60405180910390a250505050565b8261104b816121e8565b61105457600080fd5b82826003600080600089815260200190815260200160002060009054906101000a900467ffffffffffffffff1667ffffffffffffffff1667ffffffffffffffff168152602001908152602001600020600087815260200190815260200160002091826110c1929190614733565b50837fe379c1624ed7e714cc0937528a32359d69d5281337765313dba4e081b72d757884846040516110f4929190614830565b60405180910390a250505050565b8061110c816121e8565b61111557600080fd5b600080838152602001908152602001600020600081819054906101000a900467ffffffffffffffff168092919061114b90614854565b91906101000a81548167ffffffffffffffff021916908367ffffffffffffffff16021790555050817fc6621ccb8f3f5a04bb6502154b2caf6adf5983fe76dfef1cfc9c42e3579db44460008085815260200190815260200160002060009054906101000a900467ffffffffffffffff166040516111c89190614118565b60405180910390a25050565b6000806111e283603c61206c565b905060008151036111f7576000915050611204565b61120081612a17565b9150505b919050565b6000806006600080600087815260200190815260200160002060009054906101000a900467ffffffffffffffff1667ffffffffffffffff1667ffffffffffffffff1681526020019081526020016000206000858152602001908152602001600020600084815260200190815260200160002060009054906101000a900461ffff1661ffff161415905092915050565b6060600a600080600087815260200190815260200160002060009054906101000a900467ffffffffffffffff1667ffffffffffffffff1667ffffffffffffffff1681526020019081526020016000206000858152602001908152602001600020838360405161130892919061430c565b908152602001604051809103902080546113219061435f565b80601f016020809104026020016040519081016040528092919081815260200182805461134d9061435f565b801561139a5780601f1061136f5761010080835404028352916020019161139a565b820191906000526020600020905b81548152906001019060200180831161137d57829003601f168201915b505050505090509392505050565b60606004600080600085815260200190815260200160002060009054906101000a900467ffffffffffffffff1667ffffffffffffffff1667ffffffffffffffff168152602001908152602001600020600083815260200190815260200160002080546114139061435f565b80601f016020809104026020016040519081016040528092919081815260200182805461143f9061435f565b801561148c5780601f106114615761010080835404028352916020019161148c565b820191906000526020600020905b81548152906001019060200180831161146f57829003601f168201915b50505050509050919050565b836114a2816121e8565b6114ab57600080fd5b6000846001866114bb91906142a8565b16146114c657600080fd5b8282600160008060008a815260200190815260200160002060009054906101000a900467ffffffffffffffff1667ffffffffffffffff1667ffffffffffffffff168152602001908152602001600020600088815260200190815260200160002060008781526020019081526020016000209182611544929190614733565b5083857faa121bbeef5f32f5961a2a28966e769023910fc9479059ee3495d4c1a696efe360405160405180910390a35050505050565b60606008600080600085815260200190815260200160002060009054906101000a900467ffffffffffffffff1667ffffffffffffffff1667ffffffffffffffff168152602001908152602001600020600083815260200190815260200160002080546115e59061435f565b80601f01602080910402602001604051908101604052809291908181526020018280546116119061435f565b801561165e5780601f106116335761010080835404028352916020019161165e565b820191906000526020600020905b81548152906001019060200180831161164157829003601f168201915b50505050509050919050565b82611674816121e8565b61167d57600080fd5b82826008600080600089815260200190815260200160002060009054906101000a900467ffffffffffffffff1667ffffffffffffffff1667ffffffffffffffff168152602001908152602001600020600087815260200190815260200160002091826116ea92919061453c565b50837fb7d29e911041e8d9b843369e890bcb72c9388692ba48b65ac54e7214c4c348f7848460405161171d929190614884565b60405180910390a250505050565b82611735816121e8565b61173e57600080fd5b837f65412581168e88a1e60c6459d7f44ae83ad0832e670826c05a4e2476b57af752848460405161177092919061394f565b60405180910390a2603c83036117c157837f52d7d861f09ab3d26239d492e8968629f95e9e318cf0b73bfddc441522a15fd26117ab84612a17565b6040516117b891906148fd565b60405180910390a25b816002600080600088815260200190815260200160002060009054906101000a900467ffffffffffffffff1667ffffffffffffffff1667ffffffffffffffff16815260200190815260200160002060008681526020019081526020016000206000858152602001908152602001600020908161183d9190614918565b5050505050565b8173ffffffffffffffffffffffffffffffffffffffff163373ffffffffffffffffffffffffffffffffffffffff16036118b2576040517f08c379a00000000000000000000000000000000000000000000000000000000081526004016118a990614a5c565b60405180910390fd5b80600b60003373ffffffffffffffffffffffffffffffffffffffff1673ffffffffffffffffffffffffffffffffffffffff16815260200190815260200160002060008473ffffffffffffffffffffffffffffffffffffffff1673ffffffffffffffffffffffffffffffffffffffff16815260200190815260200160002060006101000a81548160ff0219169083151502179055508173ffffffffffffffffffffffffffffffffffffffff163373ffffffffffffffffffffffffffffffffffffffff167f17307eab39ab6107e8899845ad3d59bd9653f200f220920489ca2b5937696c31836040516119a3919061359d565b60405180910390a35050565b60606005600080600087815260200190815260200160002060009054906101000a900467ffffffffffffffff1667ffffffffffffffff1667ffffffffffffffff1681526020019081526020016000206000858152602001908152602001600020600084815260200190815260200160002060008361ffff1661ffff1681526020019081526020016000208054611a449061435f565b80601f0160208091040260200160405190810160405280929190818152602001828054611a709061435f565b8015611abd5780601f10611a9257610100808354040283529160200191611abd565b820191906000526020600020905b815481529060010190602001808311611aa057829003601f168201915b505050505090509392505050565b6060611adb6000801b8484612a3a565b905092915050565b60606003600080600085815260200190815260200160002060009054906101000a900467ffffffffffffffff1667ffffffffffffffff1667ffffffffffffffff16815260200190815260200160002060008381526020019081526020016000208054611b4e9061435f565b80601f0160208091040260200160405190810160405280929190818152602001828054611b7a9061435f565b8015611bc75780601f10611b9c57610100808354040283529160200191611bc7565b820191906000526020600020905b815481529060010190602001808311611baa57829003601f168201915b50505050509050919050565b600080600080600085815260200190815260200160002060009054906101000a900467ffffffffffffffff169050600960008267ffffffffffffffff1667ffffffffffffffff168152602001908152602001600020600085815260200190815260200160002060000154600960008367ffffffffffffffff1667ffffffffffffffff1681526020019081526020016000206000868152602001908152602001600020600101549250925050915091565b82611c8d816121e8565b611c9657600080fd5b600080600086815260200190815260200160002060009054906101000a900467ffffffffffffffff1690506000600460008367ffffffffffffffff1667ffffffffffffffff16815260200190815260200160002060008781526020019081526020016000208054611d069061435f565b80601f0160208091040260200160405190810160405280929190818152602001828054611d329061435f565b8015611d7f5780601f10611d5457610100808354040283529160200191611d7f565b820191906000526020600020905b815481529060010190602001808311611d6257829003601f168201915b505050505090508484600460008567ffffffffffffffff1667ffffffffffffffff16815260200190815260200160002060008981526020019081526020016000209182611dcd929190614733565b50857f8f15ed4b723ef428f250961da8315675b507046737e19319fc1a4d81bfe87f85828787604051611e0293929190614a7c565b60405180910390a2505050505050565b81611e1c816121e8565b611e2557600080fd5b611e3983603c611e3485612c09565b61172b565b505050565b60006020528060005260406000206000915054906101000a900467ffffffffffffffff1681565b6060611e72848484612a3a565b90509392505050565b82611e85816121e8565b611e8e57600080fd5b816007600080600088815260200190815260200160002060009054906101000a900467ffffffffffffffff1667ffffffffffffffff1667ffffffffffffffff16815260200190815260200160002060008681526020019081526020016000206000857bffffffffffffffffffffffffffffffffffffffffffffffffffffffff19167bffffffffffffffffffffffffffffffffffffffffffffffffffffffff1916815260200190815260200160002060006101000a81548173ffffffffffffffffffffffffffffffffffffffff021916908373ffffffffffffffffffffffffffffffffffffffff160217905550827bffffffffffffffffffffffffffffffffffffffffffffffffffffffff1916847f7c69f06bea0bdef565b709e93a147836b0063ba2dd89f02d0b7e8d931e6a6daa84604051611fca919061381f565b60405180910390a350505050565b6000600b60008473ffffffffffffffffffffffffffffffffffffffff1673ffffffffffffffffffffffffffffffffffffffff16815260200190815260200160002060008373ffffffffffffffffffffffffffffffffffffffff1673ffffffffffffffffffffffffffffffffffffffff16815260200190815260200160002060009054906101000a900460ff16905092915050565b60606002600080600086815260200190815260200160002060009054906101000a900467ffffffffffffffff1667ffffffffffffffff1667ffffffffffffffff1681526020019081526020016000206000848152602001908152602001600020600083815260200190815260200160002080546120e89061435f565b80601f01602080910402602001604051908101604052809291908181526020018280546121149061435f565b80156121615780601f1061213657610100808354040283529160200191612161565b820191906000526020600020905b81548152906001019060200180831161214457829003601f168201915b5050505050905092915050565b60007f59d1d43c000000000000000000000000000000000000000000000000000000007bffffffffffffffffffffffffffffffffffffffffffffffffffffffff1916827bffffffffffffffffffffffffffffffffffffffffffffffffffffffff191614806121e157506121e082612c6d565b5b9050919050565b60007f000000000000000000000000000000000000000000000000000000000000000073ffffffffffffffffffffffffffffffffffffffff163373ffffffffffffffffffffffffffffffffffffffff16148061228f57507f000000000000000000000000000000000000000000000000000000000000000073ffffffffffffffffffffffffffffffffffffffff163373ffffffffffffffffffffffffffffffffffffffff16145b1561229d5760019050612472565b60007f000000000000000000000000000000000000000000000000000000000000000073ffffffffffffffffffffffffffffffffffffffff166302571be3846040518263ffffffff1660e01b81526004016122f89190614ab5565b602060405180830381865afa158015612315573d6000803e3d6000fd5b505050506040513d601f19601f820116820180604052508101906123399190614ae5565b90507f000000000000000000000000000000000000000000000000000000000000000073ffffffffffffffffffffffffffffffffffffffff168173ffffffffffffffffffffffffffffffffffffffff160361242e577f000000000000000000000000000000000000000000000000000000000000000073ffffffffffffffffffffffffffffffffffffffff16636352211e8460001c6040518263ffffffff1660e01b81526004016123ea9190614b12565b602060405180830381865afa158015612407573d6000803e3d6000fd5b505050506040513d601f19601f8201168201806040525081019061242b9190614ae5565b90505b3373ffffffffffffffffffffffffffffffffffffffff168173ffffffffffffffffffffffffffffffffffffffff16148061246e575061246d8133611fd8565b5b9150505b919050565b61247f613441565b828160000181905250818160c001818152505061249b816128d1565b92915050565b6000816000015151826020015110159050919050565b60606124e782602001516124d384600001518560200151612ce7565b8460000151612d639092919063ffffffff16565b9050919050565b60606125208260a001518360a001518460c0015161250c91906142a8565b8460000151612d639092919063ffffffff16565b9050919050565b60008151835114801561254657506125458360008460008751612df8565b5b905092915050565b6000878051906020012090506000612571868689612d639092919063ffffffff16565b9050831561271f576000600560008567ffffffffffffffff1667ffffffffffffffff16815260200190815260200160002060008c8152602001908152602001600020600084815260200190815260200160002060008a61ffff1661ffff16815260200190815260200160002080546125e89061435f565b90501461267257600660008467ffffffffffffffff1667ffffffffffffffff16815260200190815260200160002060008b81526020019081526020016000206000838152602001908152602001600020600081819054906101000a900461ffff168092919061265690614b2d565b91906101000a81548161ffff021916908361ffff160217905550505b600560008467ffffffffffffffff1667ffffffffffffffff16815260200190815260200160002060008b8152602001908152602001600020600083815260200190815260200160002060008961ffff1661ffff16815260200190815260200160002060006126e0919061348c565b897f03528ed0c2a3ebc993b12ce3c16bb382f9c7d88ef7d8a1bf290eaf35955a12078a8a604051612712929190614b65565b60405180910390a26128c5565b6000600560008567ffffffffffffffff1667ffffffffffffffff16815260200190815260200160002060008c8152602001908152602001600020600084815260200190815260200160002060008a61ffff1661ffff168152602001908152602001600020805461278e9061435f565b90500361281857600660008467ffffffffffffffff1667ffffffffffffffff16815260200190815260200160002060008b81526020019081526020016000206000838152602001908152602001600020600081819054906101000a900461ffff16809291906127fc90614b95565b91906101000a81548161ffff021916908361ffff160217905550505b80600560008567ffffffffffffffff1667ffffffffffffffff16815260200190815260200160002060008c8152602001908152602001600020600084815260200190815260200160002060008a61ffff1661ffff16815260200190815260200160002090816128879190614918565b50897f52a608b3303a48862d07a73d82fa221318c0027fbbcfb1b2329bface3f19ff2b8a8a846040516128bc93929190614bbf565b60405180910390a25b50505050505050505050565b8060c0015181602001818152505080600001515181602001511015612a1457600061290482600001518360200151612ce7565b82602001516129139190614c04565b905061292c818360000151612e1c90919063ffffffff16565b826040019061ffff16908161ffff168152505060028161294c9190614c04565b9050612965818360000151612e1c90919063ffffffff16565b826060019061ffff16908161ffff16815250506002816129859190614c04565b905061299e818360000151612e4b90919063ffffffff16565b826080019063ffffffff16908163ffffffff16815250506004816129c29190614c04565b905060006129dd828460000151612e1c90919063ffffffff16565b61ffff1690506002826129f09190614c04565b9150818360a00181815250508082612a089190614c04565b8360c001818152505050505b50565b60006014825114612a2757600080fd5b600c6101000a6020830151049050919050565b60608282905067ffffffffffffffff811115612a5957612a58613bed565b5b604051908082528060200260200182016040528015612a8c57816020015b6060815260200190600190039081612a775790505b50905060005b83839050811015612c01576000801b8514612b31576000848483818110612abc57612abb61469e565b5b9050602002810190612ace9190614c47565b600490602492612ae093929190614cb4565b90612aeb9190614cef565b9050858114612b2f576040517f08c379a0000000000000000000000000000000000000000000000000000000008152600401612b2690614dc0565b60405180910390fd5b505b6000803073ffffffffffffffffffffffffffffffffffffffff16868685818110612b5e57612b5d61469e565b5b9050602002810190612b709190614c47565b604051612b7e929190614e05565b600060405180830381855af49150503d8060008114612bb9576040519150601f19603f3d011682016040523d82523d6000602084013e612bbe565b606091505b509150915081612bcd57600080fd5b80848481518110612be157612be061469e565b5b602002602001018190525050508080612bf990614e1e565b915050612a92565b509392505050565b6060601467ffffffffffffffff811115612c2657612c25613bed565b5b6040519080825280601f01601f191660200182016040528015612c585781602001600182028036833780820191505090505b509050600c6101000a82026020820152919050565b60007fc8690233000000000000000000000000000000000000000000000000000000007bffffffffffffffffffffffffffffffffffffffffffffffffffffffff1916827bffffffffffffffffffffffffffffffffffffffffffffffffffffffff19161480612ce05750612cdf82612e7c565b5b9050919050565b6000808290505b600115612d4e5783518110612d0657612d05614e66565b5b6000612d1b8286612ef690919063ffffffff16565b60ff169050600181612d2d9190614c04565b82612d389190614c04565b915060008103612d485750612d4e565b50612cee565b8281612d5a91906142a8565b91505092915050565b606083518284612d739190614c04565b1115612d7e57600080fd5b60008267ffffffffffffffff811115612d9a57612d99613bed565b5b6040519080825280601f01601f191660200182016040528015612dcc5781602001600182028036833780820191505090505b5090506000806020830191508560208801019050612deb828287612f21565b8293505050509392505050565b6000612e05848484612f85565b612e10878785612f85565b14905095945050505050565b60008251600283612e2d9190614c04565b1115612e3857600080fd5b61ffff8260028501015116905092915050565b60008251600483612e5c9190614c04565b1115612e6757600080fd5b63ffffffff8260048501015116905092915050565b60007f691f3431000000000000000000000000000000000000000000000000000000007bffffffffffffffffffffffffffffffffffffffffffffffffffffffff1916827bffffffffffffffffffffffffffffffffffffffffffffffffffffffff19161480612eef5750612eee82612fb1565b5b9050919050565b6000828281518110612f0b57612f0a61469e565b5b602001015160f81c60f81b60f81c905092915050565b5b60208110612f605781518352602083612f3b9190614c04565b9250602082612f4a9190614c04565b9150602081612f5991906142a8565b9050612f22565b60006001826020036101000a0390508019835116818551168181178652505050505050565b600083518284612f959190614c04565b1115612fa057600080fd5b818360208601012090509392505050565b60007f124a319c000000000000000000000000000000000000000000000000000000007bffffffffffffffffffffffffffffffffffffffffffffffffffffffff1916827bffffffffffffffffffffffffffffffffffffffffffffffffffffffff1916148061302457506130238261302b565b5b9050919050565b60007fa8fa5682000000000000000000000000000000000000000000000000000000007bffffffffffffffffffffffffffffffffffffffffffffffffffffffff1916827bffffffffffffffffffffffffffffffffffffffffffffffffffffffff191614806130f657507f5c98042b000000000000000000000000000000000000000000000000000000007bffffffffffffffffffffffffffffffffffffffffffffffffffffffff1916827bffffffffffffffffffffffffffffffffffffffffffffffffffffffff1916145b8061310657506131058261310d565b5b9050919050565b60007fbc1c58d1000000000000000000000000000000000000000000000000000000007bffffffffffffffffffffffffffffffffffffffffffffffffffffffff1916827bffffffffffffffffffffffffffffffffffffffffffffffffffffffff19161480613180575061317f82613187565b5b9050919050565b60007f3b3b57de000000000000000000000000000000000000000000000000000000007bffffffffffffffffffffffffffffffffffffffffffffffffffffffff1916827bffffffffffffffffffffffffffffffffffffffffffffffffffffffff1916148061325257507ff1cb7e06000000000000000000000000000000000000000000000000000000007bffffffffffffffffffffffffffffffffffffffffffffffffffffffff1916827bffffffffffffffffffffffffffffffffffffffffffffffffffffffff1916145b80613262575061326182613269565b5b9050919050565b60007f2203ab56000000000000000000000000000000000000000000000000000000007bffffffffffffffffffffffffffffffffffffffffffffffffffffffff1916827bffffffffffffffffffffffffffffffffffffffffffffffffffffffff191614806132dc57506132db826132e3565b5b9050919050565b60007fd700ff33000000000000000000000000000000000000000000000000000000007bffffffffffffffffffffffffffffffffffffffffffffffffffffffff1916827bffffffffffffffffffffffffffffffffffffffffffffffffffffffff1916148061335657506133558261335d565b5b9050919050565b60007f4fbf0433000000000000000000000000000000000000000000000000000000007bffffffffffffffffffffffffffffffffffffffffffffffffffffffff1916827bffffffffffffffffffffffffffffffffffffffffffffffffffffffff191614806133d057506133cf826133d7565b5b9050919050565b60007f01ffc9a7000000000000000000000000000000000000000000000000000000007bffffffffffffffffffffffffffffffffffffffffffffffffffffffff1916827bffffffffffffffffffffffffffffffffffffffffffffffffffffffff1916149050919050565b6040518060e001604052806060815260200160008152602001600061ffff168152602001600061ffff168152602001600063ffffffff16815260200160008152602001600081525090565b5080546134989061435f565b6000825580601f106134aa57506134c9565b601f0160209004906000526020600020908101906134c891906134cc565b5b50565b5b808211156134e55760008160009055506001016134cd565b5090565b6000604051905090565b600080fd5b600080fd5b60007fffffffff0000000000000000000000000000000000000000000000000000000082169050919050565b613532816134fd565b811461353d57600080fd5b50565b60008135905061354f81613529565b92915050565b60006020828403121561356b5761356a6134f3565b5b600061357984828501613540565b91505092915050565b60008115159050919050565b61359781613582565b82525050565b60006020820190506135b2600083018461358e565b92915050565b6000819050919050565b6135cb816135b8565b81146135d657600080fd5b50565b6000813590506135e8816135c2565b92915050565b600080fd5b600080fd5b600080fd5b60008083601f840112613613576136126135ee565b5b8235905067ffffffffffffffff8111156136305761362f6135f3565b5b60208301915083600182028301111561364c5761364b6135f8565b5b9250929050565b60008060006040848603121561366c5761366b6134f3565b5b600061367a868287016135d9565b935050602084013567ffffffffffffffff81111561369b5761369a6134f8565b5b6136a7868287016135fd565b92509250509250925092565b60008083601f8401126136c9576136c86135ee565b5b8235905067ffffffffffffffff8111156136e6576136e56135f3565b5b602083019150836001820283011115613702576137016135f8565b5b9250929050565b600080600080600060608688031215613725576137246134f3565b5b6000613733888289016135d9565b955050602086013567ffffffffffffffff811115613754576137536134f8565b5b613760888289016136b3565b9450945050604086013567ffffffffffffffff811115613783576137826134f8565b5b61378f888289016136b3565b92509250509295509295909350565b600080604083850312156137b5576137b46134f3565b5b60006137c3858286016135d9565b92505060206137d485828601613540565b9150509250929050565b600073ffffffffffffffffffffffffffffffffffffffff82169050919050565b6000613809826137de565b9050919050565b613819816137fe565b82525050565b60006020820190506138346000830184613810565b92915050565b6000819050919050565b61384d8161383a565b811461385857600080fd5b50565b60008135905061386a81613844565b92915050565b60008060408385031215613887576138866134f3565b5b6000613895858286016135d9565b92505060206138a68582860161385b565b9150509250929050565b6138b98161383a565b82525050565b600081519050919050565b600082825260208201905092915050565b60005b838110156138f95780820151818401526020810190506138de565b60008484015250505050565b6000601f19601f8301169050919050565b6000613921826138bf565b61392b81856138ca565b935061393b8185602086016138db565b61394481613905565b840191505092915050565b600060408201905061396460008301856138b0565b81810360208301526139768184613916565b90509392505050565b600080600060608486031215613998576139976134f3565b5b60006139a6868287016135d9565b93505060206139b7868287016135d9565b92505060406139c8868287016135d9565b9150509250925092565b6000602082840312156139e8576139e76134f3565b5b60006139f6848285016135d9565b91505092915050565b6000613a0a826137de565b9050919050565b613a1a816139ff565b82525050565b6000602082019050613a356000830184613a11565b92915050565b60008060408385031215613a5257613a516134f3565b5b6000613a60858286016135d9565b9250506020613a71858286016135d9565b9150509250929050565b600080600060408486031215613a9457613a936134f3565b5b6000613aa2868287016135d9565b935050602084013567ffffffffffffffff811115613ac357613ac26134f8565b5b613acf868287016136b3565b92509250509250925092565b600081519050919050565b600082825260208201905092915050565b6000613b0282613adb565b613b0c8185613ae6565b9350613b1c8185602086016138db565b613b2581613905565b840191505092915050565b60006020820190508181036000830152613b4a8184613af7565b905092915050565b60006020820190508181036000830152613b6c8184613916565b905092915050565b60008060008060608587031215613b8e57613b8d6134f3565b5b6000613b9c878288016135d9565b9450506020613bad8782880161385b565b935050604085013567ffffffffffffffff811115613bce57613bcd6134f8565b5b613bda878288016135fd565b925092505092959194509250565b600080fd5b7f4e487b7100000000000000000000000000000000000000000000000000000000600052604160045260246000fd5b613c2582613905565b810181811067ffffffffffffffff82111715613c4457613c43613bed565b5b80604052505050565b6000613c576134e9565b9050613c638282613c1c565b919050565b600067ffffffffffffffff821115613c8357613c82613bed565b5b613c8c82613905565b9050602081019050919050565b82818337600083830152505050565b6000613cbb613cb684613c68565b613c4d565b905082815260208101848484011115613cd757613cd6613be8565b5b613ce2848285613c99565b509392505050565b600082601f830112613cff57613cfe6135ee565b5b8135613d0f848260208601613ca8565b91505092915050565b600080600060608486031215613d3157613d306134f3565b5b6000613d3f868287016135d9565b9350506020613d508682870161385b565b925050604084013567ffffffffffffffff811115613d7157613d706134f8565b5b613d7d86828701613cea565b9150509250925092565b613d90816137fe565b8114613d9b57600080fd5b50565b600081359050613dad81613d87565b92915050565b613dbc81613582565b8114613dc757600080fd5b50565b600081359050613dd981613db3565b92915050565b60008060408385031215613df657613df56134f3565b5b6000613e0485828601613d9e565b9250506020613e1585828601613dca565b9150509250929050565b600061ffff82169050919050565b613e3681613e1f565b8114613e4157600080fd5b50565b600081359050613e5381613e2d565b92915050565b600080600060608486031215613e7257613e716134f3565b5b6000613e80868287016135d9565b9350506020613e91868287016135d9565b9250506040613ea286828701613e44565b9150509250925092565b60008083601f840112613ec257613ec16135ee565b5b8235905067ffffffffffffffff811115613edf57613ede6135f3565b5b602083019150836020820283011115613efb57613efa6135f8565b5b9250929050565b60008060208385031215613f1957613f186134f3565b5b600083013567ffffffffffffffff811115613f3757613f366134f8565b5b613f4385828601613eac565b92509250509250929050565b600081519050919050565b600082825260208201905092915050565b6000819050602082019050919050565b600082825260208201905092915050565b6000613f97826138bf565b613fa18185613f7b565b9350613fb18185602086016138db565b613fba81613905565b840191505092915050565b6000613fd18383613f8c565b905092915050565b6000602082019050919050565b6000613ff182613f4f565b613ffb8185613f5a565b93508360208202850161400d85613f6b565b8060005b85811015614049578484038952815161402a8582613fc5565b945061403583613fd9565b925060208a01995050600181019050614011565b50829750879550505050505092915050565b600060208201905081810360008301526140758184613fe6565b905092915050565b614086816135b8565b82525050565b60006040820190506140a1600083018561407d565b6140ae602083018461407d565b9392505050565b600080604083850312156140cc576140cb6134f3565b5b60006140da858286016135d9565b92505060206140eb85828601613d9e565b9150509250929050565b600067ffffffffffffffff82169050919050565b614112816140f5565b82525050565b600060208201905061412d6000830184614109565b92915050565b60008060006040848603121561414c5761414b6134f3565b5b600061415a868287016135d9565b935050602084013567ffffffffffffffff81111561417b5761417a6134f8565b5b61418786828701613eac565b92509250509250925092565b6000806000606084860312156141ac576141ab6134f3565b5b60006141ba868287016135d9565b93505060206141cb86828701613540565b92505060406141dc86828701613d9e565b9150509250925092565b600080604083850312156141fd576141fc6134f3565b5b600061420b85828601613d9e565b925050602061421c85828601613d9e565b9150509250929050565b600081905092915050565b600061423c826138bf565b6142468185614226565b93506142568185602086016138db565b80840191505092915050565b600061426e8284614231565b915081905092915050565b7f4e487b7100000000000000000000000000000000000000000000000000000000600052601160045260246000fd5b60006142b38261383a565b91506142be8361383a565b92508282039050818111156142d6576142d5614279565b5b92915050565b600081905092915050565b60006142f383856142dc565b9350614300838584613c99565b82840190509392505050565b60006143198284866142e7565b91508190509392505050565b600082905092915050565b7f4e487b7100000000000000000000000000000000000000000000000000000000600052602260045260246000fd5b6000600282049050600182168061437757607f821691505b60208210810361438a57614389614330565b5b50919050565b60008190508160005260206000209050919050565b60006020601f8301049050919050565b600082821b905092915050565b6000600883026143f27fffffffffffffffffffffffffffffffffffffffffffffffffffffffffffffffff826143b5565b6143fc86836143b5565b95508019841693508086168417925050509392505050565b6000819050919050565b600061443961443461442f8461383a565b614414565b61383a565b9050919050565b6000819050919050565b6144538361441e565b61446761445f82614440565b8484546143c2565b825550505050565b600090565b61447c61446f565b61448781848461444a565b505050565b5b818110156144ab576144a0600082614474565b60018101905061448d565b5050565b601f8211156144f0576144c181614390565b6144ca846143a5565b810160208510156144d9578190505b6144ed6144e5856143a5565b83018261448c565b50505b505050565b600082821c905092915050565b6000614513600019846008026144f5565b1980831691505092915050565b600061452c8383614502565b9150826002028217905092915050565b6145468383614325565b67ffffffffffffffff81111561455f5761455e613bed565b5b614569825461435f565b6145748282856144af565b6000601f8311600181146145a35760008415614591578287013590505b61459b8582614520565b865550614603565b601f1984166145b186614390565b60005b828110156145d9578489013582556001820191506020850194506020810190506145b4565b868310156145f657848901356145f2601f891682614502565b8355505b6001600288020188555050505b50505050505050565b60006146188385613ae6565b9350614625838584613c99565b61462e83613905565b840190509392505050565b6000604082019050818103600083015261465481868861460c565b9050818103602083015261466981848661460c565b905095945050505050565b61467d816134fd565b82525050565b60006020820190506146986000830184614674565b92915050565b7f4e487b7100000000000000000000000000000000000000000000000000000000600052603260045260246000fd5b600082905092915050565b60008190508160005260206000209050919050565b601f82111561472e576146ff816146d8565b614708846143a5565b81016020851015614717578190505b61472b614723856143a5565b83018261448c565b50505b505050565b61473d83836146cd565b67ffffffffffffffff81111561475657614755613bed565b5b614760825461435f565b61476b8282856146ed565b6000601f83116001811461479a5760008415614788578287013590505b6147928582614520565b8655506147fa565b601f1984166147a8866146d8565b60005b828110156147d0578489013582556001820191506020850194506020810190506147ab565b868310156147ed57848901356147e9601f891682614502565b8355505b6001600288020188555050505b50505050505050565b600061480f83856138ca565b935061481c838584613c99565b61482583613905565b840190509392505050565b6000602082019050818103600083015261484b818486614803565b90509392505050565b600061485f826140f5565b915067ffffffffffffffff820361487957614878614279565b5b600182019050919050565b6000602082019050818103600083015261489f81848661460c565b90509392505050565b60006148c36148be6148b9846137de565b614414565b6137de565b9050919050565b60006148d5826148a8565b9050919050565b60006148e7826148ca565b9050919050565b6148f7816148dc565b82525050565b600060208201905061491260008301846148ee565b92915050565b614921826138bf565b67ffffffffffffffff81111561493a57614939613bed565b5b614944825461435f565b61494f8282856146ed565b600060209050601f8311600181146149825760008415614970578287015190505b61497a8582614520565b8655506149e2565b601f198416614990866146d8565b60005b828110156149b857848901518255600182019150602085019450602081019050614993565b868310156149d557848901516149d1601f891682614502565b8355505b6001600288020188555050505b505050505050565b7f455243313135353a2073657474696e6720617070726f76616c2073746174757360008201527f20666f722073656c660000000000000000000000000000000000000000000000602082015250565b6000614a46602983613ae6565b9150614a51826149ea565b604082019050919050565b60006020820190508181036000830152614a7581614a39565b9050919050565b60006040820190508181036000830152614a968186613916565b90508181036020830152614aab818486614803565b9050949350505050565b6000602082019050614aca600083018461407d565b92915050565b600081519050614adf81613d87565b92915050565b600060208284031215614afb57614afa6134f3565b5b6000614b0984828501614ad0565b91505092915050565b6000602082019050614b2760008301846138b0565b92915050565b6000614b3882613e1f565b915060008203614b4b57614b4a614279565b5b600182039050919050565b614b5f81613e1f565b82525050565b60006040820190508181036000830152614b7f8185613916565b9050614b8e6020830184614b56565b9392505050565b6000614ba082613e1f565b915061ffff8203614bb457614bb3614279565b5b600182019050919050565b60006060820190508181036000830152614bd98186613916565b9050614be86020830185614b56565b8181036040830152614bfa8184613916565b9050949350505050565b6000614c0f8261383a565b9150614c1a8361383a565b9250828201905080821115614c3257614c31614279565b5b92915050565b600080fd5b600080fd5b600080fd5b60008083356001602003843603038112614c6457614c63614c38565b5b80840192508235915067ffffffffffffffff821115614c8657614c85614c3d565b5b602083019250600182023603831315614ca257614ca1614c42565b5b509250929050565b600080fd5b600080fd5b60008085851115614cc857614cc7614caa565b5b83861115614cd957614cd8614caf565b5b6001850283019150848603905094509492505050565b6000614cfb83836146cd565b82614d0681356135b8565b92506020821015614d4657614d417fffffffffffffffffffffffffffffffffffffffffffffffffffffffffffffffff836020036008026143b5565b831692505b505092915050565b7f6d756c746963616c6c3a20416c6c207265636f726473206d757374206861766560008201527f2061206d61746368696e67206e616d6568617368000000000000000000000000602082015250565b6000614daa603483613ae6565b9150614db582614d4e565b604082019050919050565b60006020820190508181036000830152614dd981614d9d565b9050919050565b6000614dec8385614226565b9350614df9838584613c99565b82840190509392505050565b6000614e12828486614de0565b91508190509392505050565b6000614e298261383a565b91507fffffffffffffffffffffffffffffffffffffffffffffffffffffffffffffffff8203614e5b57614e5a614279565b5b600182019050919050565b7f4e487b7100000000000000000000000000000000000000000000000000000000600052600160045260246000fdfea2646970667358221220bacf41d17d6a110b5cbf73b481e7fba13df963a532d6762fda7189940b8a7f9b64736f6c63430008110033",
  "linkReferences": {},
  "deployedLinkReferences": {}
}