{
  "_format": "hh-sol-artifact-1",
  "contractName": "ReverseRegistrar",
  "sourceName": "@ensdomains/ens-contracts/contracts/registry/ReverseRegistrar.sol",
  "abi": [
    {
      "inputs": [
        {
          "internalType": "contract ENS",
          "name": "ensAddr",
          "type": "address"
        }
      ],
      "stateMutability": "nonpayable",
      "type": "constructor"
    },
    {
      "anonymous": false,
      "inputs": [
        {
          "indexed": true,
          "internalType": "address",
          "name": "controller",
          "type": "address"
        },
        {
          "indexed": false,
          "internalType": "bool",
          "name": "enabled",
          "type": "bool"
        }
      ],
      "name": "ControllerChanged",
      "type": "event"
    },
    {
      "anonymous": false,
      "inputs": [
        {
          "indexed": true,
          "internalType": "contract NameResolver",
          "name": "resolver",
          "type": "address"
        }
      ],
      "name": "DefaultResolverChanged",
      "type": "event"
    },
    {
      "anonymous": false,
      "inputs": [
        {
          "indexed": true,
          "internalType": "address",
          "name": "previousOwner",
          "type": "address"
        },
        {
          "indexed": true,
          "internalType": "address",
          "name": "newOwner",
          "type": "address"
        }
      ],
      "name": "OwnershipTransferred",
      "type": "event"
    },
    {
      "anonymous": false,
      "inputs": [
        {
          "indexed": true,
          "internalType": "address",
          "name": "addr",
          "type": "address"
        },
        {
          "indexed": true,
          "internalType": "bytes32",
          "name": "node",
          "type": "bytes32"
        }
      ],
      "name": "ReverseClaimed",
      "type": "event"
    },
    {
      "inputs": [
        {
          "internalType": "address",
          "name": "owner",
          "type": "address"
        }
      ],
      "name": "claim",
      "outputs": [
        {
          "internalType": "bytes32",
          "name": "",
          "type": "bytes32"
        }
      ],
      "stateMutability": "nonpayable",
      "type": "function"
    },
    {
      "inputs": [
        {
          "internalType": "address",
          "name": "addr",
          "type": "address"
        },
        {
          "internalType": "address",
          "name": "owner",
          "type": "address"
        },
        {
          "internalType": "address",
          "name": "resolver",
          "type": "address"
        }
      ],
      "name": "claimForAddr",
      "outputs": [
        {
          "internalType": "bytes32",
          "name": "",
          "type": "bytes32"
        }
      ],
      "stateMutability": "nonpayable",
      "type": "function"
    },
    {
      "inputs": [
        {
          "internalType": "address",
          "name": "owner",
          "type": "address"
        },
        {
          "internalType": "address",
          "name": "resolver",
          "type": "address"
        }
      ],
      "name": "claimWithResolver",
      "outputs": [
        {
          "internalType": "bytes32",
          "name": "",
          "type": "bytes32"
        }
      ],
      "stateMutability": "nonpayable",
      "type": "function"
    },
    {
      "inputs": [
        {
          "internalType": "address",
          "name": "",
          "type": "address"
        }
      ],
      "name": "controllers",
      "outputs": [
        {
          "internalType": "bool",
          "name": "",
          "type": "bool"
        }
      ],
      "stateMutability": "view",
      "type": "function"
    },
    {
      "inputs": [],
      "name": "defaultResolver",
      "outputs": [
        {
          "internalType": "contract NameResolver",
          "name": "",
          "type": "address"
        }
      ],
      "stateMutability": "view",
      "type": "function"
    },
    {
      "inputs": [],
      "name": "ens",
      "outputs": [
        {
          "internalType": "contract ENS",
          "name": "",
          "type": "address"
        }
      ],
      "stateMutability": "view",
      "type": "function"
    },
    {
      "inputs": [
        {
          "internalType": "address",
          "name": "addr",
          "type": "address"
        }
      ],
      "name": "node",
      "outputs": [
        {
          "internalType": "bytes32",
          "name": "",
          "type": "bytes32"
        }
      ],
      "stateMutability": "pure",
      "type": "function"
    },
    {
      "inputs": [],
      "name": "owner",
      "outputs": [
        {
          "internalType": "address",
          "name": "",
          "type": "address"
        }
      ],
      "stateMutability": "view",
      "type": "function"
    },
    {
      "inputs": [],
      "name": "renounceOwnership",
      "outputs": [],
      "stateMutability": "nonpayable",
      "type": "function"
    },
    {
      "inputs": [
        {
          "internalType": "address",
          "name": "controller",
          "type": "address"
        },
        {
          "internalType": "bool",
          "name": "enabled",
          "type": "bool"
        }
      ],
      "name": "setController",
      "outputs": [],
      "stateMutability": "nonpayable",
      "type": "function"
    },
    {
      "inputs": [
        {
          "internalType": "address",
          "name": "resolver",
          "type": "address"
        }
      ],
      "name": "setDefaultResolver",
      "outputs": [],
      "stateMutability": "nonpayable",
      "type": "function"
    },
    {
      "inputs": [
        {
          "internalType": "string",
          "name": "name",
          "type": "string"
        }
      ],
      "name": "setName",
      "outputs": [
        {
          "internalType": "bytes32",
          "name": "",
          "type": "bytes32"
        }
      ],
      "stateMutability": "nonpayable",
      "type": "function"
    },
    {
      "inputs": [
        {
          "internalType": "address",
          "name": "addr",
          "type": "address"
        },
        {
          "internalType": "address",
          "name": "owner",
          "type": "address"
        },
        {
          "internalType": "address",
          "name": "resolver",
          "type": "address"
        },
        {
          "internalType": "string",
          "name": "name",
          "type": "string"
        }
      ],
      "name": "setNameForAddr",
      "outputs": [
        {
          "internalType": "bytes32",
          "name": "",
          "type": "bytes32"
        }
      ],
      "stateMutability": "nonpayable",
      "type": "function"
    },
    {
      "inputs": [
        {
          "internalType": "address",
          "name": "newOwner",
          "type": "address"
        }
      ],
      "name": "transferOwnership",
      "outputs": [],
      "stateMutability": "nonpayable",
      "type": "function"
    }
  ],
  "bytecode": "0x60a06040523480156200001157600080fd5b5060405162001b1c38038062001b1c83398181016040528101906200003791906200033b565b620000576200004b620001f160201b60201c565b620001f960201b60201c565b8073ffffffffffffffffffffffffffffffffffffffff1660808173ffffffffffffffffffffffffffffffffffffffff168152505060008173ffffffffffffffffffffffffffffffffffffffff166302571be37f91d1777781884d03a6757a803996e38de2a42967fb37eeaca72729271025a9e260001b6040518263ffffffff1660e01b8152600401620000eb919062000388565b602060405180830381865afa15801562000109573d6000803e3d6000fd5b505050506040513d601f19601f820116820180604052508101906200012f9190620003d6565b9050600073ffffffffffffffffffffffffffffffffffffffff168173ffffffffffffffffffffffffffffffffffffffff1614620001e9578073ffffffffffffffffffffffffffffffffffffffff16631e83409a336040518263ffffffff1660e01b8152600401620001a1919062000419565b6020604051808303816000875af1158015620001c1573d6000803e3d6000fd5b505050506040513d601f19601f82011682018060405250810190620001e7919062000467565b505b505062000499565b600033905090565b60008060009054906101000a900473ffffffffffffffffffffffffffffffffffffffff169050816000806101000a81548173ffffffffffffffffffffffffffffffffffffffff021916908373ffffffffffffffffffffffffffffffffffffffff1602179055508173ffffffffffffffffffffffffffffffffffffffff168173ffffffffffffffffffffffffffffffffffffffff167f8be0079c531659141344cd1fd0a4f28419497f9722a3daafe3b4186f6b6457e060405160405180910390a35050565b600080fd5b600073ffffffffffffffffffffffffffffffffffffffff82169050919050565b6000620002ef82620002c2565b9050919050565b60006200030382620002e2565b9050919050565b6200031581620002f6565b81146200032157600080fd5b50565b60008151905062000335816200030a565b92915050565b600060208284031215620003545762000353620002bd565b5b6000620003648482850162000324565b91505092915050565b6000819050919050565b62000382816200036d565b82525050565b60006020820190506200039f600083018462000377565b92915050565b620003b081620002e2565b8114620003bc57600080fd5b50565b600081519050620003d081620003a5565b92915050565b600060208284031215620003ef57620003ee620002bd565b5b6000620003ff84828501620003bf565b91505092915050565b6200041381620002e2565b82525050565b600060208201905062000430600083018462000408565b92915050565b62000441816200036d565b81146200044d57600080fd5b50565b600081519050620004618162000436565b92915050565b60006020828403121562000480576200047f620002bd565b5b6000620004908482850162000450565b91505092915050565b608051611659620004c360003960008181610344015281816103f4015261058101526116596000f3fe608060405234801561001057600080fd5b50600436106100ea5760003560e01c80638da5cb5b1161008c578063c66485b211610066578063c66485b214610273578063da8c229e1461028f578063e0dba60f146102bf578063f2fde38b146102db576100ea565b80638da5cb5b146101f5578063bffbe61c14610213578063c47f002714610243576100ea565b806365669631116100c8578063656696311461016d578063715018a61461019d5780637a806d6b146101a7578063828eab0e146101d7576100ea565b80630f5a5466146100ef5780631e83409a1461011f5780633f15457f1461014f575b600080fd5b61010960048036038101906101049190610d08565b6102f7565b6040516101169190610d61565b60405180910390f35b61013960048036038101906101349190610d7c565b61030c565b6040516101469190610d61565b60405180910390f35b610157610342565b6040516101649190610e08565b60405180910390f35b61018760048036038101906101829190610e23565b610366565b6040516101949190610d61565b60405180910390f35b6101a5610643565b005b6101c160048036038101906101bc9190610fbc565b610657565b6040516101ce9190610d61565b60405180910390f35b6101df6106e0565b6040516101ec9190611060565b60405180910390f35b6101fd610706565b60405161020a919061108a565b60405180910390f35b61022d60048036038101906102289190610d7c565b61072f565b60405161023a9190610d61565b60405180910390f35b61025d600480360381019061025891906110a5565b61078c565b60405161026a9190610d61565b60405180910390f35b61028d60048036038101906102889190610d7c565b6107c3565b005b6102a960048036038101906102a49190610d7c565b6108c1565b6040516102b69190611109565b60405180910390f35b6102d960048036038101906102d49190611150565b6108e1565b005b6102f560048036038101906102f09190610d7c565b610992565b005b6000610304338484610366565b905092915050565b600061033b3383600260009054906101000a900473ffffffffffffffffffffffffffffffffffffffff16610366565b9050919050565b7f000000000000000000000000000000000000000000000000000000000000000081565b6000833373ffffffffffffffffffffffffffffffffffffffff168173ffffffffffffffffffffffffffffffffffffffff1614806103ec5750600160003373ffffffffffffffffffffffffffffffffffffffff1673ffffffffffffffffffffffffffffffffffffffff16815260200190815260200160002060009054906101000a900460ff165b8061048f57507f000000000000000000000000000000000000000000000000000000000000000073ffffffffffffffffffffffffffffffffffffffff1663e985e9c582336040518363ffffffff1660e01b815260040161044d929190611190565b602060405180830381865afa15801561046a573d6000803e3d6000fd5b505050506040513d601f19601f8201168201806040525081019061048e91906111ce565b5b8061049f575061049e81610a15565b5b6104de576040517f08c379a00000000000000000000000000000000000000000000000000000000081526004016104d5906112a4565b60405180910390fd5b60006104e986610ac4565b905060007f91d1777781884d03a6757a803996e38de2a42967fb37eeaca72729271025a9e260001b826040516020016105239291906112e5565b604051602081830303815290604052805190602001209050808773ffffffffffffffffffffffffffffffffffffffff167f6ada868dd3058cf77a48a74489fd7963688e5464b2b0fa957ace976243270e9260405160405180910390a37f000000000000000000000000000000000000000000000000000000000000000073ffffffffffffffffffffffffffffffffffffffff16635ef2c7f07f91d1777781884d03a6757a803996e38de2a42967fb37eeaca72729271025a9e260001b84898960006040518663ffffffff1660e01b8152600401610604959493929190611360565b600060405180830381600087803b15801561061e57600080fd5b505af1158015610632573d6000803e3d6000fd5b505050508093505050509392505050565b61064b610b4c565b6106556000610bca565b565b600080610665868686610366565b90508373ffffffffffffffffffffffffffffffffffffffff16637737221382856040518363ffffffff1660e01b81526004016106a2929190611421565b600060405180830381600087803b1580156106bc57600080fd5b505af11580156106d0573d6000803e3d6000fd5b5050505080915050949350505050565b600260009054906101000a900473ffffffffffffffffffffffffffffffffffffffff1681565b60008060009054906101000a900473ffffffffffffffffffffffffffffffffffffffff16905090565b60007f91d1777781884d03a6757a803996e38de2a42967fb37eeaca72729271025a9e260001b61075e83610ac4565b60405160200161076f9291906112e5565b604051602081830303815290604052805190602001209050919050565b60006107bc3333600260009054906101000a900473ffffffffffffffffffffffffffffffffffffffff1685610657565b9050919050565b6107cb610b4c565b600073ffffffffffffffffffffffffffffffffffffffff168173ffffffffffffffffffffffffffffffffffffffff160361083a576040517f08c379a0000000000000000000000000000000000000000000000000000000008152600401610831906114c3565b60405180910390fd5b80600260006101000a81548173ffffffffffffffffffffffffffffffffffffffff021916908373ffffffffffffffffffffffffffffffffffffffff1602179055508073ffffffffffffffffffffffffffffffffffffffff167feae17a84d9eb83d8c8eb317f9e7d64857bc363fa51674d996c023f4340c577cf60405160405180910390a250565b60016020528060005260406000206000915054906101000a900460ff1681565b6108e9610b4c565b80600160008473ffffffffffffffffffffffffffffffffffffffff1673ffffffffffffffffffffffffffffffffffffffff16815260200190815260200160002060006101000a81548160ff0219169083151502179055508173ffffffffffffffffffffffffffffffffffffffff167f4c97694570a07277810af7e5669ffd5f6a2d6b74b6e9a274b8b870fd5114cf87826040516109869190611109565b60405180910390a25050565b61099a610b4c565b600073ffffffffffffffffffffffffffffffffffffffff168173ffffffffffffffffffffffffffffffffffffffff1603610a09576040517f08c379a0000000000000000000000000000000000000000000000000000000008152600401610a0090611555565b60405180910390fd5b610a1281610bca565b50565b60008173ffffffffffffffffffffffffffffffffffffffff16638da5cb5b6040518163ffffffff1660e01b8152600401602060405180830381865afa925050508015610a7f57506040513d601f19601f82011682018060405250810190610a7c919061158a565b60015b610a8c5760009050610abf565b3373ffffffffffffffffffffffffffffffffffffffff168173ffffffffffffffffffffffffffffffffffffffff16149150505b919050565b600060285b6000811115610b3f576001810390507f3031323334353637383961626364656600000000000000000000000000000000600f84161a81536010830492506001810390507f3031323334353637383961626364656600000000000000000000000000000000600f84161a8153601083049250610ac9565b5060286000209050919050565b610b54610c8e565b73ffffffffffffffffffffffffffffffffffffffff16610b72610706565b73ffffffffffffffffffffffffffffffffffffffff1614610bc8576040517f08c379a0000000000000000000000000000000000000000000000000000000008152600401610bbf90611603565b60405180910390fd5b565b60008060009054906101000a900473ffffffffffffffffffffffffffffffffffffffff169050816000806101000a81548173ffffffffffffffffffffffffffffffffffffffff021916908373ffffffffffffffffffffffffffffffffffffffff1602179055508173ffffffffffffffffffffffffffffffffffffffff168173ffffffffffffffffffffffffffffffffffffffff167f8be0079c531659141344cd1fd0a4f28419497f9722a3daafe3b4186f6b6457e060405160405180910390a35050565b600033905090565b6000604051905090565b600080fd5b600080fd5b600073ffffffffffffffffffffffffffffffffffffffff82169050919050565b6000610cd582610caa565b9050919050565b610ce581610cca565b8114610cf057600080fd5b50565b600081359050610d0281610cdc565b92915050565b60008060408385031215610d1f57610d1e610ca0565b5b6000610d2d85828601610cf3565b9250506020610d3e85828601610cf3565b9150509250929050565b6000819050919050565b610d5b81610d48565b82525050565b6000602082019050610d766000830184610d52565b92915050565b600060208284031215610d9257610d91610ca0565b5b6000610da084828501610cf3565b91505092915050565b6000819050919050565b6000610dce610dc9610dc484610caa565b610da9565b610caa565b9050919050565b6000610de082610db3565b9050919050565b6000610df282610dd5565b9050919050565b610e0281610de7565b82525050565b6000602082019050610e1d6000830184610df9565b92915050565b600080600060608486031215610e3c57610e3b610ca0565b5b6000610e4a86828701610cf3565b9350506020610e5b86828701610cf3565b9250506040610e6c86828701610cf3565b9150509250925092565b600080fd5b600080fd5b6000601f19601f8301169050919050565b7f4e487b7100000000000000000000000000000000000000000000000000000000600052604160045260246000fd5b610ec982610e80565b810181811067ffffffffffffffff82111715610ee857610ee7610e91565b5b80604052505050565b6000610efb610c96565b9050610f078282610ec0565b919050565b600067ffffffffffffffff821115610f2757610f26610e91565b5b610f3082610e80565b9050602081019050919050565b82818337600083830152505050565b6000610f5f610f5a84610f0c565b610ef1565b905082815260208101848484011115610f7b57610f7a610e7b565b5b610f86848285610f3d565b509392505050565b600082601f830112610fa357610fa2610e76565b5b8135610fb3848260208601610f4c565b91505092915050565b60008060008060808587031215610fd657610fd5610ca0565b5b6000610fe487828801610cf3565b9450506020610ff587828801610cf3565b935050604061100687828801610cf3565b925050606085013567ffffffffffffffff81111561102757611026610ca5565b5b61103387828801610f8e565b91505092959194509250565b600061104a82610dd5565b9050919050565b61105a8161103f565b82525050565b60006020820190506110756000830184611051565b92915050565b61108481610cca565b82525050565b600060208201905061109f600083018461107b565b92915050565b6000602082840312156110bb576110ba610ca0565b5b600082013567ffffffffffffffff8111156110d9576110d8610ca5565b5b6110e584828501610f8e565b91505092915050565b60008115159050919050565b611103816110ee565b82525050565b600060208201905061111e60008301846110fa565b92915050565b61112d816110ee565b811461113857600080fd5b50565b60008135905061114a81611124565b92915050565b6000806040838503121561116757611166610ca0565b5b600061117585828601610cf3565b92505060206111868582860161113b565b9150509250929050565b60006040820190506111a5600083018561107b565b6111b2602083018461107b565b9392505050565b6000815190506111c881611124565b92915050565b6000602082840312156111e4576111e3610ca0565b5b60006111f2848285016111b9565b91505092915050565b600082825260208201905092915050565b7f526576657273655265676973747261723a2043616c6c6572206973206e6f742060008201527f6120636f6e74726f6c6c6572206f7220617574686f726973656420627920616460208201527f6472657373206f7220746865206164647265737320697473656c660000000000604082015250565b600061128e605b836111fb565b91506112998261120c565b606082019050919050565b600060208201905081810360008301526112bd81611281565b9050919050565b6000819050919050565b6112df6112da82610d48565b6112c4565b82525050565b60006112f182856112ce565b60208201915061130182846112ce565b6020820191508190509392505050565b6000819050919050565b600067ffffffffffffffff82169050919050565b600061134a61134561134084611311565b610da9565b61131b565b9050919050565b61135a8161132f565b82525050565b600060a0820190506113756000830188610d52565b6113826020830187610d52565b61138f604083018661107b565b61139c606083018561107b565b6113a96080830184611351565b9695505050505050565b600081519050919050565b60005b838110156113dc5780820151818401526020810190506113c1565b60008484015250505050565b60006113f3826113b3565b6113fd81856111fb565b935061140d8185602086016113be565b61141681610e80565b840191505092915050565b60006040820190506114366000830185610d52565b818103602083015261144881846113e8565b90509392505050565b7f526576657273655265676973747261723a205265736f6c76657220616464726560008201527f7373206d757374206e6f74206265203000000000000000000000000000000000602082015250565b60006114ad6030836111fb565b91506114b882611451565b604082019050919050565b600060208201905081810360008301526114dc816114a0565b9050919050565b7f4f776e61626c653a206e6577206f776e657220697320746865207a65726f206160008201527f6464726573730000000000000000000000000000000000000000000000000000602082015250565b600061153f6026836111fb565b915061154a826114e3565b604082019050919050565b6000602082019050818103600083015261156e81611532565b9050919050565b60008151905061158481610cdc565b92915050565b6000602082840312156115a05761159f610ca0565b5b60006115ae84828501611575565b91505092915050565b7f4f776e61626c653a2063616c6c6572206973206e6f7420746865206f776e6572600082015250565b60006115ed6020836111fb565b91506115f8826115b7565b602082019050919050565b6000602082019050818103600083015261161c816115e0565b905091905056fea26469706673582212209a51acd6ec137fdc45d3e4147d0bdab24dc1698acd1a3ea67be7bc372037386464736f6c63430008110033",
  "linkReferences": {},
  "deployedLinkReferences": {}
}